S00F0000537072696E74312E7372656364
S11300000C942A000C9447000C9447000C9447006D
S11300100C9447000C9447000C9447000C949E0BDE
S11300200C9447000C9447000C9447000C94470030
S11300300C9447000C9447000C9447000C94470020
S11300400C9447000C9447000C9447000C94470010
S11300500C94470011241FBECFE5D8E0DEBFCDBF0E
S113006010E0A0E6B0E0E6E5FBE202C005900D92E8
S1130070A83CB107D9F727E0A8ECB0E001C01D9275
S1130080AB32B207E1F70E94E8010C94A9150C9475
S11300900000CF93DF9300D0CDB7DEB79A83898376
S11300A00E94CD049093D1008093D0008091CA0027
S11300B09091CB000E94940D8091CC009091CD0042
S11300C00E94940D8091CE009091CF000E94940DD7
S11300D080E10E94A20380E20E94A20380E40E94C5
S11300E0A20380E190E00E94580484E090E00E9422
S11300F0580480E00E946A040E94B6028091CA00FB
S11301009091CB000E94310E8091CC009091CD0053
S11301100E94310E8091CE009091CF000E94310E4A
S11301208091C8009091C9000E94940DBFCF0F9395
S11301301F93CF93DF93CDB7DEB765970FB6F894CF
S1130140DEBF0FBECDBF9D8B8C8B1F82198285E0D5
S1130150EAE8F0E0DE011A9601900D928A95E1F743
S113016025E0CE010F96FC01322F11923A95E9F762
S11301701A821B821C821E821D8284E690E099876B
S113018088878091D0009091D10028853985890194
S113019020E041E067E070E00E94ED049E838D83DF
S11301A08D819E8183709927039741F5898191E020
S11301B0980F9983682F8F810E948B038B81805DB8
S11301C00E94DB028A81882F90E09E01215F3F4FCD
S11301D0820F931F2B81FC0120838A818F5F8A8386
S11301E01B828B810E94BA048091D0009091D1002F
S11301F063E070E00E94B6059E838D838D819E81AD
S113020081709927892BC1F08B818F5F8B838B81C0
S11302108A3020F48B810E94BA0404C01B828B8133
S11302200E94BA048091D0009091D10061E070E006
S11302300E94B6059E838D838D819E81847099274B
S1130240892B09F45BC01A821EC08A81882F90E032
S11302509E01215F3F4F820F931FFC0140818A81E1
S1130260882F90E09E01265F3F4F820F931FFC0171
S11302708081481719F481E08C8302C01C8206C077
S11302808A818F5F8A838A818530F8F28C81882302
S1130290A9F060E080E00E948B0380E690E00E9479
S11302A0520380E10E94EC0380ED97E00E94710DFF
S11302B080E10E9422040E94800314C060E080E078
S11302C00E948B0384E790E00E94520380E20E9424
S11302D0EC0388EB9BE00E94710D80E20E942204F3
S11302E00E9480038091D0009091D10064E070E07E
S11302F00E94B6059E838D831E821D821E821D82EE
S113030088EE93E00E94710D3CCFCF93DF9300D031
S113031000D01F92CDB7DEB79D838C831B821A82D7
S1130320198264E082E00E945314882331F180E151
S11303300E94EC038981816089838CED95E00E94A1
S1130340710D64E082E00E945314882331F080E14F
S11303500E9422048981826089838981282F30E068
S11303608091D0009091D100B9010E94EF059B8348
S11303708A838AEF90E00E94710D19828AEF90E0DF
S11303800E94710DCECFCF93DF9300D000D01F9287
S1130390CDB7DEB79D838C831B821A82198262E0FB
S11303A081E00E945314882369F0898184608983E1
S11303B08091D0009091D10064E070E00E94EF053C
S11303C09B838A8319828AEF90E00E94710DE7CFA4
S11303D0EF92FF920F93CF93DF931F92CDB7DEB7C7
S11303E019820F2EF8ECEF2EF0E0FF2EF02D04E032
S11303F020E030E044E650E06FE870E089E490E00B
S11304000E94A20B89830F2EFAECEF2EF0E0FF2E50
S1130410F02D01E020E030E040E951E063EA70E0D3
S113042087E990E00E94A20B89830F2EFCECEF2E4B
S1130430F0E0FF2EF02D03E020E030E048EC50E047
S113044060EB70E085E891E00E94A20B89830F2E97
S1130450FEECEF2EF0E0FF2EF02D03E020E030E084
S113046048EC50E069EB70E083EC91E00E94A20B51
S113047089830E94990E80E090E00F90DF91CF91E4
S11304800F91FF90EF900895CF93DF931F92CDB714
S1130490DEB7898340E062E080E00E94B41340E06C
S11304A064E080E00E94B4138981881F8827881F34
S11304B0482F60E880E00E94B41389818295869574
S11304C0869583708170482F60E480E00E94B413A5
S11304D089818295869587708170482F60E280E0DB
S11304E00E94B413898182958F708170482F60E1D6
S11304F080E00E94B41341E068E080E00E94B413FD
S113050040E068E080E00E94B41389818695869576
S113051086958170482F60E880E00E94B413898139
S1130520869586958170482F60E480E00E94B4131C
S1130530898186958170482F60E280E00E94B4131F
S113054089818170482F60E180E00E94B41341E00A
S113055068E080E00E94B41340E068E080E00E941C
S1130560B41300000F90DF91CF910895CF93DF93E0
S11305701F92CDB7DEB719828091D2008823A1F4EF
S11305806FEF80E00E94D11282E00E94440288E270
S11305900E9444028EE00E94440286E00E944402CB
S11305A081E08093D20002C083E0898389810F9027
S11305B0DF91CF910895CF93DF931F92CDB7DEB72C
S11305C089838091D200813009F067C041E062E004
S11305D080E00E94B41340E064E080E00E94B41321
S11305E08981881F8827881F482F60E880E00E943F
S11305F0B413898182958695869583708170482F7E
S113060060E480E00E94B4138981829586958770A6
S11306108170482F60E280E00E94B4138981829542
S11306208F708170482F60E180E00E94B41341E034
S113063068E080E00E94B41340E068E080E00E943B
S1130640B41389818695869586958170482F60E8D4
S113065080E00E94B4138981869586958170482F25
S113066060E480E00E94B413898186958170482FEC
S113067060E280E00E94B41389818170482F60E1B8
S113068080E00E94B41341E068E080E00E94B4136B
S113069040E068E080E00E94B41300000F90DF9116
S11306A0CF910895CF93DF9300D01F92CDB7DEB7DB
S11306B09B838A8319828091D2008130D1F40EC049
S11306C08981882F90E02A813B81820F931FFC014E
S11306D080810E94DB0289818F5F89838981882FD1
S11306E090E02A813B81820F931FFC018081882343
S11306F039F700000F900F900F90DF91CF9108957C
S1130700CF93DF93CDB7DEB781E00E9444020000AF
S1130710DF91CF910895CF93DF9300D0CDB7DEB7AB
S113072089836A839981892F880F880F980F8A811A
S1130730890F80680E94440200000F900F90DF919F
S1130740CF910895CF93DF931F92CDB7DEB78983FE
S11307508981882F90E080329105C1F08132910522
S11307601CF4409741F033C080349105D1F08038B7
S1130770910511F12CC04FEF60E181E00E94081354
S113078040E060E181E00E94B41321C04FEF60E2D9
S113079081E00E94081340E060E281E00E94B4130B
S11307A016C04FEF60E481E00E94081340E060E46B
S11307B081E00E94B4130BC04FEF60E881E00E9417
S11307C0081340E060E881E00E94B41300000000D8
S11307D00F90DF91CF910895CF93DF931F92CDB700
S11307E0DEB789838981882F90E08032910599F062
S11307F0813291051CF4409741F01FC0803491056B
S113080081F08038910599F018C041E060E181E001
S11308100E94B41312C041E060E281E00E94B4136C
S11308200CC041E060E481E00E94B41306C041E0E2
S113083060E881E00E94B413000000000F90DF9193
S1130840CF910895CF93DF931F92CDB7DEB78983FD
S11308508981882F90E08032910599F08132910549
S11308601CF4409741F01FC08034910581F080381A
S1130870910599F018C040E060E181E00E94B41352
S113088012C040E060E281E00E94B4130CC040E07A
S113089060E481E00E94B41306C040E060E881E0B7
S11308A00E94B413000000000F90DF91CF910895CF
S11308B0CF93DF93CDB7DEB740E064E082E00E94DF
S11308C0081340E062E081E00E9408130000DF9119
S11308D0CF910895CF93DF931F92CDB7DEB789836D
S11308E06FEF81E00E94B9148981882F90E08130F4
S11308F09105B9F0823091051CF4892B39F032C08E
S113090082309105C9F0039711F12CC04FEF64E0D8
S113091083E00E94081341E064E083E00E94B41382
S113092021C04FEF68E083E00E94081341E068E0D3
S113093083E00E94B41316C04FEF60E483E00E948A
S1130940081341E060E483E00E94B4130BC04FEF4E
S113095060E883E00E94081341E060E883E00E94BD
S1130960B413000080E00E94BA0400000F90DF91ED
S1130970CF910895CF93DF931F92CDB7DEB78983CC
S11309806FEF81E00E94B914698181E00E945215E1
S113099000000F90DF91CF910895CF93DF9300D0A3
S11309A0CDB7DEB78BE090E00E94DE069A838983A0
S11309B089819A81892B51F089819A81FC01118264
S11309C0108289819A8102960E94400789819A81C6
S11309D00F900F90DF91CF9108950F931F93CF93B2
S11309E0DF93CDB7DEB763970FB6F894DEBF0FBEC3
S11309F0CDBF9D878C877F876E87488B298B1B8B08
S1130A000A8B8C859D859E838D831C821B821F820D
S1130A100E94CE0E8D819E81FC01808191819987F7
S1130A2088872E853F85888599854989B9010E94E3
S1130A30AC068A878A858823D1F0888599859A832C
S1130A4089831B8A1A8A88898823E1F18D819E8192
S1130A50FC01208131818E859F8580959095282386
S1130A6039238D819E81FC01318320832BC08A89A7
S1130A709B89892B39F4888599859A83898381E0B8
S1130A808F8320C08889882329F08B819C81916081
S1130A909C838B838989882329F08B819C81946032
S1130AA09C838B832E853F858B819C81282B392BBE
S1130AB08D819E8102964A895B89B9010E94D31077
S1130AC01A8219820E94DB0E8B878A899B89892B63
S1130AD009F43FC08B85882311F40E94840A0E9484
S1130AE02D129A83898389819A8188279270892B10
S1130AF059F50FB6F8940F928D819E81FC01808187
S1130B0091819A8389832E853F8589819A81498938
S1130B10B9010E94AC06882399F08889882381F062
S1130B208D819E81FC01208131818E859F858095F8
S1130B309095282339238D819E81FC013183208364
S1130B4081E08F830F900FBE89819A8199279A83C0
S1130B50898389819A8163960FB6F894DEBF0FBEAC
S1130B60CDBFDF91CF911F910F910895CF93DF9364
S1130B70CDB7DEB728970FB6F894DEBF0FBECDBF52
S1130B809E838D8378876F838D819E819A838983E9
S1130B900FB6F8940F9289819A81FC01808191812A
S1130BA09C838B8389819A81FC01208131818F818F
S1130BB09885809590952823392389819A81FC0111
S1130BC0318320830F900FBE8B819C8128960FB6B2
S1130BD0F894DEBF0FBECDBFDF91CF910895CF93C0
S1130BE0DF93CDB7DEB765970FB6F894DEBF0FBEBF
S1130BF0CDBF9B8B8A8B7D8B6C8B1C821B828A89DD
S1130C009B899F838E831D828E819F810296998703
S1130C1088878885998503969B878A870E94CE0E4C
S1130C2088859985FC01858196819A8389838E8143
S1130C309F81FC01208131818C899D89282B392B4E
S1130C408E819F81FC01318320835EC089819A81DA
S1130C50FC01828193819D878C8789819A81FC0123
S1130C60808191819F878E871D828E859F858827AD
S1130C70998B888B8E859F8599279F878E878889F6
S1130C80998988279470892B71F48E819F81FC0146
S1130C90208131818E859F8582239323892B99F02E
S1130CA081E08D8310C08E819F81FC012081318180
S1130CB08E859F85282339238E859F85281739079C
S1130CC011F481E08D838D818823D1F088899989FD
S1130CD088279170892B41F02B813C818E859F85DB
S1130CE0822B932B9C838B838E819F81FC0180813B
S1130CF091819C01326089819A81B9010E94051118
S1130D008C859D859A83898329813A818A859B85EF
S1130D102817390709F09ACF8E819F81FC01208121
S1130D2031818B819C8180959095282339238E81F4
S1130D309F81FC01318320830E94DB0E8E819F8181
S1130D40FC018081918165960FB6F894DEBF0FBED9
S1130D50CDBFDF91CF910895CF93DF9300D000D022
S1130D6000D0CDB7DEB79B838A837D836C834E83AB
S1130D7019828E81882359F42A813B818C819D813B
S1130D8082239323892B81F081E089830DC02A81FA
S1130D903B818C819D81282339238C819D81281757
S1130DA0390711F481E08983898126960FB6F89476
S1130DB0DEBF0FBECDBFDF91CF910895CF93DF93F8
S1130DC000D000D0CDB7DEB79C838B831A82198202
S1130DD00E94CE0E8091B1069091B206892B31F417
S1130DE084ED90E09093B2068093B1062091AF0613
S1130DF03091B0068B819C81820F931F8B3D95406F
S1130E0038F52091AF063091B0068B819C81280F74
S1130E10391F8091AF069091B00682179307C0F4F2
S1130E202091B1063091B2068091AF069091B00640
S1130E30820F931F9A8389832091AF063091B00665
S1130E408B819C81820F931F9093B0068093AF0691
S1130E500E94DB0E89819A810F900F900F900F9062
S1130E60DF91CF910895CF93DF9300D0CDB7DEB754
S1130E709A83898300000F900F90DF91CF9108959A
S1130E80CF93DF9300D0CDB7DEB79A83898389816E
S1130E909A819C012D5F3F4F89819A81FC013283A5
S1130EA0218389819A812FEF3FEFFC0134832383CF
S1130EB089819A819C012D5F3F4F89819A81FC0130
S1130EC03683258389819A819C012D5F3F4F8981D7
S1130ED09A81FC013087278389819A81FC011082E1
S1130EE000000F900F90DF91CF910895CF93DF937F
S1130EF000D0CDB7DEB79A83898389819A81FC01BA
S1130F001186108600000F900F90DF91CF91089505
S1130F10CF93DF9300D000D000D0CDB7DEB79C8351
S1130F208B837E836D838B819C81FC018181928183
S1130F309A8389838D819E8129813A81FC0133833F
S1130F40228389819A81FC01248135818D819E814E
S1130F50FC013583248389819A81FC0184819581F4
S1130F602D813E81FC013383228389819A812D81E5
S1130F703E81FC01358324838D819E812B813C81BC
S1130F80FC01318720878B819C81FC01808121E0D9
S1130F90280F8B819C81FC012083000026960FB6CC
S1130FA0F894DEBF0FBECDBFDF91CF910895CF93EC
S1130FB0DF93CDB7DEB728970FB6F894DEBF0FBE28
S1130FC0CDBF9E838D8378876F838F819885FC0145
S1130FD0808191819C838B838B819C81019641F4D8
S1130FE08D819E81FC01878190859A8389831AC0B3
S1130FF08D819E8103969A83898307C089819A8112
S1131000FC01828193819A83898389819A81FC017D
S113101082819381FC01208131818B819C818217A3
S1131020930760F789819A81FC01228133818F8142
S11310309885FC01338322838F819885FC0182810A
S113104093812F813885FC01358324838F81988592
S113105029813A81FC013583248389819A812F81F6
S11310603885FC01338322838F8198852D813E81CD
S1131070FC01318720878D819E81FC01808121E0E4
S1131080280F8D819E81FC012083000028960FB6D5
S1131090F894DEBF0FBECDBFDF91CF910895CF93FB
S11310A0DF9300D000D0CDB7DEB79C838B838B81D8
S11310B09C81FC01808591859A8389838B819C81A5
S11310C0FC01828193812B813C81F901248135814A
S11310D0FC01358324838B819C81FC01848195816F
S11310E02B813C81F90122813381FC0133832283EA
S11310F089819A81FC01218132818B819C8128170D
S1131100390751F48B819C81FC01248135818981CB
S11311109A81FC01328321838B819C81FC0111869D
S1131120108689819A81FC0180812FEF280F8981A3
S11311309A81FC01208389819A81FC0180810F902E
S11311400F900F900F90DF91CF910895CF93DF937D
S1131150CDB7DEB728970FB6F894DEBF0FBECDBF6C
S11311609C838B837E836D8358874F838B819C8183
S113117021E1FC0120838B819C8101979C838B83DB
S11311808B819C8122E2FC0120838B819C810197CD
S11311909C838B838B819C8123E3FC0120838B8143
S11311A09C8101979C838B838D819E819A83898303
S11311B029818B819C81FC0120838B819C810197F7
S11311C09C838B8389819A81892F99279A83898328
S11311D029818B819C81FC0120838B819C810197D7
S11311E09C838B838B819C81FC0110828B819C81ED
S11311F001979C838B838B819C8120E8FC01208355
S11312008B819C8101979C838B838B819C81FC01C6
S113121010828B819C8101979C838B838B819C8121
S113122022E0FC0120838B819C8101979C838B832A
S11312308B819C8123E0FC0120838B819C8101971D
S11312409C838B838B819C8124E0FC0120838B8194
S11312509C8101979C838B838B819C8125E0FC017D
S113126020838B819C8101979C838B838B819C81C0
S113127026E0FC0120838B819C8101979C838B83D6
S11312808B819C8127E0FC0120838B819C810197C9
S11312909C838B838B819C8128E0FC0120838B8140
S11312A09C8101979C838B838B819C8129E0FC0129
S11312B020838B819C8101979C838B838B819C8170
S11312C020E1FC0120838B819C8101979C838B838B
S11312D08B819C8121E1FC0120838B819C8101977E
S11312E09C838B838B819C8122E1FC0120838B81F5
S11312F09C8101979C838B838B819C8123E1FC01DE
S113130020838B819C8101979C838B838B819C811F
S113131024E1FC0120838B819C8101979C838B8336
S11313208B819C8125E1FC0120838B819C81019729
S11313309C838B838B819C8126E1FC0120838B81A0
S11313409C8101979C838B838B819C8127E1FC0189
S113135020838B819C8101979C838B838B819C81CF
S113136028E1FC0120838B819C8101979C838B83E2
S11313708B819C8129E1FC0120838B819C810197D5
S11313809C838B838B819C8120E2FC0120838B8155
S11313909C8101979C838B838B819C8121E2FC013E
S11313A020838B819C8101979C838B838B819C817F
S11313B022E2FC0120838B819C8101979C838B8397
S11313C08B819C8123E2FC0120838B819C8101978A
S11313D09C838B838F8198859A83898329818B81D0
S11313E09C81FC0120838B819C8101979C838B834E
S11313F089819A81892F99279A83898329818B816D
S11314009C81FC0120838B819C8101979C838B832D
S11314108B819C8126E2FC0120838B819C81019736
S11314209C838B838B819C8127E2FC0120838B81AD
S11314309C8101979C838B838B819C8128E2FC0196
S113144020838B819C8101979C838B838B819C81DE
S113145029E2FC0120838B819C8101979C838B83EF
S11314608B819C8120E3FC0120838B819C810197EB
S11314709C838B838B819C8121E3FC0120838B8162
S11314809C8101979C838B838B819C8128960FB6CA
S1131490F894DEBF0FBECDBFDF91CF910895CF93F7
S11314A0DF93CDB7DEB70E943C0BA091B306B09199
S11314B0B406CD91CDBFDD91DEBFFF91EF91DF91F9
S11314C0CF91BF91AF919F918F917F916F915F91D8
S11314D04F913F912F911F910F91FF90EF90DF90CB
S11314E0CF90BF90AF909F908F907F906F905F90C0
S11314F04F903F902F901F900F900FBE0F90089524
S113150081E0DF91CF9108950F920FB6F8940F9276
S11315101F9211242F923F924F925F926F927F926B
S11315208F929F92AF92BF92CF92DF92EF92FF92EF
S11315300F931F932F933F934F935F936F937F93D7
S11315408F939F93AF93BF93CF93DF93EF93FF93C7
S1131550A091B306B091B4060DB60D920EB60D92DD
S11315600E945F10A091B306B091B406CD91CDBF97
S1131570DD91DEBFFF91EF91DF91CF91BF91AF91EC
S11315809F918F917F916F915F914F913F912F9197
S11315901F910F91FF90EF90DF90CF90BF90AF908D
S11315A09F908F907F906F905F904F903F902F907F
S11315B01F900F900FBE0F90089500000F920FB66A
S11315C0F8940F921F9211242F923F924F925F92A0
S11315D06F927F928F929F92AF92BF92CF92DF923F
S11315E0EF92FF920F931F932F933F934F935F9329
S11315F06F937F938F939F93AF93BF93CF93DF9317
S1131600EF93FF93A091B306B091B4060DB60D927B
S11316100EB60D920E94720F882311F00E945F1083
S1131620A091B306B091B406CD91CDBFDD91DEBFDC
S1131630FF91EF91DF91CF91BF91AF919F918F91E6
S11316407F916F915F914F913F912F911F910F91D6
S1131650FF90EF90DF90CF90BF90AF909F908F90CE
S11316607F906F905F904F903F902F901F900F90BE
S11316700FBE0F9008950000CF93DF9300D000D0E9
S113168000D0CDB7DEB780E89EE3A0E0B0E0898368
S11316909A83AB83BC8389819A81AB81BC81689432
S11316A015F8B695A795979587951694D1F78983DC
S11316B09A83AB83BC8389819A81AB81BC81019776
S11316C0A109B10989839A83AB83BC8389818D8302
S11316D089819A81AB81BC81892F9A2FAB2FBB273B
S11316E089839A83AB83BC8389818E838BE490E066
S11316F02E81FC0120838AE490E02D81FC0120836B
S11317008BE08D838EE490E02D81FC01208389E5BC
S113171090E0FC0180818D838D8180618D8389E5DA
S113172090E02D81FC012083000026960FB6F894EA
S1131730DEBF0FBECDBFDF91CF9108950E94DE0AB8
S1131740189500008F929F92AF92BF92CF92DF9232
S1131750EF92FF920F931F93CF93DF93CDB7DEB732
S113176060970FB6F894DEBF0FBECDBF9F838E8304
S1131770798768875B874A873D872C870E87F88A35
S1131780EF868A859B850E94DE069D838C838C81EF
S11317909D81892BB9F088E290E00E94DE069A834D
S11317A0898389819A81892B41F089819A812C814D
S11317B03D81FC01308F278B07C08C819D810E9465
S11317C0330702C01A82198289819A81892B09F10F
S11317D08A859B85CC01A0E0B0E009811A814F8500
S11317E058892C853D8568857985EE81FF81812C1A
S11317F0912C58016A01EE8489019C01AD01CF014D
S11318000E941F0C89819A810E94F30C81E08B83D2
S113181002C08FEF8B838B8160960FB6F894DEBF86
S11318200FBECDBFDF91CF911F910F91FF90EF902D
S1131830DF90CF90BF90AF909F908F9008958F923C
S11318409F92AF92BF92CF92DF92EF920F931F932A
S1131850CF93DF93CDB7DEB764970FB6F894DEBFAE
S11318600FBECDBF9D838C837F836E83288739878A
S11318704A875B871D870C87EE86D88ACF86BA8A0B
S1131880A98A9C8A8B8A89899A89FC012789308D47
S1131890888599850197820F931F9B838A838E8104
S11318A09F81892B69F1198221C08981882F90E059
S11318B02981222F30E04E815F81240F351FF901E9
S11318C0408129893A89820F931F4996FC014083FC
S11318D08981882F90E02E813F81820F931FFC0124
S11318E08081882339F089818F5F89838981883059
S11318F0E0F201C0000089899A89FC0110A204C0A9
S113190089899A89FC01118E8E85863010F085E0D4
S11319108E8789899A892E85FC01268B89899A89E3
S11319202E85FC0121A389899A89FC0112A2898947
S11319309A8902960E94760789899A890C960E9450
S1131940760789899A8929893A89FC013187208710
S11319508E85882F90E026E030E0281B390B89899A
S11319609A89FC013587248789899A8929893A8942
S1131970FC01338B228B89899A89FC0113A214A25E
S113198015A216A289899A89FC0117A24C855D8546
S11319902C813D818A819B81B9010E94A6089C010A
S11319A089899A89FC01318320838F859889892BC1
S11319B039F08F85988929893A89FC0131832083FC
S11319C0000064960FB6F894DEBF0FBECDBFDF9162
S11319D0CF911F910F91EF90DF90CF90BF90AF9078
S11319E09F908F900895CF93DF9300D0CDB7DEB74B
S11319F09A8389830FB6F8940F9280911D078F5FA5
S1131A0080931D078091B3069091B406892B69F4E5
S1131A1089819A819093B4068093B30680911D07BF
S1131A208130C9F40E94731116C080912107882364
S1131A3091F48091B3069091B406FC0126898981C2
S1131A409A81FC018689821730F089819A8190936A
S1131A50B4068093B306809125078F5F8093250792
S1131A6089819A81FC01968980912007891730F435
S1131A7089819A81FC0186898093200789819A81D2
S1131A80AC014E5F5F4F89819A81FC018689282FC2
S1131A9030E0C901880F991F880F991F880F991F7B
S1131AA0820F931F8B54994FBA010E9488070F909D
S1131AB00FBE80912107882371F08091B306909125
S1131AC0B406FC01268989819A81FC01868928173C
S1131AD010F40E94840A00000F900F90DF91CF91C0
S1131AE00895CF93DF9300D01F92CDB7DEB79B83C9
S1131AF08A8319828A819B81892B51F00E94CE0EA0
S1131B008A819B8160E00E9457120E94DB0E8983C8
S1131B108981882311F40E94840A00000F900F9099
S1131B200F90DF91CF910895CF93DF9300D000D031
S1131B30CDB7DEB79C838B830FB6F8940F928B815D
S1131B409C81892B29F48091B3069091B40602C03C
S1131B508B819C819A83898389819A8102960E94D0
S1131B604F0889819A81FC0184899589892B29F000
S1131B7089819A810C960E944F0889819A810296E4
S1131B80BC0184E197E00E94880789819A81FC0165
S1131B9087A1813021F489819A81FC0117A20F90D9
S1131BA00FBE80912107882339F00FB6F8940F9265
S1131BB00E94FE110F900FBE8091B3069091B4065F
S1131BC029813A8128173907A1F4809121078823B4
S1131BD019F00E94840A0DC09091140780911D078A
S1131BE0981729F41092B4061092B30602C00E940A
S1131BF05F1000000F900F900F900F90DF91CF9126
S1131C000895CF93DF9300D000D01F92CDB7DEB7F5
S1131C109D838C8319828C819D819B838A838A8195
S1131C209B81FC01828593858451974089F48A8144
S1131C309B81FC01848995898150974049F08A8170
S1131C409B81FC0184899589892B11F481E0898326
S1131C5089810F900F900F900F900F90DF91CF918B
S1131C600895CF93DF9300D000D0CDB7DEB79C8327
S1131C708B838B819C819A8389838091B306909115
S1131C80B40629813A812817390709F44AC08981A1
S1131C909A81892B09F445C00FB6F8940F92898173
S1131CA09A810E94010E8823D1F189819A8102963A
S1131CB00E944F0889819A81FC01968980912007AE
S1131CC0891730F489819A81FC01868980932007E1
S1131CD089819A81AC014E5F5F4F89819A81FC01B1
S1131CE08689282F30E0C901880F991F880F991F12
S1131CF0880F991F820F931F8B54994FBA010E942A
S1131D00880789819A81FC0126898091B306909184
S1131D10B406FC018689281710F00E94840A0F90EB
S1131D200FBE00000F900F900F900F90DF91CF9196
S1131D300895EF92FF920F93CF93DF931F92CDB745
S1131D40DEB70F2EF8E2EF2EF7E0FF2EF02D00E0C5
S1131D5020E030E045E550E062EC70E089E691E196
S1131D600E94A20B89838981813081F4F8948FEFDA
S1131D709FEF909327078093260781E080932107A4
S1131D8010921F0710921E070E944F0A00000F9026
S1131D90DF91CF910F91FF90EF900895CF93DF9350
S1131DA0CDB7DEB780912A078F5F80932A070000A2
S1131DB0DF91CF910895CF93DF9300D000D0CDB7BA
S1131DC0DEB71A8219821B820FB6F8940F928091A3
S1131DD02A07815080932A0780912A07882309F0D3
S1131DE077C080911D07882309F472C049C080918F
S1131DF0060790910707FC01868197819A8389835E
S1131E0089819A810C960E944F0889819A81029651
S1131E100E944F0889819A81FC019689809120074C
S1131E20891730F489819A81FC018689809320077F
S1131E3089819A81AC014E5F5F4F89819A81FC014F
S1131E408689282F30E0C901880F991F880F991FB0
S1131E50880F991F820F931F8B54994FBA010E94C8
S1131E60880789819A81FC0126898091B306909123
S1131E70B406FC018689281718F081E080932307B3
S1131E8080910107882309F0B2CF89819A81892B37
S1131E9011F00E94FE11809122078C838C8188238B
S1131EA079F00E94720F882319F081E08093230750
S1131EB08C8181508C838C81882399F7109222071E
S1131EC080912307882321F081E08B830E94840A78
S1131ED00F900FBE8B810F900F900F900F90DF919A
S1131EE0CF910895CF93DF93CDB7DEB729970FB67F
S1131EF0F894DEBF0FBECDBF198280912A078823D4
S1131F0009F0C8C080911E0790911F0701969B831A
S1131F108A838A819B8190931F0780931E078A81FD
S1131F209B81892BD9F48091FD069091FE069D83B7
S1131F308C838091FF06909100079093FE06809316
S1131F40FD068C819D81909300078093FF0680910C
S1131F5024078F5F809324070E94FE118091260737
S1131F60909127072A813B812817390708F478C004
S1131F708091FD069091FE06FC018081882339F44E
S1131F808FEF9FEF909327078093260769C0809176
S1131F90FD069091FE06FC0185819681FC018681F7
S1131FA097819F838E838E819F81FC01828193819F
S1131FB0998788872A813B818885998528173907DD
S1131FC038F488859985909327078093260748C01D
S1131FD08E819F8102960E944F088E819F81FC0111
S1131FE084899589892B29F08E819F810C960E9482
S1131FF04F088E819F81FC01968980912007891763
S113200030F48E819F81FC018689809320078E8124
S11320109F81AC014E5F5F4F8E819F81FC01868959
S1132020282F30E0C901880F991F880F991F880F46
S1132030991F820F931F8B54994FBA010E948807EE
S11320408E819F81FC0126898091B3069091B4060C
S1132050FC018689281708F48BCF81E0898388CF17
S11320608091B3069091B406FC018689282F30E054
S1132070C901880F991F880F991F880F991F820F14
S1132080931F8B54994FFC018081823040F081E092
S1132090898305C0809122078F5F809322078091F6
S11320A02307882311F081E08983898129960FB65B
S11320B0F894DEBF0FBECDBFDF91CF910895CF93CB
S11320C0DF9300D01F92CDB7DEB780912A07882313
S11320D021F081E0809323075FC010922307809151
S11320E02007898303C08981815089838981282FAE
S11320F030E0C901880F991F880F991F880F991F15
S1132100820F931F8B54994FFC018081882359F3CC
S11321108981282F30E0C901880F991F880F991FE2
S1132120880F991F820F931F8B54994F9B838A8327
S11321308A819B81FC0181819281FC01228133810E
S11321408A819B81FC01328321838A819B81FC01EA
S1132150218132818A819B8103962817390769F48A
S11321608A819B81FC0181819281FC0122813381DE
S11321708A819B81FC01328321838A819B81FC01BA
S113218081819281FC01868197819093B40680932A
S1132190B30689818093200700000F900F900F9061
S11321A0DF91CF910895CF93DF9300D000D000D07A
S11321B0CDB7DEB79A8389837C836B835E834D833B
S11321C08091B3069091B4062B813C813068FC0168
S11321D0358724878091B3069091B4069C01245FCF
S11321E03F4F89819A81B9010E9488078D819E8120
S11321F061E00E945712000026960FB6F894DEBFE5
S11322000FBECDBFDF91CF910895CF93DF9300D060
S113221000D000D0CDB7DEB79C838B837E836D83E3
S11322208D819E819C0130688B819C81FC0131836E
S113223020838B819C81FC01868197819A83898389
S11322408B819C810E944F0889819A8102960E9409
S11322504F0889819A81FC0196898091200789170A
S113226030F489819A81FC018689809320078981D1
S11322709A81AC014E5F5F4F89819A81FC01868906
S1132280282F30E0C901880F991F880F991F880FE4
S1132290991F820F931F8B54994FBA010E9488078C
S11322A089819A81FC0126898091B3069091B406B4
S11322B0FC018689821718F481E0809323070000CB
S11322C026960FB6F894DEBF0FBECDBFDF91CF9137
S11322D00895CF93DF9300D0CDB7DEB79A83898377
S11322E00E94B511FDCFCF93DF931F92CDB7DEB718
S11322F0198213C08981282F30E0C901880F991FE2
S1132300880F991F880F991F820F931F8B54994F21
S11323100E94400789818F5F89838981863050F3C9
S11323208BEE96E00E94400784EF96E00E944007FF
S113233081E097E00E9440078AE097E00E9440070E
S113234084E197E00E9440078BEE96E09093FE06AE
S11323508093FD0684EF96E0909300078093FF0638
S113236000000F90DF91CF910895CF93DF9300D0B9
S1132370CDB7DEB721C00FB6F8940F9280910F0746
S113238090911007FC01868197819A8389838981C2
S11323909A8102960E944F0880911D078150809374
S11323A01D07809113078150809313070F900FBE70
S11323B089819A810E94E611809113078823D9F6B6
S11323C000000F900F90DF91CF910895CF93DF938A
S11323D000D0CDB7DEB79A83898389819A81FC01C5
S11323E08789908D0E94330789819A810E943307DF
S11323F000000F900F90DF91CF910895CF93DF935A
S113240000D0CDB7DEB78091FD069091FE06FC01A9
S11324108081882339F48FEF9FEF9093270780936F
S1132420260715C08091FD069091FE06FC0185816A
S11324309681FC01868197819A83898389819A8117
S1132440FC018281938190932707809326070000E3
S11324500F900F90DF91CF910895CF93DF9300D029
S1132460CDB7DEB78091B3069091B406FC018485A4
S113247095859A8389838091B3069091B4062091BF
S1132480B3063091B406F9012689222F30E046E0E4
S113249050E0BA01621B730B9B01FC013587248752
S11324A089819A810F900F90DF91CF910895CF93F6
S11324B0DF93CDB7DEB727970FB6F894DEBF0FBE14
S11324C0CDBF9E838D836F8380911E0790911F07DC
S11324D09A8389838091B3069091B40602960E94F0
S11324E04F088D819E81019671F48F81882359F064
S11324F08091B3069091B4060296BC0184E197E002
S11325000E94880744C029813A818D819E81820F6F
S1132510931F9C838B838091B3069091B4062B8187
S11325203C81FC01338322832B813C8189819A8104
S11325302817390778F48091B3069091B4069C016A
S11325402E5F3F4F8091FF0690910007B9010E94D2
S1132550D7071DC08091B3069091B4069C012E5FED
S11325603F4F8091FD069091FE06B9010E94D70766
S113257080912607909127072B813C8128173907E2
S113258030F48B819C819093270780932607000069
S113259027960FB6F894DEBF0FBECDBFDF91CF9163
S11325A00895CF93DF9300D0CDB7DEB789836A83D4
S11325B08981882F90E08130910591F082309105D6
S11325C01CF4892B39F01EC08230910579F00397F1
S11325D099F018C08AE390E02A81FC01208312C09C
S11325E087E390E02A81FC0120830CC084E390E01F
S11325F02A81FC01208306C081E390E02A81FC014A
S11326002083000000000F900F90DF91CF91089578
S1132610CF93DF9300D01F92CDB7DEB789836A834F
S11326204B838981882F90E08130910581F182303C
S113263091051CF4892B49F090C08230910509F46E
S113264048C0039709F467C088C08B81882F90E045
S1132650009721F08F3F910571F07FC08AE390E0ED
S11326602AE330E0F9012081322F2A8120952323A7
S1132670FC0120830BC08AE390E02AE330E0F901F7
S113268030812A81232BFC012083000066C08B81CA
S1132690882F90E0009721F08F3F910571F05DC085
S11326A087E390E027E330E0F9012081322F2A818B
S11326B020952323FC0120830BC087E390E027E3CC
S11326C030E0F90130812A81232BFC0120830000B2
S11326D044C08B81882F90E0009721F08F3F9105B3
S11326E071F03BC084E390E024E330E0F901208101
S11326F0322F2A8120952323FC0120830BC084E3FD
S113270090E024E330E0F90130812A81232BFC019D
S11327102083000022C08B81882F90E0009721F055
S11327208F3F910571F018C081E390E021E330E020
S1132730F9012081322F2A8120952323FC01208353
S11327400BC081E390E021E330E0F90130812A817C
S1132750232BFC0120830000000000000F900F9049
S11327600F90DF91CF910895CF93DF9300D01F9204
S1132770CDB7DEB789836A834B838B81882F90E042
S1132780009709F442C0019709F086C08981882F17
S113279090E081309105B9F0823091051CF4892BC9
S11327A039F07AC082309105C9F0039711F174C0F1
S11327B08BE390E02BE330E0F90130812A81232B75
S11327C0FC01208321C088E390E028E330E0F90194
S11327D030812A81232BFC01208316C085E390E0FD
S11327E025E330E0F90130812A81232BFC01208389
S11327F00BC082E390E022E330E0F90130812A81CA
S1132800232BFC012083000047C08981882F90E09E
S113281081309105C9F0823091051CF4892B39F07F
S11328203AC082309105E9F0039741F134C08BE35B
S113283090E02BE330E0F9012081322F2A812095AA
S11328402323FC01208327C088E390E028E330E0C1
S1132850F9012081322F2A8120952323FC01208332
S11328601AC085E390E025E330E0F9012081322F9E
S11328702A8120952323FC0120830DC082E390E06C
S113288022E330E0F9012081322F2A81209523238D
S1132890FC0120830000000000000F900F900F90B7
S11328A0DF91CF910895CF93DF9300D01F92CDB7DE
S11328B0DEB78A836B8319828A81882F90E0813006
S11328C09105E9F0823091051CF4892B39F04AC056
S11328D08230910529F10397A1F144C089E390E086
S11328E0FC018081882F90E02B81222F30E002C0F0
S11328F0959587952A95E2F78170898333C086E39D
S113290090E0FC018081882F90E02B81222F30E021
S113291002C0959587952A95E2F78170898322C034
S113292083E390E0FC018081882F90E02B81222FAB
S113293030E002C0959587952A95E2F781708983E6
S113294011C080E390E0FC018081882F90E02B810E
S1132950222F30E002C0959587952A95E2F7817081
S11329608983000089810F900F900F90DF91CF91A0
S11329700895CF93DF9300D0CDB7DEB789836A8300
S11329808981882F90E08130910561F18230910531
S11329901CF4892B49F080C08230910509F440C0B1
S11329A0039709F45BC078C08A81882F90E0009770
S11329B021F08F3F910559F06FC08AE390E02AE33C
S11329C030E0F9012081207FFC0120830AC08AE3E2
S11329D090E02AE330E0F90120812F60FC0120839C
S11329E000005AC08A81882F90E0009721F08F3F21
S11329F0910559F051C087E390E027E330E0F901F5
S1132A002081207FFC0120830AC087E390E027E334
S1132A1030E0F90120812F60FC01208300003CC0DC
S1132A208A81882F90E0009721F08F3F910559F01B
S1132A3033C084E390E024E330E0F9012081207F77
S1132A40FC0120830AC084E390E024E330E0F90130
S1132A5020812F60FC01208300001EC08A81882F02
S1132A6090E0009721F08F3F910559F014C081E365
S1132A7090E021E330E0F9012081207FFC012083F4
S1132A800AC081E390E021E330E0F90120812F6066
S1132A90FC0120830000000000000F900F90DF91E4
S1132AA0CF910895CF93DF9300D0CDB7DEB789835C
S1132AB06A838981882F90E081309105D1F082303A
S1132AC091051CF4892B39F03EC082309105F9F050
S1132AD0039759F138C08BE390E02BE330E0F90120
S1132AE02081322F307F2A812F70232BFC012083F9
S1132AF02AC088E390E028E330E0F9012081322FF6
S1132B00307F2A812F70232BFC0120831CC085E396
S1132B1090E025E330E0F9012081322F307F2A81D3
S1132B202F70232BFC0120830EC082E390E022E36C
S1132B3030E0F9012081322F307F2A812F70232B3E
S1132B40FC012083000000000F900F90DF91CF91D3
S1092B500895F894FFCF84
S1132B56436F72726563742050617373776F726426
S1132B6621212100496E636F72726563742050617E
S1132B767373776F726421212100010203030249F2
S1132B866E697469616C697A6174696F6E205461E7
S1132B96736B00446973706C61795F5461736B0085
S1132BA65042305F5461736B005042315F5461731D
S10B2BB66B0049444C4500008A
S9030000FC
