:100000000C942A000C9447000C9447000C94470071
:100010000C9447000C9447000C9447000C94790B07
:100020000C9447000C9447000C9447000C94470034
:100030000C9447000C9447000C9447000C94470024
:100040000C9447000C9447000C9447000C94470014
:100050000C94470011241FBECFE5D8E0DEBFCDBF12
:1000600010E0A0E6B0E0ECE0FBE202C005900D92EB
:10007000AE3BB107D9F727E0AEEBB0E001C01D926F
:10008000AF31B207E1F70E94D5010C9484150C94AE
:100090000000CF93DF9300D0CDB7DEB79A8389837A
:1000A0000E94A8049093C5008093C4008091C00072
:1000B0009091C1000E946F0D8091C2009091C30089
:1000C0000E946F0D80E10E947D0380E20E947D030B
:1000D00080E40E947D0380E190E00E94330480E090
:1000E0000E9445040E9491028091C0009091C1003D
:1000F0000E940C0E8091C2009091C3000E940C0ED1
:100100008091BE009091BF000E946F0DFFCF0F93B2
:100110001F93CF93DF93CDB7DEB765970FB6F894F3
:10012000DEBF0FBECDBF9D8B8C8B1D82198285E0FB
:10013000EAE8F0E0DE011A9601900D928A95E1F767
:1001400025E0CE010F96FC01322F11923A95E9F786
:100150001A821B821C821F821E8284E690E099878D
:1001600088878091C4009091C500288539858901D0
:1001700020E041E067E070E00E94C8049F838E8326
:100180008E819F8187709927079709F05CC01A823A
:100190001EC08A81882F90E09E01215F3F4F820F11
:1001A000931FFC0140818A81882F90E09E01265F89
:1001B0003F4F820F931FFC018081481719F481E0A3
:1001C0008C8302C01C8206C08A818F5F8A838A81E9
:1001D0008530F8F28C818823A9F060E080E00E94ED
:1001E000660380E690E00E942D0380E10E94C70331
:1001F00080ED97E00E944C0D80E10E94FD030E947B
:100200005B0314C060E080E00E94660384E790E036
:100210000E942D0380E20E94C70388EB9BE00E94AE
:100220004C0D80E20E94FD030E945B038091C4009C
:100230009091C50064E070E00E9491059F838E83D9
:100240001F821E824DC08E819F81837099270397E4
:1002500049F5898191E0980F9983682F8D810E94DB
:1002600066038B81805D0E94B6028A81882F90E0B0
:100270009E01215F3F4F820F931F2B81FC01208342
:100280008A818F5F8A831B828B810E949504809173
:10029000C4009091C50063E070E00E9491059F83C7
:1002A0008E831EC08E819F8181709927892BC1F01A
:1002B0008B818F5F8B838B818A3020F48B810E94AE
:1002C000950404C01B828B810E9495048091C40018
:1002D0009091C50061E070E00E9491059F838E833C
:1002E0001F821E8284E690E00E944C0D3ACFCF938D
:1002F000DF9300D000D01F92CDB7DEB79D838C83F3
:100300001B821A82198264E082E00E942E148823E4
:1003100009F445C080E10E94C70389818160898317
:1003200088EE93E00E944C0D64E082E00E942E145F
:100330008823E1F080E10E94FD0380E20E94C70370
:1003400089818260898388EE93E00E944C0D64E08D
:1003500082E00E942E14882349F080E20E94FD036F
:1003600080E40E94C7038981846089838981282F62
:1003700030E08091C4009091C500B9010E94CA0587
:100380009B838A8388EE93E00E944C0D80E10E945B
:10039000FD0380E20E94FD0380E40E94FD031982B8
:1003A00084E690E00E944C0DAECFEF92FF920F9347
:1003B000CF93DF931F92CDB7DEB719820F2EFEEBDE
:1003C000EF2EF0E0FF2EF02D04E020E030E044E6D8
:1003D00050E06FE870E089E490E00E947D0B898333
:1003E0000F2EF0ECEF2EF0E0FF2EF02D01E020E0DC
:1003F00030E040E951E063EA70E087E890E00E9475
:100400007D0B89830F2EF2ECEF2EF0E0FF2EF02D06
:1004100003E020E030E040E951E060EB70E087E786
:1004200091E00E947D0B89830E94740E80E090E031
:100430000F90DF91CF910F91FF90EF900895CF93A0
:10044000DF931F92CDB7DEB7898340E062E080E0A2
:100450000E948F1340E064E080E00E948F13898146
:10046000881F8827881F482F60E880E00E948F132C
:10047000898182958695869583708170482F60E486
:1004800080E00E948F1389818295869587708170A4
:10049000482F60E280E00E948F13898182958F70DF
:1004A0008170482F60E180E00E948F1341E068E096
:1004B00080E00E948F1340E068E080E00E948F138C
:1004C00089818695869586958170482F60E880E0C1
:1004D0000E948F138981869586958170482F60E4EC
:1004E00080E00E948F13898186958170482F60E299
:1004F00080E00E948F1389818170482F60E180E045
:100500000E948F1341E068E080E00E948F1340E07A
:1005100068E080E00E948F1300000F90DF91CF9180
:100520000895CF93DF931F92CDB7DEB719828091E4
:10053000C6008823A1F46FEF80E00E94AC1282E035
:100540000E941F0288E20E941F028EE00E941F028A
:1005500086E00E941F0281E08093C60002C083E013
:10056000898389810F90DF91CF910895CF93DF9395
:100570001F92CDB7DEB789838091C600813009F024
:1005800067C041E062E080E00E948F1340E064E0D9
:1005900080E00E948F138981881F8827881F482F39
:1005A00060E880E00E948F13898182958695869508
:1005B00083708170482F60E480E00E948F138981EE
:1005C0008295869587708170482F60E280E00E9456
:1005D0008F13898182958F708170482F60E180E050
:1005E0000E948F1341E068E080E00E948F1340E09A
:1005F00068E080E00E948F138981869586958695B4
:100600008170482F60E880E00E948F138981869571
:1006100086958170482F60E480E00E948F13898165
:1006200086958170482F60E280E00E948F13898157
:100630008170482F60E180E00E948F1341E068E004
:1006400080E00E948F1340E068E080E00E948F13FA
:1006500000000F90DF91CF910895CF93DF9300D0EA
:100660001F92CDB7DEB79B838A8319828091C60023
:100670008130D1F40EC08981882F90E02A813B819E
:10068000820F931FFC0180810E94B60289818F5FD7
:1006900089838981882F90E02A813B81820F931F73
:1006A000FC018081882339F700000F900F900F9094
:1006B000DF91CF910895CF93DF93CDB7DEB781E07F
:1006C0000E941F020000DF91CF910895CF93DF9326
:1006D00000D0CDB7DEB789836A839981892F880FCF
:1006E000880F980F8A81890F80680E941F0200007E
:1006F0000F900F90DF91CF910895CF93DF931F92CA
:10070000CDB7DEB789838981882F90E0803291054B
:10071000C1F0813291051CF4409741F033C0803420
:100720009105D1F08038910511F12CC04FEF60E1B7
:1007300081E00E94E31240E060E181E00E948F13BB
:1007400021C04FEF60E281E00E94E31240E060E2EE
:1007500081E00E948F1316C04FEF60E481E00E9499
:10076000E31240E060E481E00E948F130BC04FEF82
:1007700060E881E00E94E31240E060E881E00E94CE
:100780008F13000000000F90DF91CF910895CF9359
:10079000DF931F92CDB7DEB789838981882F90E0E0
:1007A0008032910599F0813291051CF4409741F017
:1007B0001FC08034910581F08038910599F018C0F0
:1007C00041E060E181E00E948F1312C041E060E2ED
:1007D00081E00E948F130CC041E060E481E00E9440
:1007E0008F1306C041E060E881E00E948F13000093
:1007F00000000F90DF91CF910895CF93DF931F9268
:10080000CDB7DEB789838981882F90E0803291054A
:1008100099F0813291051CF4409741F01FC080345B
:10082000910581F08038910599F018C040E060E1B1
:1008300081E00E948F1312C040E060E281E00E94DC
:100840008F130CC040E060E481E00E948F1306C06B
:1008500040E060E881E00E948F13000000000F90EC
:10086000DF91CF910895CF93DF93CDB7DEB740E00E
:1008700064E082E00E94E31240E062E081E00E94D6
:10088000E3120000DF91CF910895CF93DF931F9281
:10089000CDB7DEB789836FEF81E00E949414898120
:1008A000882F90E081309105B9F0823091051CF4D9
:1008B000892B39F032C082309105C9F0039711F1CC
:1008C0002CC04FEF64E083E00E94E31241E064E05B
:1008D00083E00E948F1321C04FEF68E083E00E9405
:1008E000E31241E068E083E00E948F1316C04FEFEF
:1008F00060E483E00E94E31241E060E483E00E9450
:100900008F130BC04FEF60E883E00E94E31241E0D9
:1009100060E883E00E948F13000080E00E9495044D
:1009200000000F90DF91CF910895CF93DF931F9236
:10093000CDB7DEB789836FEF81E00E94941469819F
:1009400081E00E942D1500000F90DF91CF91089556
:10095000CF93DF9300D0CDB7DEB78BE090E00E945D
:10096000B9069A83898389819A81892B51F089817B
:100970009A81FC011182108289819A8102960E94DB
:100980001B0789819A810F900F90DF91CF91089575
:100990000F931F93CF93DF93CDB7DEB763970FB657
:1009A000F894DEBF0FBECDBF9D878C877F876E8793
:1009B000488B298B1B8B0A8B8C859D859E838D8311
:1009C0001C821B821F820E94A90E8D819E81FC01C8
:1009D00080819181998788872E853F858885998533
:1009E0004989B9010E9487068A878A858823D1F0C0
:1009F000888599859A8389831B8A1A8A888988239E
:100A0000E1F18D819E81FC01208131818E859F8560
:100A100080959095282339238D819E81FC01318317
:100A200020832BC08A899B89892B39F488859985F5
:100A30009A83898381E08F8320C08889882329F065
:100A40008B819C8191609C838B838989882329F089
:100A50008B819C8194609C838B832E853F858B81C9
:100A60009C81282B392B8D819E8102964A895B8936
:100A7000B9010E94AE101A8219820E94B60E8B87AD
:100A80008A899B89892B09F43FC08B85882311F4BF
:100A90000E945F0A0E9408129A83898389819A8141
:100AA00088279270892B59F50FB6F8940F928D8193
:100AB0009E81FC01808191819A8389832E853F8567
:100AC00089819A814989B9010E948706882399F012
:100AD0008889882381F08D819E81FC01208131816C
:100AE0008E859F8580959095282339238D819E81C1
:100AF000FC013183208381E08F830F900FBE8981B9
:100B00009A8199279A83898389819A8163960FB6FE
:100B1000F894DEBF0FBECDBFDF91CF911F910F9133
:100B20000895CF93DF93CDB7DEB728970FB6F8942B
:100B3000DEBF0FBECDBF9E838D8378876F838D818F
:100B40009E819A8389830FB6F8940F9289819A8146
:100B5000FC01808191819C838B8389819A81FC0136
:100B6000208131818F819885809590952823392324
:100B700089819A81FC01318320830F900FBE8B8184
:100B80009C8128960FB6F894DEBF0FBECDBFDF91D3
:100B9000CF910895CF93DF93CDB7DEB765970FB6AA
:100BA000F894DEBF0FBECDBF9B8B8A8B7D8B6C8B89
:100BB0001C821B828A899B899F838E831D828E81E2
:100BC0009F810296998788878885998503969B8758
:100BD0008A870E94A90E88859985FC018581968166
:100BE0009A8389838E819F81FC01208131818C8948
:100BF0009D89282B392B8E819F81FC013183208395
:100C00005EC089819A81FC01828193819D878C8756
:100C100089819A81FC01808191819F878E871D82C5
:100C20008E859F858827998B888B8E859F859927B0
:100C30009F878E878889998988279470892B71F47A
:100C40008E819F81FC01208131818E859F85822349
:100C50009323892B99F081E08D8310C08E819F8131
:100C6000FC01208131818E859F85282339238E8543
:100C70009F852817390711F481E08D838D818823A2
:100C8000D1F08889998988279170892B41F02B812F
:100C90003C818E859F85822B932B9C838B838E81B9
:100CA0009F81FC01808191819C01326089819A81C0
:100CB000B9010E94E0108C859D859A8389832981E2
:100CC0003A818A859B852817390709F09ACF8E814A
:100CD0009F81FC01208131818B819C818095909541
:100CE000282339238E819F81FC01318320830E9438
:100CF000B60E8E819F81FC018081918165960FB631
:100D0000F894DEBF0FBECDBFDF91CF910895CF9392
:100D1000DF9300D000D000D0CDB7DEB79B838A83AD
:100D20007D836C834E8319828E81882359F42A81B6
:100D30003B818C819D8182239323892B81F081E0EB
:100D400089830DC02A813B818C819D812823392391
:100D50008C819D812817390711F481E0898389816D
:100D600026960FB6F894DEBF0FBECDBFDF91CF91B0
:100D70000895CF93DF9300D000D0CDB7DEB79C832A
:100D80008B831A8219820E94A90E8091A5069091E8
:100D9000A606892B31F488EC90E09093A606809308
:100DA000A5062091A3063091A4068B819C81820F19
:100DB000931F8B3D954038F52091A3063091A406F2
:100DC0008B819C81280F391F8091A3069091A406E6
:100DD00082179307C0F42091A5063091A606809152
:100DE000A3069091A406820F931F9A838983209172
:100DF000A3063091A4068B819C81820F931F909350
:100E0000A4068093A3060E94B60E89819A810F9052
:100E10000F900F900F90DF91CF910895CF93DF93B4
:100E200000D0CDB7DEB79A83898300000F900F9072
:100E3000DF91CF910895CF93DF9300D0CDB7DEB788
:100E40009A83898389819A819C012D5F3F4F898193
:100E50009A81FC013283218389819A812FEF3FEFB0
:100E6000FC013483238389819A819C012D5F3F4F4C
:100E700089819A81FC013683258389819A819C012D
:100E80002D5F3F4F89819A81FC01308727838981BB
:100E90009A81FC01108200000F900F90DF91CF919A
:100EA0000895CF93DF9300D0CDB7DEB79A838983BF
:100EB00089819A81FC011186108600000F900F90A5
:100EC000DF91CF910895CF93DF9300D000D000D071
:100ED000CDB7DEB79C838B837E836D838B819C81B2
:100EE000FC01818192819A8389838D819E812981F0
:100EF0003A81FC013383228389819A81FC01248118
:100F000035818D819E81FC013583248389819A817D
:100F1000FC01848195812D813E81FC0133832283F4
:100F200089819A812D813E81FC01358324838D81C5
:100F30009E812B813C81FC01318720878B819C81A4
:100F4000FC01808121E0280F8B819C81FC012083A2
:100F5000000026960FB6F894DEBF0FBECDBFDF911E
:100F6000CF910895CF93DF93CDB7DEB728970FB613
:100F7000F894DEBF0FBECDBF9E838D8378876F83CD
:100F80008F819885FC01808191819C838B838B81EB
:100F90009C81019641F48D819E81FC018781908521
:100FA0009A8389831AC08D819E8103969A8389834F
:100FB00007C089819A81FC01828193819A83898308
:100FC00089819A81FC0182819381FC012081318198
:100FD0008B819C818217930760F789819A81FC013C
:100FE000228133818F819885FC01338322838F8115
:100FF0009885FC01828193812F813885FC0135839E
:1010000024838F81988529813A81FC01358324834B
:1010100089819A812F813885FC01338322838F81D6
:1010200098852D813E81FC01318720878D819E81AD
:10103000FC01808121E0280F8D819E81FC012083AD
:10104000000028960FB6F894DEBF0FBECDBFDF912B
:10105000CF910895CF93DF9300D000D0CDB7DEB706
:101060009C838B838B819C81FC01808591859A83F5
:1010700089838B819C81FC01828193812B813C81BE
:10108000F90124813581FC01358324838B819C8186
:10109000FC01848195812B813C81F901228133817E
:1010A000FC013383228389819A81FC012181328171
:1010B0008B819C812817390751F48B819C81FC011D
:1010C0002481358189819A81FC01328321838B813E
:1010D0009C81FC011186108689819A81FC018081A6
:1010E0002FEF280F89819A81FC01208389819A81C1
:1010F000FC0180810F900F900F900F90DF91CF91A6
:101100000895CF93DF93CDB7DEB728970FB6F89445
:10111000DEBF0FBECDBF9C838B837E836D835887DC
:101120004F838B819C8121E1FC0120838B819C81F9
:1011300001979C838B838B819C8122E2FC0120831D
:101140008B819C8101979C838B838B819C8123E382
:10115000FC0120838B819C8101979C838B838D81F3
:101160009E819A83898329818B819C81FC012083C4
:101170008B819C8101979C838B8389819A81892FA4
:1011800099279A83898329818B819C81FC01208303
:101190008B819C8101979C838B838B819C81FC013B
:1011A00010828B819C8101979C838B838B819C8196
:1011B00020E8FC0120838B819C8101979C838B8399
:1011C0008B819C81FC0110828B819C8101979C8387
:1011D0008B838B819C8122E0FC0120838B819C810D
:1011E00001979C838B838B819C8123E0FC0120836E
:1011F0008B819C8101979C838B838B819C8124E0D4
:10120000FC0120838B819C8101979C838B838B8144
:101210009C8125E0FC0120838B819C8101979C832C
:101220008B838B819C8126E0FC0120838B819C81B8
:1012300001979C838B838B819C8127E0FC01208319
:101240008B819C8101979C838B838B819C8128E07F
:10125000FC0120838B819C8101979C838B838B81F4
:101260009C8129E0FC0120838B819C8101979C83D8
:101270008B838B819C8120E1FC0120838B819C816D
:1012800001979C838B838B819C8121E1FC012083CE
:101290008B819C8101979C838B838B819C8122E134
:1012A000FC0120838B819C8101979C838B838B81A4
:1012B0009C8123E1FC0120838B819C8101979C838D
:1012C0008B838B819C8124E1FC0120838B819C8119
:1012D00001979C838B838B819C8125E1FC0120837A
:1012E0008B819C8101979C838B838B819C8126E1E0
:1012F000FC0120838B819C8101979C838B838B8154
:101300009C8127E1FC0120838B819C8101979C8338
:101310008B838B819C8128E1FC0120838B819C81C4
:1013200001979C838B838B819C8129E1FC01208325
:101330008B819C8101979C838B838B819C8120E294
:10134000FC0120838B819C8101979C838B838B8103
:101350009C8121E2FC0120838B819C8101979C83ED
:101360008B838B819C8122E2FC0120838B819C8179
:1013700001979C838B838B819C8123E2FC012083DA
:101380008B819C8101979C838B838F8198859A8325
:10139000898329818B819C81FC0120838B819C81A5
:1013A00001979C838B8389819A81892F99279A83BE
:1013B000898329818B819C81FC0120838B819C8185
:1013C00001979C838B838B819C8126E2FC01208387
:1013D0008B819C8101979C838B838B819C8127E2ED
:1013E000FC0120838B819C8101979C838B838B8163
:1013F0009C8128E2FC0120838B819C8101979C8346
:101400008B838B819C8129E2FC0120838B819C81D1
:1014100001979C838B838B819C8120E3FC0120833B
:101420008B819C8101979C838B838B819C8121E3A1
:10143000FC0120838B819C8101979C838B838B8112
:101440009C8128960FB6F894DEBF0FBECDBFDF910A
:10145000CF910895CF93DF93CDB7DEB70E94170BDE
:10146000A091A706B091A806CD91CDBFDD91DEBFBA
:10147000FF91EF91DF91CF91BF91AF919F918F91AC
:101480007F916F915F914F913F912F911F910F919C
:10149000FF90EF90DF90CF90BF90AF909F908F9094
:1014A0007F906F905F904F903F902F901F900F9084
:1014B0000FBE0F90089581E0DF91CF9108950F92B4
:1014C0000FB6F8940F921F9211242F923F924F92D1
:1014D0005F926F927F928F929F92AF92BF92CF92C4
:1014E000DF92EF92FF920F931F932F933F934F93AF
:1014F0005F936F937F938F939F93AF93BF93CF939C
:10150000DF93EF93FF93A091A706B091A8060DB6C5
:101510000D920EB60D920E943A10A091A706B091BE
:10152000A806CD91CDBFDD91DEBFFF91EF91DF9198
:10153000CF91BF91AF919F918F917F916F915F916B
:101540004F913F912F911F910F91FF90EF90DF905E
:10155000CF90BF90AF909F908F907F906F905F9053
:101560004F903F902F901F900F900FBE0F900895B7
:1015700000000F920FB6F8940F921F9211242F9231
:101580003F924F925F926F927F928F929F92AF9213
:10159000BF92CF92DF92EF92FF920F931F932F9300
:1015A0003F934F935F936F937F938F939F93AF93EB
:1015B000BF93CF93DF93EF93FF93A091A706B091D2
:1015C000A8060DB60D920EB60D920E944D0F8823FF
:1015D00011F00E943A10A091A706B091A806CD91F3
:1015E000CDBFDD91DEBFFF91EF91DF91CF91BF9134
:1015F000AF919F918F917F916F915F914F913F91AB
:101600002F911F910F91FF90EF90DF90CF90BF909F
:10161000AF909F908F907F906F905F904F903F9092
:101620002F901F900F900FBE0F9008950000CF9342
:10163000DF9300D000D000D0CDB7DEB780E89EE3C6
:10164000A0E0B0E089839A83AB83BC8389819A81CF
:10165000AB81BC81689415F8B695A7959795879549
:101660001694D1F789839A83AB83BC8389819A814D
:10167000AB81BC810197A109B10989839A83AB83AE
:10168000BC8389818D8389819A81AB81BC81892FBB
:101690009A2FAB2FBB2789839A83AB83BC83898125
:1016A0008E838BE490E02E81FC0120838AE490E01D
:1016B0002D81FC0120838BE08D838EE490E02D81D1
:1016C000FC01208389E590E0FC0180818D838D8180
:1016D00080618D8389E590E02D81FC0120830000ED
:1016E00026960FB6F894DEBF0FBECDBFDF91CF9127
:1016F00008950E94B90A189500008F929F92AF92A8
:10170000BF92CF92DF92EF92FF920F931F93CF93EE
:10171000DF93CDB7DEB760970FB6F894DEBF0FBE8C
:10172000CDBF9F838E83798768875B874A873D8794
:101730002C870E87F88AEF868A859B850E94B906DA
:101740009D838C838C819D81892BB9F088E290E008
:101750000E94B9069A83898389819A81892B41F0F5
:1017600089819A812C813D81FC01308F278B07C0B4
:101770008C819D810E940E0702C01A821982898184
:101780009A81892B09F18A859B85CC01A0E0B0E084
:1017900009811A814F8558892C853D856885798511
:1017A000EE81FF81812C912C58016A01EE84890120
:1017B0009C01AD01CF010E94FA0B89819A810E94A0
:1017C000CE0C81E08B8302C08FEF8B838B81609680
:1017D0000FB6F894DEBF0FBECDBFDF91CF911F9142
:1017E0000F91FF90EF90DF90CF90BF90AF909F90C0
:1017F0008F9008958F929F92AF92BF92CF92DF9277
:10180000EF920F931F93CF93DF93CDB7DEB764971B
:101810000FB6F894DEBF0FBECDBF9D838C837F8350
:101820006E83288739874A875B871D870C87EE86FA
:10183000D88ACF86BA8AA98A9C8A8B8A89899A890A
:10184000FC012789308D888599850197820F931F28
:101850009B838A838E819F81892B69F1198221C0A4
:101860008981882F90E02981222F30E04E815F818D
:10187000240F351FF901408129893A89820F931F6E
:101880004996FC0140838981882F90E02E813F8119
:10189000820F931FFC018081882339F089818F5F3B
:1018A000898389818830E0F201C0000089899A89A2
:1018B000FC0110A204C089899A89FC01118E8E85D1
:1018C000863010F085E08E8789899A892E85FC0103
:1018D000268B89899A892E85FC0121A389899A8979
:1018E000FC0112A289899A8902960E94510789896E
:1018F0009A890C960E94510789899A8929893A897F
:10190000FC01318720878E85882F90E026E030E02B
:10191000281B390B89899A89FC0135872487898995
:101920009A8929893A89FC01338B228B89899A8982
:10193000FC0113A214A215A216A289899A89FC019E
:1019400017A24C855D852C813D818A819B81B901DF
:101950000E9481089C0189899A89FC013183208336
:101960008F859889892B39F08F85988929893A89BB
:10197000FC0131832083000064960FB6F894DEBF2B
:101980000FBECDBFDF91CF911F910F91EF90DF90F0
:10199000CF90BF90AF909F908F900895CF93DF939B
:1019A00000D0CDB7DEB79A8389830FB6F8940F9233
:1019B000809111078F5F809311078091A706909106
:1019C000A806892B69F489819A819093A80680934F
:1019D000A706809111078130C9F40E944E1116C0EC
:1019E00080911507882391F48091A7069091A8060D
:1019F000FC01268989819A81FC018689821730F051
:101A000089819A819093A8068093A70680911907EF
:101A10008F5F8093190789819A81FC019689809153
:101A20001407891730F489819A81FC018689809393
:101A3000140789819A81AC014E5F5F4F89819A8139
:101A4000FC018689282F30E0C901880F991F880F73
:101A5000991F880F991F820F931F8755994FBA01BD
:101A60000E9463070F900FBE80911507882371F0C5
:101A70008091A7069091A806FC01268989819A8108
:101A8000FC018689281710F40E945F0A00000F905D
:101A90000F90DF91CF910895CF93DF9300D01F92E5
:101AA000CDB7DEB79B838A8319828A819B81892B7C
:101AB00051F00E94A90E8A819B8160E00E9432123F
:101AC0000E94B60E89838981882311F40E945F0ADF
:101AD00000000F900F900F90DF91CF910895CF935A
:101AE000DF9300D000D0CDB7DEB79C838B830FB6D9
:101AF000F8940F928B819C81892B29F48091A70601
:101B00009091A80602C08B819C819A8389838981E8
:101B10009A8102960E942A0889819A81FC0184890F
:101B20009589892B29F089819A810C960E942A082F
:101B300089819A810296BC0188E097E00E94630740
:101B400089819A81FC0187A1813021F489819A8160
:101B5000FC0117A20F900FBE80911507882339F062
:101B60000FB6F8940F920E94D9110F900FBE80917A
:101B7000A7069091A80629813A8128173907A1F470
:101B800080911507882319F00E945F0A0DC090917B
:101B9000080780911107981729F41092A80610924F
:101BA000A70602C00E943A1000000F900F900F90FD
:101BB0000F90DF91CF910895CF93DF9300D000D0A5
:101BC0001F92CDB7DEB79D838C8319828C819D8156
:101BD0009B838A838A819B81FC01828593858850BF
:101BE000974089F48A819B81FC0184899589855F6E
:101BF000964049F08A819B81FC0184899589892BD3
:101C000011F481E0898389810F900F900F900F90DC
:101C10000F90DF91CF910895CF93DF9300D000D044
:101C2000CDB7DEB79C838B838B819C819A8389831C
:101C30008091A7069091A80629813A812817390733
:101C400009F44AC089819A81892B09F445C00FB6ED
:101C5000F8940F9289819A810E94DC0D8823D1F13A
:101C600089819A8102960E942A0889819A81FC01C1
:101C7000968980911407891730F489819A81FC0133
:101C800086898093140789819A81AC014E5F5F4FEA
:101C900089819A81FC018689282F30E0C901880F4B
:101CA000991F880F991F880F991F820F931F8755BF
:101CB000994FBA010E94630789819A81FC012689A4
:101CC0008091A7069091A806FC018689281710F03C
:101CD0000E945F0A0F900FBE00000F900F900F90B0
:101CE0000F90DF91CF910895EF92FF920F93CF93D2
:101CF000DF931F92CDB7DEB70F2EFCE1EF2EF7E09A
:101D0000FF2EF02D00E020E030E045E550E069EBEB
:101D100070E084E491E10E947D0B898389818130A8
:101D200081F4F8948FEF9FEF90931B0780931A072D
:101D300081E08093150710921307109212070E94FA
:101D40002A0A00000F90DF91CF910F91FF90EF9042
:101D50000895CF93DF93CDB7DEB780911E078F5FD5
:101D600080931E070000DF91CF910895CF93DF93FA
:101D700000D000D0CDB7DEB71A8219821B820FB611
:101D8000F8940F9280911E07815080931E078091D6
:101D90001E07882309F077C080911107882309F472
:101DA00072C049C08091FA069091FB06FC018681C1
:101DB00097819A83898389819A810C960E942A0847
:101DC00089819A8102960E942A0889819A81FC0160
:101DD000968980911407891730F489819A81FC01D2
:101DE00086898093140789819A81AC014E5F5F4F89
:101DF00089819A81FC018689282F30E0C901880FEA
:101E0000991F880F991F880F991F820F931F87555D
:101E1000994FBA010E94630789819A81FC01268942
:101E20008091A7069091A806FC018689281718F0D2
:101E300081E0809317078091F506882309F0B2CFDF
:101E400089819A81892B11F00E94D91180911607FE
:101E50008C838C81882379F00E944D0F882319F0A0
:101E600081E0809317078C8181508C838C8188233B
:101E700099F71092160780911707882321F081E0C7
:101E80008B830E945F0A0F900FBE8B810F900F9083
:101E90000F900F90DF91CF910895CF93DF93CDB73F
:101EA000DEB729970FB6F894DEBF0FBECDBF1982FB
:101EB00080911E07882309F0C8C080911207909175
:101EC000130701969B838A838A819B8190931307D2
:101ED000809312078A819B81892BD9F48091F10626
:101EE0009091F2069D838C838091F3069091F40685
:101EF0009093F2068093F1068C819D819093F40675
:101F00008093F306809118078F5F809318070E94D3
:101F1000D91180911A0790911B072A813B812817BC
:101F2000390708F478C08091F1069091F206FC011F
:101F30008081882339F48FEF9FEF90931B07809364
:101F40001A0769C08091F1069091F206FC01858123
:101F50009681FC01868197819F838E838E819F81EC
:101F6000FC0182819381998788872A813B818885BA
:101F700099852817390738F48885998590931B0728
:101F800080931A0748C08E819F8102960E942A087A
:101F90008E819F81FC0184899589892B29F08E810E
:101FA0009F810C960E942A088E819F81FC01968950
:101FB00080911407891730F48E819F81FC018689F6
:101FC000809314078E819F81AC014E5F5F4F8E819D
:101FD0009F81FC018689282F30E0C901880F991F55
:101FE000880F991F880F991F820F931F8755994F4C
:101FF000BA010E9463078E819F81FC01268980912E
:10200000A7069091A806FC018689281708F48BCFB3
:1020100081E0898388CF8091A7069091A806FC0172
:102020008689282F30E0C901880F991F880F991FD2
:10203000880F991F820F931F8755994FFC0180814C
:10204000823040F081E0898305C0809116078F5F60
:102050008093160780911707882311F081E0898308
:10206000898129960FB6F894DEBF0FBECDBFDF91F0
:10207000CF910895CF93DF9300D01F92CDB7DEB7F5
:1020800080911E07882321F081E0809317075FC0AD
:102090001092170780911407898303C089818150AA
:1020A00089838981282F30E0C901880F991F880F03
:1020B000991F880F991F820F931F8755994FFC0115
:1020C0008081882359F38981282F30E0C901880F46
:1020D000991F880F991F880F991F820F931F87558B
:1020E000994F9B838A838A819B81FC0181819281A4
:1020F000FC01228133818A819B81FC01328321830F
:102100008A819B81FC01218132818A819B81039696
:102110002817390769F48A819B81FC0181819281AA
:10212000FC01228133818A819B81FC0132832183DE
:102130008A819B81FC0181819281FC01868197814A
:102140009093A8068093A7068981809314070000C6
:102150000F900F900F90DF91CF910895CF93DF9361
:1021600000D000D000D0CDB7DEB79A8389837C83BE
:102170006B835E834D838091A7069091A8062B8187
:102180003C813068FC01358724878091A7069091B7
:10219000A8069C01245F3F4F89819A81B9010E9462
:1021A00063078D819E8161E00E94321200002696B5
:1021B0000FB6F894DEBF0FBECDBFDF91CF9108956B
:1021C000CF93DF9300D000D000D0CDB7DEB79C8393
:1021D0008B837E836D838D819E819C0130688B8192
:1021E0009C81FC01318320838B819C81FC01868151
:1021F00097819A8389838B819C810E942A08898197
:102200009A8102960E942A0889819A81FC01968906
:1022100080911407891730F489819A81FC0186899D
:102220008093140789819A81AC014E5F5F4F898149
:102230009A81FC018689282F30E0C901880F991FF7
:10224000880F991F880F991F820F931F8755994FE9
:10225000BA010E94630789819A81FC0126898091D5
:10226000A7069091A806FC018689821718F481E0E0
:1022700080931707000026960FB6F894DEBF0FBEB6
:10228000CDBFDF91CF910895CF93DF9300D0CDB72D
:10229000DEB79A8389830E949011FDCFCF93DF939D
:1022A0001F92CDB7DEB7198213C08981282F30E085
:1022B000C901880F991F880F991F880F991F820FD6
:1022C000931F8755994F0E941B0789818F5F8983D0
:1022D0008981863050F38FED96E00E941B0788EECF
:1022E00096E00E941B0785EF96E00E941B078EEF89
:1022F00096E00E941B0788E097E00E941B078FED85
:1023000096E09093F2068093F10688EE96E0909323
:10231000F4068093F30600000F90DF91CF910895AB
:10232000CF93DF9300D0CDB7DEB721C00FB6F894BE
:102330000F928091030790910407FC018681978199
:102340009A83898389819A8102960E942A088091C2
:102350001107815080931107809107078150809366
:1023600007070F900FBE89819A810E94C111809149
:1023700007078823D9F600000F900F90DF91CF91C7
:102380000895CF93DF9300D0CDB7DEB79A838983CA
:1023900089819A81FC018789908D0E940E0789812D
:1023A0009A810E940E0700000F900F90DF91CF914D
:1023B0000895CF93DF9300D0CDB7DEB78091F106BB
:1023C0009091F206FC018081882339F48FEF9FEF12
:1023D00090931B0780931A0715C08091F106909186
:1023E000F206FC0185819681FC01868197819A83A2
:1023F000898389819A81FC018281938190931B0753
:1024000080931A0700000F900F90DF91CF910895ED
:10241000CF93DF9300D0CDB7DEB78091A706909120
:10242000A806FC01848595859A8389838091A706F7
:102430009091A8062091A7063091A806F901268957
:10244000222F30E046E050E0BA01621B730B9B0183
:10245000FC013587248789819A810F900F90DF9145
:10246000CF910895CF93DF93CDB7DEB727970FB6FF
:10247000F894DEBF0FBECDBF9E838D836F838091A6
:102480001207909113079A8389838091A7069091F0
:10249000A80602960E942A088D819E81019671F4F9
:1024A0008F81882359F08091A7069091A806029603
:1024B000BC0188E097E00E94630744C029813A810B
:1024C0008D819E81820F931F9C838B838091A706B1
:1024D0009091A8062B813C81FC01338322832B81C0
:1024E0003C8189819A812817390778F48091A70661
:1024F0009091A8069C012E5F3F4F8091F30690912A
:10250000F406B9010E94B2071DC08091A706909100
:10251000A8069C012E5F3F4F8091F1069091F20634
:10252000B9010E94B20780911A0790911B072B8175
:102530003C812817390730F48B819C8190931B07CD
:1025400080931A07000027960FB6F894DEBF0FBEDF
:10255000CDBFDF91CF910895CF93DF9300D0CDB75A
:10256000DEB789836A838981882F90E08130910565
:1025700091F0823091051CF4892B39F01EC0823015
:10258000910579F0039799F018C08AE390E02A81C9
:10259000FC01208312C087E390E02A81FC012083A4
:1025A0000CC084E390E02A81FC01208306C081E313
:1025B00090E02A81FC012083000000000F900F9022
:1025C000DF91CF910895CF93DF9300D01F92CDB7C5
:1025D000DEB789836A834B838981882F90E08130BD
:1025E000910581F1823091051CF4892B49F090C04E
:1025F0008230910509F448C0039709F467C088C088
:102600008B81882F90E0009721F08F3F910571F02A
:102610007FC08AE390E02AE330E0F9012081322F85
:102620002A8120952323FC0120830BC08AE390E0BC
:102630002AE330E0F90130812A81232BFC01208339
:10264000000066C08B81882F90E0009721F08F3FBB
:10265000910571F05DC087E390E027E330E0F90178
:102660002081322F2A8120952323FC0120830BC057
:1026700087E390E027E330E0F90130812A81232BC2
:10268000FC012083000044C08B81882F90E00097DC
:1026900021F08F3F910571F03BC084E390E024E38B
:1026A00030E0F9012081322F2A8120952323FC017B
:1026B00020830BC084E390E024E330E0F901308113
:1026C0002A81232BFC012083000022C08B81882FCC
:1026D00090E0009721F08F3F910571F018C081E3E1
:1026E00090E021E330E0F9012081322F2A8120950A
:1026F0002323FC0120830BC081E390E021E330E041
:10270000F90130812A81232BFC0120830000000085
:1027100000000F900F900F90DF91CF910895CF930D
:10272000DF9300D01F92CDB7DEB789836A834B83D6
:102730008B81882F90E0009709F442C0019709F03F
:1027400086C08981882F90E081309105B9F0823070
:1027500091051CF4892B39F07AC082309105C9F0BB
:10276000039711F174C08BE390E02BE330E0F901A3
:1027700030812A81232BFC01208321C088E390E053
:1027800028E330E0F90130812A81232BFC012083EA
:1027900016C085E390E025E330E0F90130812A811D
:1027A000232BFC0120830BC082E390E022E330E086
:1027B000F90130812A81232BFC012083000047C0CE
:1027C0008981882F90E081309105C9F08230910590
:1027D0001CF4892B39F03AC082309105E9F0039757
:1027E00041F134C08BE390E02BE330E0F90120812C
:1027F000322F2A8120952323FC01208327C088E3E0
:1028000090E028E330E0F9012081322F2A812095E1
:102810002323FC0120831AC085E390E025E330E008
:10282000F9012081322F2A8120952323FC01208366
:102830000DC082E390E022E330E0F9012081322FE5
:102840002A8120952323FC01208300000000000042
:102850000F900F900F90DF91CF910895CF93DF935A
:1028600000D01F92CDB7DEB78A836B8319828A812D
:10287000882F90E081309105E9F0823091051CF4B9
:10288000892B39F04AC08230910529F10397A1F1D3
:1028900044C089E390E0FC018081882F90E02B8187
:1028A000222F30E002C0959587952A95E2F7817036
:1028B000898333C086E390E0FC018081882F90E01B
:1028C0002B81222F30E002C0959587952A95E2F75B
:1028D0008170898322C083E390E0FC018081882F8E
:1028E00090E02B81222F30E002C0959587952A95A4
:1028F000E2F78170898311C080E390E0FC01808160
:10290000882F90E02B81222F30E002C0959587958B
:102910002A95E2F781708983000089810F900F90DA
:102920000F90DF91CF910895CF93DF9300D0CDB773
:10293000DEB789836A838981882F90E08130910591
:1029400061F1823091051CF4892B49F080C08230FE
:10295000910509F440C0039709F45BC078C08A81EF
:10296000882F90E0009721F08F3F910559F06FC0BC
:102970008AE390E02AE330E0F9012081207FFC0126
:1029800020830AC08AE390E02AE330E0F901208145
:102990002F60FC01208300005AC08A81882F90E0BC
:1029A000009721F08F3F910559F051C087E390E0E7
:1029B00027E330E0F9012081207FFC0120830AC059
:1029C00087E390E027E330E0F90120812F60FC01EC
:1029D000208300003CC08A81882F90E0009721F07E
:1029E0008F3F910559F033C084E390E024E330E059
:1029F000F9012081207FFC0120830AC084E390E05C
:102A000024E330E0F90120812F60FC0120830000E5
:102A10001EC08A81882F90E0009721F08F3F91059A
:102A200059F014C081E390E021E330E0F901208106
:102A3000207FFC0120830AC081E390E021E330E0A5
:102A4000F90120812F60FC012083000000000000BC
:102A50000F900F90DF91CF910895CF93DF9300D027
:102A6000CDB7DEB789836A838981882F90E0813072
:102A70009105D1F0823091051CF4892B39F03EC0CC
:102A800082309105F9F0039759F138C08BE390E05B
:102A90002BE330E0F9012081322F307F2A812F7023
:102AA000232BFC0120832AC088E390E028E330E058
:102AB000F9012081322F307F2A812F70232BFC01D6
:102AC00020831CC085E390E025E330E0F9012081FC
:102AD000322F307F2A812F70232BFC0120830EC0E0
:102AE00082E390E022E330E0F9012081322F307F51
:102AF0002A812F70232BFC012083000000000F90FF
:0C2B00000F90DF91CF910895F894FFCF63
:102B0C00436F72726563742050617373776F726474
:102B1C0021212100496E636F7272656374205061CC
:102B2C007373776F72642121210001020303024940
:102B3C006E697469616C697A6174696F6E20546135
:102B4C00736B00446973706C61795F5461736B00D3
:0E2B5C005042305F5461736B0049444C450099
:00000001FF
