:100000000C942A000C9447000C9447000C94470071
:100010000C9447000C9447000C9447000C94DD05A9
:100020000C9447000C9447000C9447000C94470034
:100030000C9447000C9447000C9447000C94470024
:100040000C9447000C9447000C9447000C94470014
:100050000C94470011241FBECFE5D8E0DEBFCDBF12
:1000600010E0A0E6B0E0EEE8FAE102C005900D92E3
:10007000AC38B107D9F726E0ACE8B0E001C01D927A
:10008000A63DB207E1F70E9469000C94450D0C945F
:100090000000CF93DF9300D0CDB7DEB79A8389837A
:1000A00080E10E94A10080918C0090918D000E94BF
:1000B000CA07F6CFCF93DF9300D0CDB7DEB79A83D0
:1000C000898380E10E94EB0088EE93E00E94A707FD
:1000D000F8CFEF92FF920F93CF93DF931F92CDB79C
:1000E000DEB719820F2EFCE8EF2EF0E0FF2EF02D88
:1000F00004E020E030E045E550E060E670E089E4AF
:1001000090E00E94E10589830F2EFEE8EF2EF0E0DB
:10011000FF2EF02D02E020E030E045E550E064E7FE
:1001200070E08AE590E00E94E10589830E9437082B
:1001300080E090E00F90DF91CF910F91FF90EF90D2
:100140000895CF93DF931F92CDB7DEB7898389815E
:10015000882F90E080329105C1F0813291051CF426
:10016000409741F033C080349105D1F0803891053B
:1001700011F12CC04FEF60E181E00E94AF0B40E035
:1001800060E181E00E945B0C21C04FEF60E281E002
:100190000E94AF0B40E060E281E00E945B0C16C061
:1001A0004FEF60E481E00E94AF0B40E060E481E04B
:1001B0000E945B0C0BC04FEF60E881E00E94AF0B28
:1001C00040E060E881E00E945B0C000000000F90BE
:1001D000DF91CF910895CF93DF931F92CDB7DEB714
:1001E00089838981882F90E08032910591F0813256
:1001F00091051CF4409741F01BC08034910571F0CB
:100200008038910581F014C060E181E00E94FA0C11
:100210000FC060E281E00E94FA0C0AC060E481E055
:100220000E94FA0C05C060E881E00E94FA0C000010
:1002300000000F90DF91CF910895CF93DF9300D00E
:1002400000D0CDB7DEB79C838B831A8219820E94BF
:100250006C0880916E0690916F06892B31F481E9CC
:1002600090E090936F0680936E0620916C0630911B
:100270006D068B819C81820F931F8B3D954038F5D5
:1002800020916C0630916D068B819C81280F391F5F
:1002900080916C0690916D0682179307C0F42091AF
:1002A0006E0630916F0680916C0690916D06820FFC
:1002B000931F9A83898320916C0630916D068B8100
:1002C0009C81820F931F90936D0680936C060E9411
:1002D000790889819A810F900F900F900F90DF918C
:1002E000CF910895CF93DF9300D0CDB7DEB79A8337
:1002F000898300000F900F90DF91CF910895CF93E5
:10030000DF9300D0CDB7DEB79A83898389819A8144
:100310009C012D5F3F4F89819A81FC0132832183AB
:1003200089819A812FEF3FEFFC01348323838981F8
:100330009A819C012D5F3F4F89819A81FC01368310
:10034000258389819A819C012D5F3F4F89819A8104
:10035000FC013087278389819A81FC01108200008B
:100360000F900F90DF91CF910895CF93DF9300D03E
:10037000CDB7DEB79A83898389819A81FC01118682
:10038000108600000F900F90DF91CF910895CF93CA
:10039000DF9300D000D000D0CDB7DEB79C838B8335
:1003A0007E836D838B819C81FC01818192819A8304
:1003B00089838D819E8129813A81FC013383228347
:1003C00089819A81FC01248135818D819E81FC0186
:1003D0003583248389819A81FC01848195812D81D3
:1003E0003E81FC013383228389819A812D813E8164
:1003F000FC01358324838D819E812B813C81FC010E
:10040000318720878B819C81FC01808121E0280F2E
:100410008B819C81FC012083000026960FB6F89406
:10042000DEBF0FBECDBFDF91CF910895CF93DF9395
:10043000CDB7DEB728970FB6F894DEBF0FBECDBF9D
:100440009E838D8378876F838F819885FC0180815F
:1004500091819C838B838B819C81019641F48D815A
:100460009E81FC01878190859A8389831AC08D8142
:100470009E8103969A83898307C089819A81FC01B2
:10048000828193819A83898389819A81FC01828107
:100490009381FC01208131818B819C81821793079C
:1004A00060F789819A81FC01228133818F8198854F
:1004B000FC01338322838F819885FC0182819381A3
:1004C0002F813885FC01358324838F81988529818C
:1004D0003A81FC013583248389819A812F81388573
:1004E000FC01338322838F8198852D813E81FC011D
:1004F000318720878D819E81FC01808121E0280F3A
:100500008D819E81FC012083000028960FB6F8940F
:10051000DEBF0FBECDBFDF91CF910895CF93DF93A4
:1005200000D000D0CDB7DEB79C838B838B819C81BC
:10053000FC01808591859A8389838B819C81FC0154
:10054000828193812B813C81F90124813581FC01D9
:10055000358324838B819C81FC01848195812B814F
:100560003C81F90122813381FC013383228389811B
:100570009A81FC01218132818B819C812817390766
:1005800051F48B819C81FC012481358189819A8180
:10059000FC01328321838B819C81FC0111861086B2
:1005A00089819A81FC0180812FEF280F89819A81AE
:1005B000FC01208389819A81FC0180810F900F903A
:1005C0000F900F90DF91CF910895CF93DF93CDB728
:1005D000DEB728970FB6F894DEBF0FBECDBF9C8361
:1005E0008B837E836D8358874F838B819C8121E130
:1005F000FC0120838B819C8101979C838B838B8161
:100600009C8122E2FC0120838B819C8101979C8349
:100610008B838B819C8123E3FC0120838B819C81D4
:1006200001979C838B838D819E819A838983298105
:100630008B819C81FC0120838B819C8101979C8311
:100640008B8389819A81892F99279A83898329812C
:100650008B819C81FC0120838B819C8101979C83F1
:100660008B838B819C81FC0110828B819C81019703
:100670009C838B838B819C8120E8FC0120838B8170
:100680009C8101979C838B838B819C81FC011082D0
:100690008B819C8101979C838B838B819C8122E041
:1006A000FC0120838B819C8101979C838B838B81B0
:1006B0009C8123E0FC0120838B819C8101979C839A
:1006C0008B838B819C8124E0FC0120838B819C8126
:1006D00001979C838B838B819C8125E0FC01208387
:1006E0008B819C8101979C838B838B819C8126E0ED
:1006F000FC0120838B819C8101979C838B838B8160
:100700009C8127E0FC0120838B819C8101979C8345
:100710008B838B819C8128E0FC0120838B819C81D1
:1007200001979C838B838B819C8129E0FC01208332
:100730008B819C8101979C838B838B819C8120E1A1
:10074000FC0120838B819C8101979C838B838B810F
:100750009C8121E1FC0120838B819C8101979C83FA
:100760008B838B819C8122E1FC0120838B819C8186
:1007700001979C838B838B819C8123E1FC012083E7
:100780008B819C8101979C838B838B819C8124E14D
:10079000FC0120838B819C8101979C838B838B81BF
:1007A0009C8125E1FC0120838B819C8101979C83A6
:1007B0008B838B819C8126E1FC0120838B819C8132
:1007C00001979C838B838B819C8127E1FC01208393
:1007D0008B819C8101979C838B838B819C8128E1F9
:1007E000FC0120838B819C8101979C838B838B816F
:1007F0009C8129E1FC0120838B819C8101979C8352
:100800008B838B819C8120E2FC0120838B819C81E6
:1008100001979C838B838B819C8121E2FC01208347
:100820008B819C8101979C838B838B819C8122E2AD
:10083000FC0120838B819C8101979C838B838B811E
:100840009C8123E2FC0120838B819C8101979C8306
:100850008B838F8198859A83898329818B819C8161
:10086000FC0120838B819C8101979C838B838981F0
:100870009A81892F99279A83898329818B819C81E9
:10088000FC0120838B819C8101979C838B838B81CE
:100890009C8126E2FC0120838B819C8101979C83B3
:1008A0008B838B819C8127E2FC0120838B819C813F
:1008B00001979C838B838B819C8128E2FC012083A0
:1008C0008B819C8101979C838B838B819C8129E206
:1008D000FC0120838B819C8101979C838B838B817E
:1008E0009C8120E3FC0120838B819C8101979C8368
:1008F0008B838B819C8121E3FC0120838B819C81F4
:1009000001979C838B838B819C8128960FB6F894EA
:10091000DEBF0FBECDBFDF91CF910895CF93DF93A0
:10092000CDB7DEB70E947B05A0917006B09171062D
:10093000CD91CDBFDD91DEBFFF91EF91DF91CF91E2
:10094000BF91AF919F918F917F916F915F914F91E7
:100950003F912F911F910F91FF90EF90DF90CF90DB
:10096000BF90AF909F908F907F906F905F904F90CF
:100970003F902F901F900F900FBE0F90089581E031
:10098000DF91CF9108950F920FB6F8940F921F92B6
:1009900011242F923F924F925F926F927F928F928B
:1009A0009F92AF92BF92CF92DF92EF92FF920F93FE
:1009B0001F932F933F934F935F936F937F938F93E7
:1009C0009F93AF93BF93CF93DF93EF93FF93A09148
:1009D0007006B09171060DB60D920EB60D920E9482
:1009E000FD09A0917006B0917106CD91CDBFDD914A
:1009F000DEBFFF91EF91DF91CF91BF91AF919F91BA
:100A00008F917F916F915F914F913F912F911F91A6
:100A10000F91FF90EF90DF90CF90BF90AF909F909D
:100A20008F907F906F905F904F903F902F901F908E
:100A30000F900FBE0F90089500000F920FB6F8941C
:100A40000F921F9211242F923F924F925F926F92BA
:100A50007F928F929F92AF92BF92CF92DF92EF924E
:100A6000FF920F931F932F933F934F935F936F9337
:100A70007F938F939F93AF93BF93CF93DF93EF9326
:100A8000FF93A0917006B09171060DB60D920EB64F
:100A90000D920E941009882311F00E94FD09A09177
:100AA0007006B0917106CD91CDBFDD91DEBFFF9193
:100AB000EF91DF91CF91BF91AF919F918F917F91F6
:100AC0006F915F914F913F912F911F910F91FF90E7
:100AD000EF90DF90CF90BF90AF909F908F907F90DE
:100AE0006F905F904F903F902F901F900F900FBE90
:100AF0000F9008950000CF93DF9300D000D000D076
:100B0000CDB7DEB780E89EE3A0E0B0E089839A83AA
:100B1000AB83BC8389819A81AB81BC81689415F8D1
:100B2000B695A795979587951694D1F789839A835B
:100B3000AB83BC8389819A81AB81BC810197A10978
:100B4000B10989839A83AB83BC8389818D83898131
:100B50009A81AB81BC81892F9A2FAB2FBB278983C8
:100B60009A83AB83BC8389818E838BE490E02E8152
:100B7000FC0120838AE490E02D81FC0120838BE03E
:100B80008D838EE490E02D81FC01208389E590E047
:100B9000FC0180818D838D8180618D8389E590E06A
:100BA0002D81FC012083000026960FB6F894DEBF4D
:100BB0000FBECDBFDF91CF9108950E941D051895FE
:100BC00000008F929F92AF92BF92CF92DF92EF92EE
:100BD000FF920F931F93CF93DF93CDB7DEB760974C
:100BE0000FB6F894DEBF0FBECDBF9F838E8379878B
:100BF00068875B874A873D872C870E87F88AEF8650
:100C00008A859B850E941D019D838C838C819D819B
:100C1000892BB9F086E290E00E941D019A838983B6
:100C200089819A81892B41F089819A812C813D812A
:100C3000FC01308F278B07C08C819D810E9472013F
:100C400002C01A82198289819A81892B09F18A85C9
:100C50009B85CC01A0E0B0E009811A814F855889BD
:100C60002C853D8568857985EE81FF81812C912CCD
:100C700058016A01EE8489019C01AD01CF010E94F7
:100C80005E0689819A810E94290781E08B8302C0D8
:100C90008FEF8B838B8160960FB6F894DEBF0FBE0B
:100CA000CDBFDF91CF911F910F91FF90EF90DF901B
:100CB000CF90BF90AF909F908F9008958F929F920A
:100CC000AF92BF92CF92DF92EF920F931F93CF9389
:100CD000DF93CDB7DEB764970FB6F894DEBF0FBED3
:100CE000CDBF9D838C837F836E83288739874A8716
:100CF0005B871D870C87EE86D88ACF86BA8AA98A39
:100D00009C8A8B8A89899A89FC012789308D8885FC
:100D100099850197820F931F9B838A838E819F8180
:100D2000892B69F1198221C08981882F90E029815E
:100D3000222F30E04E815F81240F351FF901408161
:100D400029893A89820F931F4996FC014083898142
:100D5000882F90E02E813F81820F931FFC018081BC
:100D6000882339F089818F5F898389818830E0F217
:100D700001C0000089899A89FC0110A204C08989F8
:100D80009A89FC01118E8E85843010F083E08E8765
:100D900089899A892E85FC01268B89899A890296F0
:100DA0000E94B50189899A890C960E94B5018989AA
:100DB0009A8929893A89FC01318720878E85882F75
:100DC00090E024E030E0281B390B89899A89FC01E6
:100DD0003587248789899A8929893A89FC01338B47
:100DE000228B89899A89FC0111A212A213A214A252
:100DF00089899A89FC0115A24C855D852C813D81EC
:100E00008A819B81B9010E94E5029C0189899A89A6
:100E1000FC01318320838F859889892B39F08F8558
:100E2000988929893A89FC013183208300006496DE
:100E30000FB6F894DEBF0FBECDBFDF91CF911F91EB
:100E40000F91EF90DF90CF90BF90AF909F908F90D9
:100E50000895CF93DF9300D0CDB7DEB79A8389830F
:100E60000FB6F8940F928091C8068F5F8093C806E2
:100E70008091700690917106892B69F489819A811D
:100E800090937106809370068091C8068130C9F4F2
:100E90000E947B0A16C08091CC06882391F4809131
:100EA000700690917106FC01268989819A81FC0166
:100EB0008689821730F089819A8190937106809398
:100EC00070068091D0068F5F8093D00689819A81C9
:100ED000FC0196898091CB06891730F489819A812B
:100EE000FC0186898093CB0689819A81AC014E5F93
:100EF0005F4F89819A81FC018689282F30E0C901E2
:100F0000880F991F880F991F880F991F820F931FB1
:100F10008E58994FBA010E94C7010F900FBE809161
:100F2000CC06882371F08091700690917106FC01C7
:100F3000268989819A81FC018689281710F40E94EC
:100F4000C30400000F900F90DF91CF910895CF93CD
:100F5000DF9300D01F92CDB7DEB79B838A831982BF
:100F60008A819B81892B51F00E946C088A819B8128
:100F700060E00E94350B0E9479088983898188236B
:100F800011F40E94C30400000F900F900F90DF91A6
:100F9000CF910895CF93DF9300D000D0CDB7DEB7C7
:100FA0009C838B830FB6F8940F928B819C81892B45
:100FB00029F4809170069091710602C08B819C810A
:100FC0009A83898389819A8102960E948E028981FF
:100FD0009A81FC0184899589892B29F089819A81DC
:100FE0000C960E948E0289819A810296BC018FEB39
:100FF00096E00E94C70189819A81FC0185A1813018
:1010000021F489819A81FC0115A20F900FBE809175
:10101000CC06882339F00FB6F8940F920E94060B85
:101020000F900FBE809170069091710629813A81D0
:1010300028173907A1F48091CC06882319F00E9463
:10104000C3040DC09091BF068091C806981729F47B
:10105000109271061092700602C00E94FD090000F5
:101060000F900F900F900F90DF91CF910895EF9216
:10107000FF920F93CF93DF931F92CDB7DEB70F2E62
:10108000F3EDEF2EF6E0FF2EF02D00E020E030E053
:1010900045E550E066E870E081E79AE00E94E105EE
:1010A00089838981813081F4F8948FEF9FEF909349
:1010B000D2068093D10681E08093CC061092CA06B6
:1010C0001092C9060E948E0400000F90DF91CF910C
:1010D0000F91FF90EF900895CF93DF93CDB7DEB7D8
:1010E0008091D5068F5F8093D5060000DF91CF9168
:1010F0000895CF93DF9300D000D0CDB7DEB71A822A
:1011000019821B820FB6F8940F928091D5068150F8
:101110008093D5068091D506882309F077C0809109
:10112000C806882309F472C049C08091B106909125
:10113000B206FC01868197819A83898389819A818D
:101140000C960E948E0289819A8102960E948E02DC
:1011500089819A81FC0196898091CB06891730F4A8
:1011600089819A81FC0186898093CB0689819A8145
:10117000AC014E5F5F4F89819A81FC018689282FDF
:1011800030E0C901880F991F880F991F880F991F98
:10119000820F931F8E58994FBA010E94C70189810F
:1011A0009A81FC0126898091700690917106FC015C
:1011B0008689281718F081E08093CE068091AC06CE
:1011C000882309F0B2CF89819A81892B11F00E947E
:1011D000060B8091CD068C838C81882379F00E9448
:1011E0001009882319F081E08093CE068C8181500C
:1011F0008C838C81882399F71092CD068091CE063E
:10120000882321F081E08B830E94C3040F900FBEDE
:101210008B810F900F900F900F90DF91CF910895D9
:10122000CF93DF93CDB7DEB729970FB6F894DEBF23
:101230000FBECDBF19828091D506882309F0C8C0A2
:101240008091C9069091CA0601969B838A838A8100
:101250009B819093CA068093C9068A819B81892BC2
:10126000D9F48091A8069091A9069D838C838091E2
:10127000AA069091AB069093A9068093A8068C814C
:101280009D819093AB068093AA068091CF068F5FD5
:101290008093CF060E94060B8091D1069091D206D2
:1012A0002A813B812817390708F478C08091A80665
:1012B0009091A906FC018081882339F48FEF9FEF7C
:1012C0009093D2068093D10669C08091A806909130
:1012D000A906FC0185819681FC01868197819F8307
:1012E0008E838E819F81FC0182819381998788877B
:1012F0002A813B81888599852817390738F48885A4
:1013000099859093D2068093D10648C08E819F81A3
:1013100002960E948E028E819F81FC0184899589AC
:10132000892B29F08E819F810C960E948E028E81DE
:101330009F81FC0196898091CB06891730F48E81BC
:101340009F81FC0186898093CB068E819F81AC01B1
:101350004E5F5F4F8E819F81FC018689282F30E090
:10136000C901880F991F880F991F880F991F820F35
:10137000931F8E58994FBA010E94C7018E819F8199
:10138000FC0126898091700690917106FC01868986
:10139000281708F48BCF81E0898388CF809170066D
:1013A00090917106FC018689282F30E0C901880FD1
:1013B000991F880F991F880F991F820F931F8E58AE
:1013C000994FFC018081823040F081E0898305C023
:1013D0008091CD068F5F8093CD068091CE068823C5
:1013E00011F081E08983898129960FB6F894DEBFD8
:1013F0000FBECDBFDF91CF910895CF93DF9300D083
:101400001F92CDB7DEB78091D506882321F081E009
:101410008093CE065FC01092CE068091CB06898362
:1014200003C08981815089838981282F30E0C901D7
:10143000880F991F880F991F880F991F820F931F7C
:101440008E58994FFC018081882359F38981282F78
:1014500030E0C901880F991F880F991F880F991FC5
:10146000820F931F8E58994F9B838A838A819B8119
:10147000FC0181819281FC01228133818A819B81DF
:10148000FC01328321838A819B81FC01218132818D
:101490008A819B8103962817390769F48A819B8189
:1014A000FC0181819281FC01228133818A819B81AF
:1014B000FC01328321838A819B81FC01818192819D
:1014C000FC018681978190937106809370068981D3
:1014D0008093CB0600000F900F900F90DF91CF917B
:1014E0000895CF93DF9300D0CDB7DEB79A83898379
:1014F0000E94BD0AFDCFCF93DF931F92CDB7DEB719
:10150000198213C08981282F30E0C901880F991FE3
:10151000880F991F880F991F820F931F8E58994F1C
:101520000E947F0189818F5F89838981843050F394
:1015300086E996E00E947F018FE996E00E947F0194
:101540008CEA96E00E947F0185EB96E00E947F0185
:101550008FEB96E00E947F0186E996E09093A906C2
:101560008093A8068FE996E09093AB068093AA0635
:1015700000000F90DF91CF910895CF93DF9300D0BB
:10158000CDB7DEB721C00FB6F8940F928091BA069E
:101590009091BB06FC01868197819A83898389811A
:1015A0009A8102960E948E028091C8068150809393
:1015B000C8068091BE0681508093BE060F900FBE74
:1015C00089819A810E94EE0A8091BE068823D9F60D
:1015D00000000F900F90DF91CF910895CF93DF938C
:1015E00000D0CDB7DEB79A83898389819A81FC01C7
:1015F0008789908D0E94720189819A810E9472016F
:1016000000000F900F90DF91CF910895CF93DF935B
:1016100000D0CDB7DEB78091A8069091A906FC0155
:101620008081882339F48FEF9FEF9093D2068093C7
:10163000D10615C08091A8069091A906FC0185816C
:101640009681FC01868197819A83898389819A8119
:10165000FC01828193819093D2068093D106000091
:101660000F900F90DF91CF910895CF93DF93CDB777
:10167000DEB727970FB6F894DEBF0FBECDBF9E83AF
:101680008D836F838091C9069091CA069A8389835E
:10169000809170069091710602960E948E028D8153
:1016A0009E81019671F48F81882359F08091700694
:1016B000909171060296BC018FEB96E00E94C701E3
:1016C00044C029813A818D819E81820F931F9C8322
:1016D0008B8380917006909171062B813C81FC0177
:1016E000338322832B813C8189819A812817390792
:1016F00078F480917006909171069C012E5F3F4FA7
:101700008091AA069091AB06B9010E9416021DC0F5
:1017100080917006909171069C012E5F3F4F8091E1
:10172000A8069091A906B9010E9416028091D106DF
:101730009091D2062B813C812817390730F48B8198
:101740009C819093D2068093D106000027960FB615
:10175000F894DEBF0FBECDBFDF91CF910895CF9338
:10176000DF9300D01F92CDB7DEB789836A834B83A6
:101770008981882F90E08130910581F18230910537
:101780001CF4892B49F090C08230910509F448C0BF
:10179000039709F467C088C08B81882F90E0009779
:1017A00021F08F3F910571F07FC08AE390E02AE33A
:1017B00030E0F9012081322F2A8120952323FC017A
:1017C00020830BC08AE390E02AE330E0F901308106
:1017D0002A81232BFC012083000066C08B81882F87
:1017E00090E0009721F08F3F910571F05DC087E395
:1017F00090E027E330E0F9012081322F2A81209503
:101800002323FC0120830BC087E390E027E330E033
:10181000F90130812A81232BFC012083000044C080
:101820008B81882F90E0009721F08F3F910571F018
:101830003BC084E390E024E330E0F9012081322FC3
:101840002A8120952323FC0120830BC084E390E0B0
:1018500024E330E0F90130812A81232BFC0120832D
:10186000000022C08B81882F90E0009721F08F3FED
:10187000910571F018C081E390E021E330E0F901B7
:101880002081322F2A8120952323FC0120830BC045
:1018900081E390E021E330E0F90130812A81232BBC
:1018A000FC0120830000000000000F900F900F90BB
:1018B000DF91CF910895CF93DF9300D01F92CDB7E2
:1018C000DEB789836A834B838B81882F90E00097F2
:1018D00009F442C0019709F086C08981882F90E001
:1018E00081309105B9F0823091051CF4892B39F0D3
:1018F0007AC082309105C9F0039711F174C08BE36F
:1019000090E02BE330E0F90130812A81232BFC01A8
:10191000208321C088E390E028E330E0F9013081A2
:101920002A81232BFC01208316C085E390E025E368
:1019300030E0F90130812A81232BFC0120830BC088
:1019400082E390E022E330E0F90130812A81232B09
:10195000FC012083000047C08981882F90E08130FE
:101960009105C9F0823091051CF4892B39F03AC0F9
:1019700082309105E9F0039741F134C08BE390E0A8
:101980002BE330E0F9012081322F2A812095232397
:10199000FC01208327C088E390E028E330E0F901D0
:1019A0002081322F2A8120952323FC0120831AC015
:1019B00085E390E025E330E0F9012081322F2A8190
:1019C00020952323FC0120830DC082E390E022E3D5
:1019D00030E0F9012081322F2A8120952323FC0158
:1019E00020830000000000000F900F900F90DF9107
:1019F000CF910895CF93DF9300D0CDB7DEB7898321
:101A00006A838981882F90E081309105B9F0823016
:101A100091051CF4892B39F032C082309105C9F050
:101A2000039711F12CC08BE390E02BE330E0F90138
:101A300030812A812327FC01208321C088E390E0A4
:101A400028E330E0F90130812A812327FC0120833B
:101A500016C085E390E025E330E0F90130812A816A
:101A60002327FC0120830BC082E390E022E330E0D7
:101A7000F90130812A812327FC0120830000000026
:0E1A80000F900F90DF91CF910895F894FFCF53
:101A8E00496E697469616C697A6174696F6E20540C
:101A9E0061736B004C656420506C696E6B696E6788
:0C1AAE00205461736B0049444C4500005B
:00000001FF
