S00F0000537072696E74312E7372656364
S11300000C942A000C9447000C9447000C9447006D
S11300100C9447000C9447000C9447000C94F2078E
S11300200C9447000C9447000C9447000C94470030
S11300300C9447000C9447000C9447000C94470020
S11300400C9447000C9447000C9447000C94470010
S11300500C94470011241FBECFE5D8E0DEBFCDBF0E
S113006011E0A0E6B0E0E6E2FFE102C005900D92E7
S1130070A430B107D9F727E0A4E0B1E001C01D9294
S1130080A835B207E1F70E94C5000C94910F0C94B7
S11300900000CF93DF9300D0CDB7DEB79A83898376
S11300A080E10E94B60280E20E94B60280E40E94CF
S11300B0B6020E94AD0180910401909105010E9455
S11300C0DF09EECFCF93DF93CDB7DEB7C756D109A3
S11300D00FB6F894DEBF0FBECDBF9E012A593F4F25
S11300E0F90191838083198284E6E0E6F0E0DE0181
S11300F0129601900D928A95E1F78981882F90E0FC
S11301009E012E5F3F4F880F991FAC01440F551F6E
S1130110440F551F840F951F820F931F0E945D0289
S113012089818F5F898388EE93E00E94BC09E5CFC3
S1130130CF93DF9300D0CDB7DEB79A83898380E174
S11301400E94000384E690E00E94BC09F8CFCF939C
S1130150DF9300D0CDB7DEB79A83898380E20E9413
S1130160000384EF91E00E94BC09F8CFCF93DF93A2
S113017000D0CDB7DEB79A83898380E40E94000360
S113018088EE93E00E94BC09F8CFEF92FF920F93A0
S1130190CF93DF931F92CDB7DEB719820F2EF4E011
S11301A0EF2EF1E0FF2EF02D04E020E030E044EFEC
S11301B051E064EC70E089E490E00E94F6078983E2
S11301C00F2EF6E0EF2EF1E0FF2EF02D03E020E0FD
S11301D030E044EF51E068ED70E082E690E00E9488
S11301E0F60789830F2EF8E0EF2EF1E0FF2EF02DB5
S11301F002E020E030E045E550E06CEE70E088E994
S113020090E00E94F60789830F2EFAE0EF2EF1E0CA
S1130210FF2EF02D02E020E030E045E550E06CEEEA
S113022070E087EA90E00E94F60789830F2EFCE0D5
S1130230EF2EF1E0FF2EF02D02E020E030E045E566
S113024050E06CEE70E086EB90E00E94F607898344
S11302500E944C0A80E090E00F90DF91CF910F91C3
S1130260FF90EF900895CF93DF931F92CDB7DEB741
S1130270898340E062E080E00E94A70E40E064E0F1
S113028080E00E94A70E8981881F8827881F482F35
S113029060E880E00E94A70E898182958695869504
S11302A083708170482F60E480E00E94A70E8981EA
S11302B08295869587708170482F60E280E00E9465
S11302C0A70E898182958F708170482F60E180E04C
S11302D00E94A70E41E068E080E00E94A70E81E042
S11302E090E00E94BC0940E068E080E00E94A70E14
S11302F089818695869586958170482F60E880E08F
S11303000E94A70E8981869586958170482F60E4A6
S113031080E00E94A70E898186958170482F60E253
S113032080E00E94A70E89818170482F60E180E0FF
S11303300E94A70E41E068E080E00E94A70E81E0E1
S113034090E00E94BC0940E068E080E00E94A70EB3
S113035000000F90DF91CF910895CF93DF931F9208
S1130360CDB7DEB7198280910E01882301F56FEFB6
S113037080E00E94C40D82E00E94330181E090E09D
S11303800E94BC0988E20E94330181E090E00E944F
S1130390BC098EE00E94330181E090E00E94BC0918
S11303A086E00E94330181E080930E0102C083E065
S11303B0898389810F90DF91CF910895CF93DF9343
S11303C01F92CDB7DEB7898380910E01813009F089
S11303D06FC041E062E080E00E94A70E40E064E06C
S11303E080E00E94A70E8981881F8827881F482FD4
S11303F060E880E00E94A70E8981829586958695A3
S113040083708170482F60E480E00E94A70E898188
S11304108295869587708170482F60E280E00E9403
S1130420A70E898182958F708170482F60E180E0EA
S11304300E94A70E41E068E080E00E94A70E81E0E0
S113044090E00E94BC0940E068E080E00E94A70EB2
S113045089818695869586958170482F60E880E02D
S11304600E94A70E8981869586958170482F60E445
S113047080E00E94A70E898186958170482F60E2F2
S113048080E00E94A70E89818170482F60E180E09E
S11304900E94A70E41E068E080E00E94A70E81E080
S11304A090E00E94BC0940E068E080E00E94A70E52
S11304B000000F90DF91CF910895CF93DF9300D088
S11304C0CDB7DEB79A83898380910E01813081F59F
S11304D080910F01882F90E029813A81820F931F28
S11304E0FC0180818823F1F08091100191E0980F44
S11304F09093100190911101682F892F0E949E0200
S113050080910F01882F90E029813A81820F931FF7
S1130510FC0180810E94DE0180910F018F5F809336
S11305200F0106C010920F011092110110921001D8
S113053000000F900F90DF91CF910895CF93DF9338
S113054000D0CDB7DEB789836A838981982F9295CD
S1130550990F990F907C8A81890F80680E943301DA
S113056000000F900F90DF91CF910895CF93DF9308
S11305701F92CDB7DEB789838981882F90E08032BE
S11305809105C1F0813291051CF4409741F033C0CC
S113059080349105D1F08038910511F12CC04FEFD2
S11305A060E181E00E94FB0D40E060E181E00E9497
S11305B0A70E21C04FEF60E281E00E94FB0D40E0F6
S11305C060E281E00E94A70E16C04FEF60E481E074
S11305D00E94FB0D40E060E481E00E94A70E0BC086
S11305E04FEF60E881E00E94FB0D40E060E881E0AD
S11305F00E94A70E000000000F90DF91CF91089594
S1130600CF93DF931F92CDB7DEB789838981882F7B
S113061090E08032910591F0813291051CF440976D
S113062041F01BC08034910571F08038910581F050
S113063014C060E181E00E94460F0FC060E281E0D7
S11306400E94460F0AC060E481E00E94460F05C084
S113065060E881E00E94460F000000000F90DF91E7
S1130660CF910895CF93DF9300D000D0CDB7DEB7FC
S11306709C838B831A8219820E94810A8091F006DE
S11306809091F106892B31F483E191E09093F10686
S11306908093F0062091EE063091EF068B819C81C9
S11306A0820F931F8B3D954038F52091EE063091D3
S11306B0EF068B819C81280F391F8091EE06909163
S11306C0EF0682179307C0F42091F0063091F106EB
S11306D08091EE069091EF06820F931F9A8389838F
S11306E02091EE063091EF068B819C81820F931F3F
S11306F09093EF068093EE060E948E0A89819A8178
S11307000F900F900F900F90DF91CF910895CF939A
S1130710DF9300D0CDB7DEB79A83898300000F90B2
S11307200F90DF91CF910895CF93DF9300D0CDB791
S1130730DEB79A83898389819A819C012D5F3F4F1B
S113074089819A81FC013283218389819A812FEFE7
S11307503FEFFC013483238389819A819C012D5FBF
S11307603F4F89819A81FC013683258389819A814F
S11307709C012D5F3F4F89819A81FC01308727833B
S113078089819A81FC01108200000F900F90DF9103
S1130790CF910895CF93DF9300D0CDB7DEB79A837E
S11307A0898389819A81FC011186108600000F904B
S11307B00F90DF91CF910895CF93DF9300D000D0B5
S11307C000D0CDB7DEB79C838B837E836D838B8112
S11307D09C81FC01818192819A8389838D819E8190
S11307E029813A81FC013383228389819A81FC0126
S11307F0248135818D819E81FC0135832483898107
S11308009A81FC01848195812D813E81FC01338391
S1130810228389819A812D813E81FC013583248341
S11308208D819E812B813C81FC01318720878B81C6
S11308309C81FC01808121E0280F8B819C81FC013B
S11308402083000026960FB6F894DEBF0FBECDBFFE
S1130850DF91CF910895CF93DF93CDB7DEB728977B
S11308600FB6F894DEBF0FBECDBF9E838D8378870D
S11308706F838F819885FC01808191819C838B8318
S11308808B819C81019641F48D819E81FC0187813D
S113089090859A8389831AC08D819E8103969A8359
S11308A0898307C089819A81FC01828193819A831B
S11308B0898389819A81FC0182819381FC01208151
S11308C031818B819C818217930760F789819A819A
S11308D0FC01228133818F819885FC01338322833B
S11308E08F819885FC01828193812F813885FC0159
S11308F0358324838F81988529813A81FC0135834E
S1130900248389819A812F813885FC013383228352
S11309108F8198852D813E81FC01318720878D81CF
S11309209E81FC01808121E0280F8D819E81FC0144
S11309302083000028960FB6F894DEBF0FBECDBF0B
S1130940DF91CF910895CF93DF9300D000D0CDB73E
S1130950DEB79C838B838B819C81FC018085918590
S11309609A8389838B819C81FC01828193812B8171
S11309703C81F90124813581FC01358324838B81F9
S11309809C81FC01848195812B813C81F901228128
S11309903381FC013383228389819A81FC01218183
S11309A032818B819C812817390751F48B819C817A
S11309B0FC012481358189819A81FC013283218360
S11309C08B819C81FC011186108689819A81FC01AE
S11309D080812FEF280F89819A81FC0120838981EE
S11309E09A81FC0180810F900F900F900F90DF91FE
S11309F0CF910895CF93DF93CDB7DEB728970FB685
S1130A00F894DEBF0FBECDBF9C838B837E836D8342
S1130A1058874F838B819C8121E1FC0120838B814A
S1130A209C8101979C838B838B819C8122E2FC01B6
S1130A3020838B819C8101979C838B838B819C81F8
S1130A4023E3FC0120838B819C8101979C838B830E
S1130A508D819E819A83898329818B819C81FC016C
S1130A6020838B819C8101979C838B8389819A81CC
S1130A70892F99279A83898329818B819C81FC0101
S1130A8020838B819C8101979C838B838B819C81A8
S1130A90FC0110828B819C8101979C838B838B81C9
S1130AA09C8120E8FC0120838B819C8101979C839D
S1130AB08B838B819C81FC0110828B819C810197AB
S1130AC09C838B838B819C8122E0FC0120838B811E
S1130AD09C8101979C838B838B819C8123E0FC0107
S1130AE020838B819C8101979C838B838B819C8148
S1130AF024E0FC0120838B819C8101979C838B8360
S1130B008B819C8125E0FC0120838B819C81019752
S1130B109C838B838B819C8126E0FC0120838B81C9
S1130B209C8101979C838B838B819C8127E0FC01B2
S1130B3020838B819C8101979C838B838B819C81F7
S1130B4028E0FC0120838B819C8101979C838B830B
S1130B508B819C8129E0FC0120838B819C810197FE
S1130B609C838B838B819C8120E1FC0120838B817E
S1130B709C8101979C838B838B819C8121E1FC0167
S1130B8020838B819C8101979C838B838B819C81A7
S1130B9022E1FC0120838B819C8101979C838B83C0
S1130BA08B819C8123E1FC0120838B819C810197B3
S1130BB09C838B838B819C8124E1FC0120838B812A
S1130BC09C8101979C838B838B819C8125E1FC0113
S1130BD020838B819C8101979C838B838B819C8157
S1130BE026E1FC0120838B819C8101979C838B836C
S1130BF08B819C8127E1FC0120838B819C8101975F
S1130C009C838B838B819C8128E1FC0120838B81D5
S1130C109C8101979C838B838B819C8129E1FC01BE
S1130C2020838B819C8101979C838B838B819C8106
S1130C3020E2FC0120838B819C8101979C838B8320
S1130C408B819C8121E2FC0120838B819C81019713
S1130C509C838B838B819C8122E2FC0120838B818A
S1130C609C8101979C838B838B819C8123E2FC0173
S1130C7020838B819C8101979C838B838F819885B2
S1130C809A83898329818B819C81FC0120838B81B8
S1130C909C8101979C838B8389819A81892F9927D1
S1130CA09A83898329818B819C81FC0120838B8198
S1130CB09C8101979C838B838B819C8126E2FC0120
S1130CC020838B819C8101979C838B838B819C8166
S1130CD027E2FC0120838B819C8101979C838B8379
S1130CE08B819C8128E2FC0120838B819C8101976C
S1130CF09C838B838B819C8129E2FC0120838B81E3
S1130D009C8101979C838B838B819C8120E3FC01D4
S1130D1020838B819C8101979C838B838B819C8115
S1130D2021E3FC0120838B819C8101979C838B832D
S1130D308B819C8128960FB6F894DEBF0FBECDBF81
S1130D40DF91CF910895CF93DF93CDB7DEB70E94A3
S1130D509007A091F206B091F306CD91CDBFDD913D
S1130D60DEBFFF91EF91DF91CF91BF91AF919F9142
S1130D708F917F916F915F914F913F912F911F912F
S1130D800F91FF90EF90DF90CF90BF90AF909F9026
S1130D908F907F906F905F904F903F902F901F9017
S1130DA00F900FBE0F90089581E0DF91CF910895C9
S1130DB00F920FB6F8940F921F9211242F923F9224
S1130DC04F925F926F927F928F929F92AF92BF9257
S1130DD0CF92DF92EF92FF920F931F932F933F9343
S1130DE04F935F936F937F938F939F93AF93BF932F
S1130DF0CF93DF93EF93FF93A091F206B091F306A4
S1130E000DB60D920EB60D920E94120CA091F20630
S1130E10B091F306CD91CDBFDD91DEBFFF91EF918F
S1130E20DF91CF91BF91AF919F918F917F916F91FE
S1130E305F914F913F912F911F910F91FF90EF90F0
S1130E40DF90CF90BF90AF909F908F907F906F90E6
S1130E505F904F903F902F901F900F900FBE0F9078
S1130E60089500000F920FB6F8940F921F92112468
S1130E702F923F924F925F926F927F928F929F92A6
S1130E80AF92BF92CF92DF92EF92FF920F931F9394
S1130E902F933F934F935F936F937F938F939F937E
S1130EA0AF93BF93CF93DF93EF93FF93A091F20699
S1130EB0B091F3060DB60D920EB60D920E94250B5D
S1130EC0882311F00E94120CA091F206B091F3064F
S1130ED0CD91CDBFDD91DEBFFF91EF91DF91CF9139
S1130EE0BF91AF919F918F917F916F915F914F913E
S1130EF03F912F911F910F91FF90EF90DF90CF9032
S1130F00BF90AF909F908F907F906F905F904F9025
S1130F103F902F901F900F900FBE0F9008950000E8
S1130F20CF93DF9300D000D000D0CDB7DEB780E4FC
S1130F309FE1A0E0B0E089839A83AB83BC8389817D
S1130F409A81AB81BC81689415F8B695A79597955D
S1130F5087951694D1F789839A83AB83BC8389815F
S1130F609A81AB81BC810197A109B10989839A83D4
S1130F70AB83BC8389818D8389819A81AB81BC8158
S1130F80892F9A2FAB2FBB2789839A83AB83BC838A
S1130F9089818E838BE490E02E81FC0120838AE496
S1130FA090E02D81FC0120838BE08D838EE490E022
S1130FB02D81FC01208389E590E0FC0180818D83F3
S1130FC08D8180618D8389E590E02D81FC012083F2
S1130FD0000026960FB6F894DEBF0FBECDBFDF919A
S1130FE0CF9108950E943207189500008F929F9226
S1130FF0AF92BF92CF92DF92EF92FF920F931F9323
S1131000CF93DF93CDB7DEB760970FB6F894DEBF0A
S11310100FBECDBF9F838E83798768875B874A879E
S11310203D872C870E87F88AEF868A859B850E94E8
S113103032039D838C838C819D81892BB9F086E258
S113104090E00E9432039A83898389819A81892B53
S113105041F089819A812C813D81FC01308F278B5D
S113106007C08C819D810E94870302C01A82198265
S113107089819A81892B09F18A859B85CC01A0E01D
S1131080B0E009811A814F8558892C853D85688592
S11310907985EE81FF81812C912C58016A01EE84BF
S11310A089019C01AD01CF010E94730889819A8155
S11310B00E943E0981E08B8302C08FEF8B838B817A
S11310C060960FB6F894DEBF0FBECDBFDF91CF910F
S11310D01F910F91FF90EF90DF90CF90BF90AF9052
S11310E09F908F9008958F929F92AF92BF92CF92CC
S11310F0DF92EF920F931F93CF93DF93CDB7DEB7B9
S113110064970FB6F894DEBF0FBECDBF9D838C836A
S11311107F836E83288739874A875B871D870C877F
S1131120EE86D88ACF86BA8AA98A9C8A8B8A8989CC
S11311309A89FC012789308D888599850197820FCA
S1131140931F9B838A838E819F81892B69F11982E6
S113115021C08981882F90E02981222F30E04E819F
S11311605F81240F351FF901408129893A89820F53
S1131170931F4996FC0140838981882F90E02E813A
S11311803F81820F931FFC018081882339F089817C
S11311908F5F898389818830E0F201C000008989EA
S11311A09A89FC0110A204C089899A89FC01118ED4
S11311B08E85843010F083E08E8789899A892E8504
S11311C0FC01268B89899A8902960E94CA0389891F
S11311D09A890C960E94CA0389899A8929893A892D
S11311E0FC01318720878E85882F90E024E030E051
S11311F0281B390B89899A89FC01358724878989B9
S11312009A8929893A89FC01338B228B89899A89A5
S1131210FC0111A212A213A214A289899A89FC01C9
S113122015A24C855D852C813D818A819B81B90104
S11312300E94FA049C0189899A89FC0131832083E4
S11312408F859889892B39F08F85988929893A89DE
S1131250FC0131832083000064960FB6F894DEBF4E
S11312600FBECDBFDF91CF911F910F91EF90DF9013
S1131270CF90BF90AF909F908F900895CF93DF93BE
S113128000D0CDB7DEB79A8389830FB6F8940F9256
S113129080914A078F5F80934A078091F20690916C
S11312A0F306892B69F489819A819093F3068093DC
S11312B0F20680914A078130C9F40E94900C16C04E
S11312C080914E07882391F48091F2069091F30661
S11312D0FC01268989819A81FC018689821730F074
S11312E089819A819093F3068093F2068091520744
S11312F08F5F8093520789819A81FC01968980913E
S11313004D07891730F489819A81FC01868980937D
S11313104D0789819A81AC014E5F5F4F89819A8123
S1131320FC018689282F30E0C901880F991F880F96
S1131330991F880F991F820F931F8C50994FBA01E0
S11313400E94DC030F900FBE80914E07882371F03A
S11313508091F2069091F306FC01268989819A8195
S1131360FC018689281710F40E94D80600000F900B
S11313700F90DF91CF910895CF93DF9300D01F9208
S1131380CDB7DEB79B838A8319828A819B81892B9F
S113139051F00E94810A8A819B8160E00E944A0D7B
S11313A00E948E0A89838981882311F40E94D806B9
S11313B000000F900F900F90DF91CF910895CF937D
S11313C0DF9300D000D0CDB7DEB79C838B830FB6FC
S11313D0F8940F928B819C81892B29F48091F206D9
S11313E09091F30602C08B819C819A8389838981C1
S11313F09A8102960E94A30489819A81FC018489BE
S11314009589892B29F089819A810C960E94A304DD
S113141089819A810296BC0181E497E00E94DC03F1
S113142089819A81FC0185A1813021F489819A8185
S1131430FC0115A20F900FBE80914E07882339F04E
S11314400FB6F8940F920E941B0D0F900FBE80915F
S1131450F2069091F30629813A8128173907A1F4FD
S113146080914E07882319F00E94D8060DC09091F0
S1131470410780914A07981729F41092F3061092B5
S1131480F20602C00E94120C00000F900F900F9001
S11314900F90DF91CF910895EF92FF920F93CF9326
S11314A0DF931F92CDB7DEB70F2EF5E5EF2EF7E0F1
S11314B0FF2EF02D00E020E030E045E550E06EEF37
S11314C070E086E89CE00E94F60789838981813078
S11314D081F4F8948FEF9FEF909354078093530710
S11314E081E080934E0710924C0710924B070E94A4
S11314F0A30600000F90DF91CF910F91FF90EF9022
S11315000895CF93DF93CDB7DEB7809157078F5FF0
S1131510809357070000DF91CF910895CF93DF9315
S113152000D000D0CDB7DEB71A8219821B820FB665
S1131530F8940F92809157078150809357078091B8
S11315405707882309F077C080914A07882309F454
S113155072C049C08091330790913407FC018681A1
S113156097819A83898389819A810C960E94A30426
S113157089819A8102960E94A30489819A81FC013F
S1131580968980914D07891730F489819A81FC01ED
S1131590868980934D0789819A81AC014E5F5F4FA4
S11315A089819A81FC018689282F30E0C901880F3E
S11315B0991F880F991F880F991F820F931F8C50B2
S11315C0994FBA010E94DC0389819A81FC01268922
S11315D08091F2069091F306FC018689281718F091
S11315E081E08093500780912E07882309F0B2CFC1
S11315F089819A81892B11F00E941B0D80914F07DC
S11316008C838C81882379F00E94250B882319F020
S113161081E0809350078C8181508C838C81882356
S113162099F710924F0780915007882321F081E0A9
S11316308B830E94D8060F900FBE8B810F900F9062
S11316400F900F90DF91CF910895CF93DF93CDB793
S1131650DEB729970FB6F894DEBF0FBECDBF19824F
S113166080915707882309F0C8C080914B07909157
S11316704C0701969B838A838A819B8190934C07B4
S113168080934B078A819B81892BD9F480912A0707
S113169090912B079D838C8380912C0790912D072B
S11316A090932B0780932A078C819D8190932D071B
S11316B080932C07809151078F5F809351070E947C
S11316C01B0D80915307909154072A813B81281761
S11316D0390708F478C080912A0790912B07FC0100
S11316E08081882339F48FEF9FEF90935407809380
S11316F0530769C080912A0790912B07FC018581CB
S11317009681FC01868197819F838E838E819F8140
S1131710FC0182819381998788872A813B8188850E
S113172099852817390738F4888599859093540743
S11317308093530748C08E819F8102960E94A30420
S11317408E819F81FC0184899589892B29F08E8162
S11317509F810C960E94A3048E819F81FC0196892F
S113176080914D07891730F48E819F81FC01868911
S113177080934D078E819F81AC014E5F5F4F8E81B8
S11317809F81FC018689282F30E0C901880F991FA9
S1131790880F991F880F991F820F931F8C50994FA0
S11317A0BA010E94DC038E819F81FC01268980910D
S11317B0F2069091F306FC018689281708F48BCF72
S11317C081E0898388CF8091F2069091F306FC0131
S11317D08689282F30E0C901880F991F880F991F27
S11317E0880F991F820F931F8C50994FFC018081A1
S11317F0823040F081E0898305C080914F078F5F7C
S113180080934F0780915007882311F081E08983EA
S1131810898129960FB6F894DEBF0FBECDBFDF9144
S1131820CF910895CF93DF9300D01F92CDB7DEB749
S113183080915707882321F081E0809350075FC08F
S11318401092500780914D07898303C0898181508C
S113185089838981282F30E0C901880F991F880F57
S1131860991F880F991F820F931F8C50994FFC0169
S11318708081882359F38981282F30E0C901880F9A
S1131880991F880F991F880F991F820F931F8C50DF
S1131890994F9B838A838A819B81FC0181819281F8
S11318A0FC01228133818A819B81FC013283218363
S11318B08A819B81FC01218132818A819B810396EB
S11318C02817390769F48A819B81FC0181819281FF
S11318D0FC01228133818A819B81FC013283218333
S11318E08A819B81FC0181819281FC01868197819F
S11318F09093F3068093F206898180934D0700004C
S11319000F900F900F90DF91CF910895CF93DF93B5
S113191000D0CDB7DEB79A8389830E94D20CFDCF65
S1131920CF93DF931F92CDB7DEB7198213C089819D
S1131930282F30E0C901880F991F880F991F880F3D
S1131940991F820F931F8C50994F0E949403898191
S11319508F5F89838981843050F388E197E00E9406
S1131960940381E297E00E9494038EE297E00E9440
S1131970940387E397E00E94940381E497E00E9434
S1131980940388E197E090932B0780932A0781E2E0
S113199097E090932D0780932C0700000F90DF9120
S11319A0CF910895CF93DF9300D0CDB7DEB721C098
S11319B00FB6F8940F9280913C0790913D07FC017B
S11319C0868197819A83898389819A8102960E946C
S11319D0A30480914A07815080934A07809140076D
S11319E08150809340070F900FBE89819A810E9495
S11319F0030D809140078823D9F600000F900F90C3
S1131A00DF91CF910895CF93DF9300D0CDB7DEB7A8
S1131A109A83898389819A81FC018789908D0E94A8
S1131A20870389819A810E94870300000F900F9099
S1131A30DF91CF910895CF93DF9300D0CDB7DEB778
S1131A4080912A0790912B07FC018081882339F427
S1131A508FEF9FEF909354078093530715C08091A5
S1131A602A0790912B07FC0185819681FC018681D0
S1131A7097819A83898389819A81FC0182819381E8
S1131A80909354078093530700000F900F90DF91B9
S1131A90CF910895CF93DF93CDB7DEB727970FB6D5
S1131AA0F894DEBF0FBECDBF9E838D836F8380917C
S1131AB04B0790914C079A8389838091F206909109
S1131AC0F30602960E94A3048D819E81019671F40F
S1131AD08F81882359F08091F2069091F306029643
S1131AE0BC0181E497E00E94DC0344C029813A816F
S1131AF08D819E81820F931F9C838B838091F2063C
S1131B009091F3062B813C81FC01338322832B814A
S1131B103C8189819A812817390778F48091F206EB
S1131B209091F3069C012E5F3F4F80912C0790917A
S1131B302D07B9010E942B041DC08091F2069091DB
S1131B40F3069C012E5F3F4F80912A0790912B074B
S1131B50B9010E942B0480915307909154072B8163
S1131B603C812817390730F48B819C81909354076A
S1131B7080935307000027960FB6F894DEBF0FBE7C
S1131B80CDBFDF91CF910895CF93DF9300D0CDB730
S1131B90DEB789836A838981882F90E0813091053B
S1131BA091F0823091051CF4892B39F01EC08230EB
S1131BB0910579F0039799F018C08AE390E02A819F
S1131BC0FC01208312C087E390E02A81FC0120837A
S1131BD00CC084E390E02A81FC01208306C081E3E9
S1131BE090E02A81FC012083000000000F900F90F8
S1131BF0DF91CF910895CF93DF9300D01F92CDB79B
S1131C00DEB789836A834B838981882F90E0813092
S1131C10910581F1823091051CF4892B49F090C023
S1131C208230910509F448C0039709F467C088C05D
S1131C308B81882F90E0009721F08F3F910571F000
S1131C407FC08AE390E02AE330E0F9012081322F5B
S1131C502A8120952323FC0120830BC08AE390E092
S1131C602AE330E0F90130812A81232BFC0120830F
S1131C70000066C08B81882F90E0009721F08F3F91
S1131C80910571F05DC087E390E027E330E0F9014E
S1131C902081322F2A8120952323FC0120830BC02D
S1131CA087E390E027E330E0F90130812A81232B98
S1131CB0FC012083000044C08B81882F90E00097B2
S1131CC021F08F3F910571F03BC084E390E024E361
S1131CD030E0F9012081322F2A8120952323FC0151
S1131CE020830BC084E390E024E330E0F9013081E9
S1131CF02A81232BFC012083000022C08B81882FA2
S1131D0090E0009721F08F3F910571F018C081E3B6
S1131D1090E021E330E0F9012081322F2A812095DF
S1131D202323FC0120830BC081E390E021E330E016
S1131D30F90130812A81232BFC012083000000005B
S1131D4000000F900F900F90DF91CF910895CF93E3
S1131D50DF9300D01F92CDB7DEB789836A834B83AC
S1131D608B81882F90E0009709F442C0019709F015
S1131D7086C08981882F90E081309105B9F0823046
S1131D8091051CF4892B39F07AC082309105C9F091
S1131D90039711F174C08BE390E02BE330E0F90179
S1131DA030812A81232BFC01208321C088E390E029
S1131DB028E330E0F90130812A81232BFC012083C0
S1131DC016C085E390E025E330E0F90130812A81F3
S1131DD0232BFC0120830BC082E390E022E330E05C
S1131DE0F90130812A81232BFC012083000047C0A4
S1131DF08981882F90E081309105C9F08230910566
S1131E001CF4892B39F03AC082309105E9F003972C
S1131E1041F134C08BE390E02BE330E0F901208101
S1131E20322F2A8120952323FC01208327C088E3B5
S1131E3090E028E330E0F9012081322F2A812095B7
S1131E402323FC0120831AC085E390E025E330E0DE
S1131E50F9012081322F2A8120952323FC0120833C
S1131E600DC082E390E022E330E0F9012081322FBB
S1131E702A8120952323FC01208300000000000018
S1131E800F900F900F90DF91CF910895CF93DF9330
S1131E9000D0CDB7DEB789836A838981882F90E02B
S1131EA081309105B9F0823091051CF4892B39F009
S1131EB032C082309105C9F0039711F12CC08BE335
S1131EC090E02BE330E0F90130812A812327FC01E3
S1131ED0208321C088E390E028E330E0F9013081D9
S1131EE02A812327FC01208316C085E390E025E3A3
S1131EF030E0F90130812A812327FC0120830BC0C3
S1131F0082E390E022E330E0F90130812A81232743
S1131F10FC012083000000000F900F90DF91CF910F
S1091F200895F894FFCFC0
S1131F26416D6D6172000000000057616C6C656460
S1131F36000000004D6F68616D6564000000596122
S1131F4673656E00000000004D6F73746166610076
S1131F5600004D6F68616D6564000000416D72009C
S1131F660000000000004D617A656E00000000006C
S1131F764F736D616E00000000004D61796572005B
S1131F8600000000496E697469616C697A6174695C
S1131F966F6E205461736B004C63642044697370E4
S1131FA66C6179696E67205461736B004C656420BB
S1131FB6506C696E6B696E67205461736B0049449B
S1071FC64C45000082
S9030000FC
