S00F0000537072696E74312E7372656364
S11300000C942A000C9447000C9447000C9447006D
S11300100C9447000C9447000C9447000C94D707A9
S11300200C9447000C9447000C9447000C94470030
S11300300C9447000C9447000C9447000C94470020
S11300400C9447000C9447000C9447000C94470010
S11300500C94470011241FBECFE5D8E0DEBFCDBF0E
S113006010E0A0E6B0E0E0EFFEE102C005900D92E2
S1130070A43FB107D9F727E0A4EFB0E001C01D9277
S1130080A534B207E1F70E94CF000C94760F0C94CC
S11300900000CF93DF9300D0CDB7DEB79A83898376
S11300A080E10E949B0280E20E949B0280E40E9405
S11300B09B020E94AF018091F4009091F5000E9490
S11300C0C409EECFCF93DF93CDB7DEB7C756D109BE
S11300D00FB6F894DEBF0FBECDBF9E012A593F4F25
S11300E0F90191838083198284E6E0E6F0E0DE0181
S11300F0129601900D928A95E1F760E080E00E94EB
S113010084028981882F90E09E012E5F3F4F880FE3
S1130110991FAC01440F551F440F551F840F951FA1
S1130120820F931F0E944B0289818F5F898389818B
S11301308B3018F019820E9479028CED95E00E94B0
S1130140A109DBCFCF93DF9300D0CDB7DEB79A837D
S1130150898380E10E94E50284E690E00E94A1097F
S1130160F8CFCF93DF9300D0CDB7DEB79A838983DE
S113017080E20E94E50284EF91E00E94A109F8CF99
S1130180CF93DF9300D0CDB7DEB79A83898380E421
S11301900E94E50288EE93E00E94A109F8CFEF9255
S11301A0FF920F93CF93DF931F92CDB7DEB71982DF
S11301B00F2EF4EFEF2EF0E0FF2EF02D04E020E000
S11301C030E04CE251E064EC70E089E490E00E949D
S11301D0DB0789830F2EF6EFEF2EF0E0FF2EF02DD4
S11301E003E020E030E04CE251E068ED70E082E6AC
S11301F090E00E94DB0789830F2EF8EFEF2EF0E0EA
S1130200FF2EF02D02E020E030E042E350E06CED00
S113021070E082EA90E00E94DB0789830F2EFAEFF8
S1130220EF2EF0E0FF2EF02D02E020E030E042E37C
S113023050E06CED70E081EB90E00E94DB07898375
S11302400F2EFCEFEF2EF0E0FF2EF02D02E020E069
S113025030E042E350E06CED70E080EC90E00E940E
S1130260DB0789830E94310A80E090E00F90DF91E0
S1130270CF910F91FF90EF900895CF93DF931F924A
S1130280CDB7DEB7898340E062E080E00E948C0E47
S113029040E064E080E00E948C0E8981881F8827FA
S11302A0881F482F60E880E00E948C0E8981829527
S11302B08695869583708170482F60E480E00E9463
S11302C08C0E89818295869587708170482F60E2B3
S11302D080E00E948C0E898182958F708170482FF6
S11302E060E180E00E948C0E41E068E080E00E94C2
S11302F08C0E40E068E080E00E948C0E8981869537
S1130300869586958170482F60E880E00E948C0E67
S11303108981869586958170482F60E480E00E94EB
S11303208C0E898186958170482F60E280E00E945E
S11303308C0E89818170482F60E180E00E948C0ED0
S113034041E068E080E00E948C0E40E068E080E0DC
S11303500E948C0E00000F90DF91CF910895CF93EF
S1130360DF931F92CDB7DEB719828091FE008823F8
S1130370A1F46FEF80E00E94A90D82E00E943D018C
S113038088E20E943D018EE00E943D0186E00E94C9
S11303903D0181E08093FE0002C083E0898389816E
S11303A00F90DF91CF910895CF93DF931F92CDB734
S11303B0DEB789838091FE00813009F067C041E097
S11303C062E080E00E948C0E40E064E080E00E94E5
S11303D08C0E8981881F8827881F482F60E880E059
S11303E00E948C0E89818295869586958370817092
S11303F0482F60E480E00E948C0E89818295869566
S113040087708170482F60E280E00E948C0E8981A1
S113041082958F708170482F60E180E00E948C0E7D
S113042041E068E080E00E948C0E40E068E080E0FB
S11304300E948C0E89818695869586958170482FB9
S113044060E880E00E948C0E898186958695817093
S1130450482F60E480E00E948C0E8981869581702B
S1130460482F60E280E00E948C0E89818170482FC1
S113047060E180E00E948C0E41E068E080E00E9430
S11304808C0E40E068E080E00E948C0E00000F902B
S1130490DF91CF910895CF93DF9300D01F92CDB712
S11304A0DEB79B838A8319828091FE008130D1F468
S11304B00EC08981882F90E02A813B81820F931F8F
S11304C0FC0180810E94D40189818F5F89838981A5
S11304D0882F90E02A813B81820F931FFC01808149
S11304E0882339F700000F900F900F90DF91CF9180
S11304F00895CF93DF93CDB7DEB781E00E943D012D
S11305000000DF91CF910895CF93DF9300D0CDB752
S1130510DEB789836A839981892F880F880F980FA2
S11305208A81890F80680E943D0100000F900F901E
S1130530DF91CF910895CF93DF931F92CDB7DEB7AC
S113054089838981882F90E080329105C1F08132BE
S113055091051CF4409741F033C080349105D1F0EB
S11305608038910511F12CC04FEF60E181E00E94C9
S1130570E00D40E060E181E00E948C0E21C04FEF6D
S113058060E281E00E94E00D40E060E281E00E94D0
S11305908C0E16C04FEF60E481E00E94E00D40E055
S11305A060E481E00E948C0E0BC04FEF60E881E0B4
S11305B00E94E00D40E060E881E00E948C0E0000A3
S11305C000000F90DF91CF910895CF93DF931F9296
S11305D0CDB7DEB789838981882F90E08032910579
S11305E091F0813291051CF4409741F01BC0803496
S11305F0910571F08038910581F014C060E181E0CB
S11306000E942B0F0FC060E281E00E942B0F0AC0F2
S113061060E481E00E942B0F05C060E881E00E9445
S11306202B0F000000000F90DF91CF910895CF931E
S1130630DF9300D000D0CDB7DEB79C838B831A82C2
S113064019820E94660A8091DD069091DE06892B4C
S113065031F480E091E09093DE068093DD062091F2
S1130660DB063091DC068B819C81820F931F8B3DCE
S1130670954038F52091DB063091DC068B819C8116
S1130680280F391F8091DB069091DC0682179307AF
S1130690C0F42091DD063091DE068091DB06909156
S11306A0DC06820F931F9A8389832091DB063091A5
S11306B0DC068B819C81820F931F9093DC068093D0
S11306C0DB060E94730A89819A810F900F900F9024
S11306D00F90DF91CF910895CF93DF9300D0CDB7E2
S11306E0DEB79A83898300000F900F90DF91CF913A
S11306F00895CF93DF9300D0CDB7DEB79A83898373
S113070089819A819C012D5F3F4F89819A81FC01E7
S11307103283218389819A812FEF3FEFFC01348357
S1130720238389819A819C012D5F3F4F89819A811E
S1130730FC013683258389819A819C012D5F3F4F7B
S113074089819A81FC013087278389819A81FC0100
S1130750108200000F900F90DF91CF910895CF93F6
S1130760DF9300D0CDB7DEB79A83898389819A81DC
S1130770FC011186108600000F900F90DF91CF913D
S11307800895CF93DF9300D000D000D0CDB7DEB76B
S11307909C838B837E836D838B819C81FC0181810F
S11307A092819A8389838D819E8129813A81FC017A
S11307B03383228389819A81FC01248135818D814F
S11307C09E81FC013583248389819A81FC01848183
S11307D095812D813E81FC013383228389819A8115
S11307E02D813E81FC01358324838D819E812B8163
S11307F03C81FC01318720878B819C81FC018081B5
S113080021E0280F8B819C81FC0120830000269627
S11308100FB6F894DEBF0FBECDBFDF91CF91089520
S1130820CF93DF93CDB7DEB728970FB6F894DEBF2A
S11308300FBECDBF9E838D8378876F838F8198850C
S1130840FC01808191819C838B838B819C810196A7
S113085041F48D819E81FC01878190859A838983EF
S11308601AC08D819E8103969A83898307C08981EA
S11308709A81FC01828193819A83898389819A81F7
S1130880FC0182819381FC01208131818B819C81D7
S11308908217930760F789819A81FC012281338151
S11308A08F819885FC01338322838F819885FC0195
S11308B0828193812F813885FC01358324838F8144
S11308C0988529813A81FC013583248389819A8121
S11308D02F813885FC01338322838F8198852D8174
S11308E03E81FC01318720878D819E81FC018081BE
S11308F021E0280F8D819E81FC0120830000289631
S11309000FB6F894DEBF0FBECDBFDF91CF9108952F
S1130910CF93DF9300D000D0CDB7DEB79C838B8319
S11309208B819C81FC01808591859A8389838B814D
S11309309C81FC01828193812B813C81F90124817A
S11309403581FC01358324838B819C81FC01848166
S113095095812B813C81F90122813381FC01338310
S1130960228389819A81FC01218132818B819C813E
S11309702817390751F48B819C81FC01248135812E
S113098089819A81FC01328321838B819C81FC01C2
S11309901186108689819A81FC0180812FEF280FAE
S11309A089819A81FC01208389819A81FC0180815B
S11309B00F900F900F900F90DF91CF910895CF93E8
S11309C0DF93CDB7DEB728970FB6F894DEBF0FBE1E
S11309D0CDBF9C838B837E836D8358874F838B81AC
S11309E09C8121E1FC0120838B819C8101979C8364
S11309F08B838B819C8122E2FC0120838B819C81EF
S1130A0001979C838B838B819C8123E3FC0120834E
S1130A108B819C8101979C838B838D819E819A839A
S1130A20898329818B819C81FC0120838B819C811A
S1130A3001979C838B8389819A81892F99279A8333
S1130A40898329818B819C81FC0120838B819C81FA
S1130A5001979C838B838B819C81FC0110828B8109
S1130A609C8101979C838B838B819C8120E8FC0172
S1130A7020838B819C8101979C838B838B819C81B8
S1130A80FC0110828B819C8101979C838B838B81D9
S1130A909C8122E0FC0120838B819C8101979C83B3
S1130AA08B838B819C8123E0FC0120838B819C813F
S1130AB001979C838B838B819C8124E0FC012083A0
S1130AC08B819C8101979C838B838B819C8125E006
S1130AD0FC0120838B819C8101979C838B838B8178
S1130AE09C8126E0FC0120838B819C8101979C835F
S1130AF08B838B819C8127E0FC0120838B819C81EB
S1130B0001979C838B838B819C8128E0FC0120834B
S1130B108B819C8101979C838B838B819C8129E0B1
S1130B20FC0120838B819C8101979C838B838B8127
S1130B309C8120E1FC0120838B819C8101979C8313
S1130B408B838B819C8121E1FC0120838B819C819F
S1130B5001979C838B838B819C8122E1FC01208300
S1130B608B819C8101979C838B838B819C8123E166
S1130B70FC0120838B819C8101979C838B838B81D7
S1130B809C8124E1FC0120838B819C8101979C83BF
S1130B908B838B819C8125E1FC0120838B819C814B
S1130BA001979C838B838B819C8126E1FC012083AC
S1130BB08B819C8101979C838B838B819C8127E112
S1130BC0FC0120838B819C8101979C838B838B8187
S1130BD09C8128E1FC0120838B819C8101979C836B
S1130BE08B838B819C8129E1FC0120838B819C81F7
S1130BF001979C838B838B819C8120E2FC01208361
S1130C008B819C8101979C838B838B819C8121E2C6
S1130C10FC0120838B819C8101979C838B838B8136
S1130C209C8122E2FC0120838B819C8101979C831F
S1130C308B838B819C8123E2FC0120838B819C81AB
S1130C4001979C838B838F8198859A8389832981DB
S1130C508B819C81FC0120838B819C8101979C83E7
S1130C608B8389819A81892F99279A838983298102
S1130C708B819C81FC0120838B819C8101979C83C7
S1130C808B838B819C8126E2FC0120838B819C8158
S1130C9001979C838B838B819C8127E2FC012083B9
S1130CA08B819C8101979C838B838B819C8128E21F
S1130CB0FC0120838B819C8101979C838B838B8196
S1130CC09C8129E2FC0120838B819C8101979C8378
S1130CD08B838B819C8120E3FC0120838B819C810D
S1130CE001979C838B838B819C8121E3FC0120836E
S1130CF08B819C8101979C838B838B819C8128961B
S1130D000FB6F894DEBF0FBECDBFDF91CF9108952B
S1130D10CF93DF93CDB7DEB70E947507A091DF06AE
S1130D20B091E006CD91CDBFDD91DEBFFF91EF9193
S1130D30DF91CF91BF91AF919F918F917F916F91EF
S1130D405F914F913F912F911F910F91FF90EF90E1
S1130D50DF90CF90BF90AF909F908F907F906F90D7
S1130D605F904F903F902F901F900F900FBE0F9069
S1130D70089581E0DF91CF9108950F920FB6F89412
S1130D800F921F9211242F923F924F925F926F9273
S1130D907F928F929F92AF92BF92CF92DF92EF9207
S1130DA0FF920F931F932F933F934F935F936F93F0
S1130DB07F938F939F93AF93BF93CF93DF93EF93DF
S1130DC0FF93A091DF06B091E0060DB60D920EB62A
S1130DD00D920E94F70BA091DF06B091E006CD9131
S1130DE0CDBFDD91DEBFFF91EF91DF91CF91BF9138
S1130DF0AF919F918F917F916F915F914F913F91AF
S1130E002F911F910F91FF90EF90DF90CF90BF90A3
S1130E10AF909F908F907F906F905F904F903F9096
S1130E202F901F900F900FBE0F90089500000F9207
S1130E300FB6F8940F921F9211242F923F924F9263
S1130E405F926F927F928F929F92AF92BF92CF9256
S1130E50DF92EF92FF920F931F932F933F934F9341
S1130E605F936F937F938F939F93AF93BF93CF932E
S1130E70DF93EF93FF93A091DF06B091E0060DB6E8
S1130E800D920EB60D920E940A0B882311F00E9457
S1130E90F70BA091DF06B091E006CD91CDBFDD91B7
S1130EA0DEBFFF91EF91DF91CF91BF91AF919F9101
S1130EB08F917F916F915F914F913F912F911F91EE
S1130EC00F91FF90EF90DF90CF90BF90AF909F90E5
S1130ED08F907F906F905F904F903F902F901F90D6
S1130EE00F900FBE0F9008950000CF93DF9300D0B2
S1130EF000D000D0CDB7DEB780E49FE1A0E0B0E041
S1130F0089839A83AB83BC8389819A81AB81BC81B9
S1130F10689415F8B695A795979587951694D1F783
S1130F2089839A83AB83BC8389819A81AB81BC8199
S1130F300197A109B10989839A83AB83BC83898111
S1130F408D8389819A81AB81BC81892F9A2FAB2FA4
S1130F50BB2789839A83AB83BC8389818E838BE48B
S1130F6090E02E81FC0120838AE490E02D81FC0135
S1130F7020838BE08D838EE490E02D81FC0120831F
S1130F8089E590E0FC0180818D838D8180618D8372
S1130F9089E590E02D81FC012083000026960FB6A0
S1130FA0F894DEBF0FBECDBFDF91CF9108950E94AC
S1130FB01707189500008F929F92AF92BF92CF921D
S1130FC0DF92EF92FF920F931F93CF93DF93CDB7EE
S1130FD0DEB760970FB6F894DEBF0FBECDBF9F8318
S1130FE08E83798768875B874A873D872C870E873E
S1130FF0F88AEF868A859B850E9417039D838C83DC
S11310008C819D81892BB9F086E290E00E941703C0
S11310109A83898389819A81892B41F089819A8174
S11310202C813D81FC01308F278B07C08C819D81F1
S11310300E946C0302C01A82198289819A81892BC9
S113104009F18A859B85CC01A0E0B0E009811A8171
S11310504F8558892C853D8568857985EE81FF818A
S1131060812C912C58016A01EE8489019C01AD0107
S1131070CF010E94580889819A810E94230981E046
S11310808B8302C08FEF8B838B8160960FB6F894AD
S1131090DEBF0FBECDBFDF91CF911F910F91FF90A7
S11310A0EF90DF90CF90BF90AF909F908F90089576
S11310B08F929F92AF92BF92CF92DF92EF920F9353
S11310C01F93CF93DF93CDB7DEB764970FB6F89431
S11310D0DEBF0FBECDBF9D838C837F836E83288745
S11310E039874A875B871D870C87EE86D88ACF8627
S11310F0BA8AA98A9C8A8B8A89899A89FC01278958
S1131100308D888599850197820F931F9B838A83ED
S11311108E819F81892B69F1198221C08981882F51
S113112090E02981222F30E04E815F81240F351F0A
S1131130F901408129893A89820F931F4996FC015C
S113114040838981882F90E02E813F81820F931FF5
S1131150FC018081882339F089818F5F89838981AB
S11311608830E0F201C0000089899A89FC0110A24C
S113117004C089899A89FC01118E8E85843010F00F
S113118083E08E8789899A892E85FC01268B89893B
S11311909A8902960E94AF0389899A890C960E94C3
S11311A0AF0389899A8929893A89FC013187208783
S11311B08E85882F90E024E030E0281B390B898944
S11311C09A89FC013587248789899A8929893A89EA
S11311D0FC01338B228B89899A89FC0111A212A20A
S11311E013A214A289899A89FC0115A24C855D85F4
S11311F02C813D818A819B81B9010E94DF049C017D
S113120089899A89FC01318320838F859889892B68
S113121039F08F85988929893A89FC0131832083A3
S1131220000064960FB6F894DEBF0FBECDBFDF9109
S1131230CF911F910F91EF90DF90CF90BF90AF901F
S11312409F908F900895CF93DF9300D0CDB7DEB7F2
S11312509A8389830FB6F8940F92809137078F5F32
S1131260809337078091DF069091E006892B69F41B
S113127089819A819093E0068093DF0680913707F5
S11312808130C9F40E94750C16C080913B078823F5
S113129091F48091DF069091E006FC012689898112
S11312A09A81FC018689821730F089819A81909312
S11312B0E0068093DF0680913F078F5F80933F07AE
S11312C089819A81FC01968980913A07891730F4C3
S11312D089819A81FC01868980933A0789819A8160
S11312E0AC014E5F5F4F89819A81FC018689282F6A
S11312F030E0C901880F991F880F991F880F991F23
S1131300820F931F8F51994FBA010E94C1030F900E
S11313100FBE80913B07882371F08091DF06909186
S1131320E006FC01268989819A81FC0186892817B7
S113133010F40E94BD0600000F900F90DF91CF9132
S11313400895CF93DF9300D01F92CDB7DEB79B8370
S11313508A8319828A819B81892B51F00E94660AB3
S11313608A819B8160E00E942F0D0E94730A898309
S11313708981882311F40E94BD0600000F900F900C
S11313800F90DF91CF910895CF93DF9300D000D0D9
S1131390CDB7DEB79C838B830FB6F8940F928B8105
S11313A09C81892B29F48091DF069091E00602C08C
S11313B08B819C819A83898389819A8102960E9478
S11313C0880489819A81FC0184899589892B29F073
S11313D089819A810C960E94880489819A81029657
S11313E0BC018EE297E00E94C10389819A81FC01CD
S11313F085A1813021F489819A81FC0115A20F9085
S11314000FBE80913B07882339F00FB6F8940F92F2
S11314100E94000D0F900FBE8091DF069091E006B0
S113142029813A8128173907A1F480913B07882341
S113143019F00E94BD060DC090912E0780913707C8
S1131440981729F41092E0061092DF0602C00E9459
S1131450F70B00000F900F900F900F90DF91CF913A
S11314600895EF92FF920F93CF93DF931F92CDB71E
S1131470DEB70F2EF2E4EF2EF7E0FF2EF02D00E0A2
S113148020E030E045E550E06EEE70E08BE69CE055
S11314900E94DB0789838981813081F4F8948FEF7E
S11314A09FEF909341078093400781E080933B072F
S11314B010923907109238070E94880600000F9096
S11314C0DF91CF910F91FF90EF900895CF93DF9329
S11314D0CDB7DEB7809144078F5F80934407000047
S11314E0DF91CF910895CF93DF9300D000D0CDB793
S11314F0DEB71A8219821B820FB6F8940F9280917C
S1131500440781508093440780914407882309F05D
S113151077C080913707882309F472C049C080914D
S1131520200790912107FC01868197819A83898302
S113153089819A810C960E94880489819A810296F5
S11315400E94880489819A81FC01968980913A07D6
S1131550891730F489819A81FC01868980933A073E
S113156089819A81AC014E5F5F4F89819A81FC0128
S11315708689282F30E0C901880F991F880F991F89
S1131580880F991F820F931F8F51994FBA010E94A0
S1131590C10389819A81FC0126898091DF0690919B
S11315A0E006FC018689281718F081E080933D0746
S11315B080911B07882309F0B2CF89819A81892BF6
S11315C011F00E94000D80913C078C838C8188234C
S11315D079F00E940A0B882319F081E080933D077B
S11315E08C8181508C838C81882399F710923C07DD
S11315F080913D07882321F081E08B830E94BD0602
S11316000F900FBE8B810F900F900F900F90DF9172
S1131610CF910895CF93DF93CDB7DEB729970FB657
S1131620F894DEBF0FBECDBF198280914407882392
S113163009F0C8C0809138079091390701969B83BF
S11316408A838A819B8190933907809338078A81A2
S11316509B81892BD9F480911707909118079D835A
S11316608C838091190790911A079093180780939F
S113167017078C819D8190931A0780931907809195
S11316803E078F5F80933E070E94000D80914007C4
S1131690909141072A813B812817390708F478C0C3
S11316A08091170790911807FC018081882339F4F1
S11316B08FEF9FEF909341078093400769C080911B
S11316C0170790911807FC0185819681FC0186819A
S11316D097819F838E838E819F81FC018281938178
S11316E0998788872A813B818885998528173907B6
S11316F038F488859985909341078093400748C0C2
S11317008E819F8102960E9488048E819F81FC01B4
S113171084899589892B29F08E819F810C960E945A
S113172088048E819F81FC01968980913A078917EC
S113173030F48E819F81FC01868980933A078E81E3
S11317409F81AC014E5F5F4F8E819F81FC01868932
S1131750282F30E0C901880F991F880F991F880F1F
S1131760991F820F931F8F51994FBA010E94C10391
S11317708E819F81FC0126898091DF069091E0068D
S1131780FC018689281708F48BCF81E0898388CFF0
S11317908091DF069091E006FC018689282F30E0D5
S11317A0C901880F991F880F991F880F991F820FED
S11317B0931F8F51994FFC018081823040F081E06A
S11317C0898305C080913C078F5F80933C0780919B
S11317D03D07882311F081E08983898129960FB61A
S11317E0F894DEBF0FBECDBFDF91CF910895CF93A4
S11317F0DF9300D01F92CDB7DEB7809144078823D2
S113180021F081E080933D075FC010923D078091F5
S11318103A07898303C08981815089838981282F6C
S113182030E0C901880F991F880F991F880F991FED
S1131830820F931F8F51994FFC018081882359F3A4
S11318408981282F30E0C901880F991F880F991FBB
S1131850880F991F820F931F8F51994F9B838A83FF
S11318608A819B81FC0181819281FC0122813381E7
S11318708A819B81FC01328321838A819B81FC01C3
S1131880218132818A819B8103962817390769F463
S11318908A819B81FC0181819281FC0122813381B7
S11318A08A819B81FC01328321838A819B81FC0193
S11318B081819281FC01868197819093E0068093D7
S11318C0DF06898180933A0700000F900F900F90F4
S11318D0DF91CF910895CF93DF9300D0CDB7DEB7DA
S11318E09A8389830E94B70CFDCFCF93DF931F9215
S11318F0CDB7DEB7198213C08981282F30E0C90122
S1131900880F991F880F991F880F991F820F931FA3
S11319108F51994F0E94790389818F5F89838981CF
S1131920843050F385E097E00E9479038EE097E0DD
S11319300E9479038BE197E00E94790384E297E0A7
S11319400E9479038EE297E00E94790385E097E094
S113195090931807809317078EE097E090931A07E7
S11319608093190700000F90DF91CF910895CF93D2
S1131970DF9300D0CDB7DEB721C00FB6F8940F9235
S11319808091290790912A07FC01868197819A8387
S1131990898389819A8102960E94880480913707FD
S11319A081508093370780912D07815080932D07B4
S11319B00F900FBE89819A810E94E80C80912D07B7
S11319C08823D9F600000F900F90DF91CF910895EE
S11319D0CF93DF9300D0CDB7DEB79A838983898113
S11319E09A81FC018789908D0E946C0389819A8178
S11319F00E946C0300000F900F90DF91CF91089527
S1131A00CF93DF9300D0CDB7DEB7809117079091C5
S1131A101807FC018081882339F48FEF9FEF90939E
S1131A2041078093400715C08091170790911807CC
S1131A30FC0185819681FC01868197819A83898343
S1131A4089819A81FC0182819381909341078093DB
S1131A50400700000F900F90DF91CF910895CF932E
S1131A60DF93CDB7DEB727970FB6F894DEBF0FBE6E
S1131A70CDBF9E838D836F83809138079091390702
S1131A809A8389838091DF069091E00602960E94F2
S1131A9088048D819E81019671F48F81882359F089
S1131AA08091DF069091E0060296BC018EE297E0F9
S1131AB00E94C10344C029813A818D819E81820F95
S1131AC0931F9C838B838091DF069091E0062B818A
S1131AD03C81FC01338322832B813C8189819A815F
S1131AE02817390778F48091DF069091E0069C016D
S1131AF02E5F3F4F8091190790911A07B9010E94F8
S1131B0010041DC08091DF069091E0069C012E5FB9
S1131B103F4F8091170790911807B9010E94100454
S1131B2080914007909141072B813C812817390708
S1131B3030F48B819C81909341078093400700008F
S1131B4027960FB6F894DEBF0FBECDBFDF91CF91BD
S1131B500895CF93DF9300D0CDB7DEB789836A832E
S1131B608981882F90E08130910591F08230910530
S1131B701CF4892B39F01EC08230910579F003974B
S1131B8099F018C08AE390E02A81FC01208312C0F6
S1131B9087E390E02A81FC0120830CC084E390E079
S1131BA02A81FC01208306C081E390E02A81FC01A4
S1131BB02083000000000F900F90DF91CF910895D3
S1131BC0CF93DF9300D01F92CDB7DEB789836A83AA
S1131BD04B838981882F90E08130910581F1823097
S1131BE091051CF4892B49F090C08230910509F4C9
S1131BF048C0039709F467C088C08B81882F90E0A0
S1131C00009721F08F3F910571F07FC08AE390E047
S1131C102AE330E0F9012081322F2A812095232301
S1131C20FC0120830BC08AE390E02AE330E0F90151
S1131C3030812A81232BFC012083000066C08B8124
S1131C40882F90E0009721F08F3F910571F05DC0DF
S1131C5087E390E027E330E0F9012081322F2A81E5
S1131C6020952323FC0120830BC087E390E027E326
S1131C7030E0F90130812A81232BFC01208300000C
S1131C8044C08B81882F90E0009721F08F3F91050D
S1131C9071F03BC084E390E024E330E0F90120815B
S1131CA0322F2A8120952323FC0120830BC084E357
S1131CB090E024E330E0F90130812A81232BFC01F8
S1131CC02083000022C08B81882F90E0009721F0B0
S1131CD08F3F910571F018C081E390E021E330E07B
S1131CE0F9012081322F2A8120952323FC012083AE
S1131CF00BC081E390E021E330E0F90130812A81D7
S1131D00232BFC0120830000000000000F900F90A3
S1131D100F90DF91CF910895CF93DF9300D01F925E
S1131D20CDB7DEB789836A834B838B81882F90E09C
S1131D30009709F442C0019709F086C08981882F71
S1131D4090E081309105B9F0823091051CF4892B23
S1131D5039F07AC082309105C9F0039711F174C04B
S1131D608BE390E02BE330E0F90130812A81232BCF
S1131D70FC01208321C088E390E028E330E0F901EE
S1131D8030812A81232BFC01208316C085E390E057
S1131D9025E330E0F90130812A81232BFC012083E3
S1131DA00BC082E390E022E330E0F90130812A8124
S1131DB0232BFC012083000047C08981882F90E0F9
S1131DC081309105C9F0823091051CF4892B39F0DA
S1131DD03AC082309105E9F0039741F134C08BE3B6
S1131DE090E02BE330E0F9012081322F2A81209505
S1131DF02323FC01208327C088E390E028E330E01C
S1131E00F9012081322F2A8120952323FC0120838C
S1131E101AC085E390E025E330E0F9012081322FF8
S1131E202A8120952323FC0120830DC082E390E0C6
S1131E3022E330E0F9012081322F2A8120952323E7
S1131E40FC0120830000000000000F900F900F9011
S1131E50DF91CF910895CF93DF9300D0CDB7DEB754
S1131E6089836A838981882F90E081309105B9F054
S1131E70823091051CF4892B39F032C082309105EF
S1131E80C9F0039711F12CC08BE390E02BE330E011
S1131E90F90130812A812327FC01208321C088E3B2
S1131EA090E028E330E0F90130812A812327FC0106
S1131EB0208316C085E390E025E330E0F90130810A
S1131EC02A812327FC0120830BC082E390E022E3D4
S1131ED030E0F90130812A812327FC0120830000AE
S1131EE000000F900F90DF91CF910895F894FFCFE9
S1131EF0416D7200000000000000416D6D617200D0
S1131F0000000000596173656E00000000004D611F
S1131F107A656E00000000004F736D616E00000072
S1131F2000004D61796572000000000057616C6C1F
S1131F306564000000004D6F68616D656400000019
S1131F404D6F73746166610000004D6F68616D656B
S1131F5064000000496E697469616C697A6174692E
S1131F606F6E205461736B004C6364004C65642095
S1131F70506C696E6B696E67205461736B004944E1
S1071F804C450000C8
S9030000FC
