S00F0000537072696E74312E7372656364
S11300000C942A000C9447000C9447000C9447006D
S11300100C9447000C9447000C9447000C940F096F
S11300200C9447000C9447000C9447000C94470030
S11300300C9447000C9447000C9447000C94470020
S11300400C9447000C9447000C9447000C94470010
S11300500C94470011241FBECFE5D8E0DEBFCDBF0E
S113006011E0A0E6B0E0E4E5F1E302C005900D92F2
S1130070A634B107D9F727E0A6E4B1E001C01D9288
S1130080A73AB207E1F70E94F1010C94A8180C9466
S11300900000CF93DF9300D0CDB7DEB79A83898376
S11300A080914801909149010E94930F80914A01E7
S11300B090914B010E94930F81E00E945E0A9093FD
S11300C04D0180934C0180E10E94990380E20E94DB
S11300D099030E94AD0280914801909149010E94C8
S11300E0301080914A0190914B010E943010809110
S11300F04601909147010E94930FE5CFCF93DF9380
S1130100CDB7DEB7C856D1090FB6F894DEBF0FBE1F
S1130110CDBF9E0129593F4FF901918380831982F4
S11301201A8284E6E0E6F0E0DE01139601900D9277
S11301308A95E1F780914C0190914D01892BD1F37F
S11301408A81882351F480914C0190914D0160E0A3
S113015070E00E942F0B8130C1F580E10E94E3031F
S113016081E08A8360E080E00E9482038981882F95
S113017090E09E012D5F3F4F880F991FAC01440F03
S1130180551F440F551F840F951F820F931F0E9404
S1130190490389818F5F898389818B30B0F019820B
S11301A01A820E94770380E10E94190480914C0115
S11301B090914D0120E040E050E060E070E00E944A
S11301C07E0A84EF91E00E94700F84EF91E00E9418
S11301D0700FB0CFCF93DF93CDB7DEB7C856D10938
S11301E00FB6F894DEBF0FBECDBF9E0129593F4F15
S11301F0F9019183808319821A8224E6CE01039641
S1130200FC01322F11923A95E9F786E0E4ECF0E034
S1130210DE01139601900D928A95E1F724E0CE0158
S11302200996FC01322F11923A95E9F786E0EEEC3B
S1130230F0E0DE011D9601900D928A95E1F724E02D
S1130240CE014396FC01322F11923A95E9F786E0EC
S1130250E8EDF0E0DE01579601900D928A95E1F702
S113026024E0CE014D96FC01322F11923A95E9F724
S113027086E0E2EEF0E0DE01919601900D928A951F
S1130280E1F724E0CE018796FC01322F11923A95D2
S1130290E9F786E0ECEEF0E0DE019B9601900D922A
S11302A08A95E1F724E0CE01C196FC01322F119228
S11302B03A95E9F786E0E6EFF0E0DE01D5960190A5
S11302C00D928A95E1F724E0CE01CB96FC01322F02
S11302D011923A95E9F786E0E0E0F1E0DE01DF967D
S11302E001900D928A95E1F7CE018B5B9F4F24E03C
S11302F0FC01322F11923A95E9F7CE01875B9F4FAB
S113030026E0EAE0F1E0DC0101900D922A95E1F7A4
S113031024E00696FC01322F11923A95E9F7CE01BA
S11303208D5A9F4F26E0E4E1F1E0DC0101900D924B
S11303302A95E1F724E00696FC01322F11923A95B2
S1130340E9F780914C0190914D01892BD1F38A8179
S1130350882351F480914C0190914D0160E070E04C
S11303600E942F0B8130C1F580E20E94E30381E0FB
S11303708A8360E080E00E9482038981882F90E074
S11303809E012D5F3F4F880F991FAC01440F551FED
S1130390440F551F840F951F820F931F0E9449031A
S11303A089818F5F898389818B30B0F019821A82A9
S11303B00E94770380E20E94190480914C0190917D
S11303C04D0120E040E050E060E070E00E947E0AD1
S11303D088EE93E00E94700F88EE93E00E94700F05
S11303E0B0CFEF92FF920F93CF93DF931F92CDB7CD
S11303F0DEB719820F2EF6E4EF2EF1E0FF2EF02D7A
S113040004E020E030E044E650E06EE171E089E48D
S113041090E00E94A10D89830F2EF8E4EF2EF1E005
S1130420FF2EF02D02E020E030E040E951E062E3ED
S113043071E08EE790E00E94A10D89830F2EFAE40B
S1130440EF2EF1E0FF2EF02D01E020E030E040E956
S113045051E069E371E08AEE90E00E94A10D898386
S11304600E94981080E090E00F90DF91CF910F915F
S1130470FF90EF900895CF93DF931F92CDB7DEB72F
S1130480898340E062E080E00E94001840E064E07C
S113049080E00E9400188981881F8827881F482FC0
S11304A060E880E00E94001889818295869586958F
S11304B083708170482F60E480E00E940018898175
S11304C08295869587708170482F60E280E00E9453
S11304D00018898182958F708170482F60E180E0D7
S11304E00E94001841E068E080E00E94001840E0AB
S11304F068E080E00E94001889818695869586953B
S11305008170482F60E880E00E94001889818695F8
S113051086958170482F60E480E00E9400188981EC
S113052086958170482F60E280E00E9400188981DE
S11305308170482F60E180E00E94001841E068E08B
S113054080E00E94001840E068E080E00E9400180B
S113055000000F90DF91CF910895CF93DF931F9206
S1130560CDB7DEB7198280914E018823A1F46FEFD5
S113057080E00E941D1782E00E943B0288E20E94F4
S11305803B028EE00E943B0286E00E943B0281E037
S113059080934E0102C083E0898389810F90DF91AB
S11305A0CF910895CF93DF931F92CDB7DEB78983A0
S11305B080914E01813009F067C041E062E080E043
S11305C00E94001840E064E080E00E9400188981E5
S11305D0881F8827881F482F60E880E00E94001841
S11305E0898182958695869583708170482F60E411
S11305F080E00E94001889818295869587708170B9
S1130600482F60E280E00E940018898182958F70F3
S11306108170482F60E180E00E94001841E068E0AA
S113062080E00E94001840E068E080E00E9400182A
S113063089818695869586958170482F60E880E04B
S11306400E9400188981869586958170482F60E400
S113065080E00E940018898186958170482F60E2AD
S113066080E00E94001889818170482F60E180E059
S11306700E94001841E068E080E00E94001840E019
S113068068E080E00E94001800000F90DF91CF9195
S11306900895CF93DF9300D01F92CDB7DEB79B832D
S11306A08A83198280914E018130D1F40EC08981F0
S11306B0882F90E02A813B81820F931FFC01808167
S11306C00E94D20289818F5F89838981882F90E07B
S11306D02A813B81820F931FFC018081882339F793
S11306E000000F900F900F90DF91CF910895CF935A
S11306F0DF93CDB7DEB781E00E943B020000DF91BB
S1130700CF910895CF93DF9300D0CDB7DEB789831F
S11307106A839981892F880F880F980F8A81890F9E
S113072080680E943B0200000F900F90DF91CF91F0
S11307300895CF93DF931F92CDB7DEB78983898164
S1130740882F90E080329105C1F0813291051CF42C
S1130750409741F033C080349105D1F08038910541
S113076011F12CC04FEF60E181E00E94541740E08A
S113077060E181E00E94001821C04FEF60E281E057
S11307800E94541740E060E281E00E94001816C005
S11307904FEF60E481E00E94541740E060E481E0A0
S11307A00E9400180BC04FEF60E881E00E945417CC
S11307B040E060E881E00E940018000000000F9013
S11307C0DF91CF910895CF93DF931F92CDB7DEB71A
S11307D089838981882F90E08032910599F0813254
S11307E091051CF4409741F01FC08034910581F0BD
S11307F08038910599F018C041E060E181E00E94E1
S1130800001812C041E060E281E00E9400180CC0B0
S113081041E060E481E00E94001806C041E060E825
S113082081E00E940018000000000F90DF91CF913A
S11308300895CF93DF931F92CDB7DEB78983898163
S1130840882F90E08032910599F0813291051CF453
S1130850409741F01FC08034910581F080389105A4
S113086099F018C040E060E181E00E94001812C0D5
S113087040E060E281E00E9400180CC040E060E4C7
S113088081E00E94001806C040E060E881E00E9418
S11308900018000000000F90DF91CF910895CF93CE
S11308A0DF9300D000D0CDB7DEB79C838B831A8250
S11308B019820E94CD1080912D0790912E07892BCB
S11308C031F480E591E090932E0780932D072091D9
S11308D02B0730912C078B819C81820F931F8B3DBA
S11308E0954038F520912B0730912C078B819C8102
S11308F0280F391F80912B0790912C07821793079B
S1130900C0F420912D0730912E0780912B079091F0
S11309102C07820F931F9A83898320912B07309190
S11309202C078B819C81820F931F90932C078093BB
S11309302B070E94DA1089819A810F900F900F90F3
S11309400F90DF91CF910895CF93DF9300D0CDB76F
S1130950DEB79A83898300000F900F90DF91CF91C7
S11309600895CF93DF9300D0CDB7DEB79A83898300
S113097089819A819C012D5F3F4F89819A81FC0175
S11309803283218389819A812FEF3FEFFC013483E5
S1130990238389819A819C012D5F3F4F89819A81AC
S11309A0FC013683258389819A819C012D5F3F4F09
S11309B089819A81FC013087278389819A81FC018E
S11309C0108200000F900F90DF91CF910895CF9384
S11309D0DF9300D0CDB7DEB79A83898389819A816A
S11309E0FC011186108600000F900F90DF91CF91CB
S11309F00895CF93DF9300D000D000D0CDB7DEB7F9
S1130A009C838B837E836D838B819C81FC0181819C
S1130A1092819A8389838D819E8129813A81FC0107
S1130A203383228389819A81FC01248135818D81DC
S1130A309E81FC013583248389819A81FC01848110
S1130A4095812D813E81FC013383228389819A81A2
S1130A502D813E81FC01358324838D819E812B81F0
S1130A603C81FC01318720878B819C81FC01808142
S1130A7021E0280F8B819C81FC01208300002696B5
S1130A800FB6F894DEBF0FBECDBFDF91CF910895AE
S1130A90CF93DF93CDB7DEB728970FB6F894DEBFB8
S1130AA00FBECDBF9E838D8378876F838F8198859A
S1130AB0FC01808191819C838B838B819C81019635
S1130AC041F48D819E81FC01878190859A8389837D
S1130AD01AC08D819E8103969A83898307C0898178
S1130AE09A81FC01828193819A83898389819A8185
S1130AF0FC0182819381FC01208131818B819C8165
S1130B008217930760F789819A81FC0122813381DE
S1130B108F819885FC01338322838F819885FC0122
S1130B20828193812F813885FC01358324838F81D1
S1130B30988529813A81FC013583248389819A81AE
S1130B402F813885FC01338322838F8198852D8101
S1130B503E81FC01318720878D819E81FC0180814B
S1130B6021E0280F8D819E81FC01208300002896BE
S1130B700FB6F894DEBF0FBECDBFDF91CF910895BD
S1130B80CF93DF9300D000D0CDB7DEB79C838B83A7
S1130B908B819C81FC01808591859A8389838B81DB
S1130BA09C81FC01828193812B813C81F901248108
S1130BB03581FC01358324838B819C81FC018481F4
S1130BC095812B813C81F90122813381FC0133839E
S1130BD0228389819A81FC01218132818B819C81CC
S1130BE02817390751F48B819C81FC0124813581BC
S1130BF089819A81FC01328321838B819C81FC0150
S1130C001186108689819A81FC0180812FEF280F3B
S1130C1089819A81FC01208389819A81FC018081E8
S1130C200F900F900F900F90DF91CF910895CF9375
S1130C30DF93CDB7DEB728970FB6F894DEBF0FBEAB
S1130C40CDBF9C838B837E836D8358874F838B8139
S1130C509C8121E1FC0120838B819C8101979C83F1
S1130C608B838B819C8122E2FC0120838B819C817C
S1130C7001979C838B838B819C8123E3FC012083DC
S1130C808B819C8101979C838B838D819E819A8328
S1130C90898329818B819C81FC0120838B819C81A8
S1130CA001979C838B8389819A81892F99279A83C1
S1130CB0898329818B819C81FC0120838B819C8188
S1130CC001979C838B838B819C81FC0110828B8197
S1130CD09C8101979C838B838B819C8120E8FC0100
S1130CE020838B819C8101979C838B838B819C8146
S1130CF0FC0110828B819C8101979C838B838B8167
S1130D009C8122E0FC0120838B819C8101979C8340
S1130D108B838B819C8123E0FC0120838B819C81CC
S1130D2001979C838B838B819C8124E0FC0120832D
S1130D308B819C8101979C838B838B819C8125E093
S1130D40FC0120838B819C8101979C838B838B8105
S1130D509C8126E0FC0120838B819C8101979C83EC
S1130D608B838B819C8127E0FC0120838B819C8178
S1130D7001979C838B838B819C8128E0FC012083D9
S1130D808B819C8101979C838B838B819C8129E03F
S1130D90FC0120838B819C8101979C838B838B81B5
S1130DA09C8120E1FC0120838B819C8101979C83A1
S1130DB08B838B819C8121E1FC0120838B819C812D
S1130DC001979C838B838B819C8122E1FC0120838E
S1130DD08B819C8101979C838B838B819C8123E1F4
S1130DE0FC0120838B819C8101979C838B838B8165
S1130DF09C8124E1FC0120838B819C8101979C834D
S1130E008B838B819C8125E1FC0120838B819C81D8
S1130E1001979C838B838B819C8126E1FC01208339
S1130E208B819C8101979C838B838B819C8127E19F
S1130E30FC0120838B819C8101979C838B838B8114
S1130E409C8128E1FC0120838B819C8101979C83F8
S1130E508B838B819C8129E1FC0120838B819C8184
S1130E6001979C838B838B819C8120E2FC012083EE
S1130E708B819C8101979C838B838B819C8121E254
S1130E80FC0120838B819C8101979C838B838B81C4
S1130E909C8122E2FC0120838B819C8101979C83AD
S1130EA08B838B819C8123E2FC0120838B819C8139
S1130EB001979C838B838F8198859A838983298169
S1130EC08B819C81FC0120838B819C8101979C8375
S1130ED08B8389819A81892F99279A838983298190
S1130EE08B819C81FC0120838B819C8101979C8355
S1130EF08B838B819C8126E2FC0120838B819C81E6
S1130F0001979C838B838B819C8127E2FC01208346
S1130F108B819C8101979C838B838B819C8128E2AC
S1130F20FC0120838B819C8101979C838B838B8123
S1130F309C8129E2FC0120838B819C8101979C8305
S1130F408B838B819C8120E3FC0120838B819C819A
S1130F5001979C838B838B819C8121E3FC012083FB
S1130F608B819C8101979C838B838B819C812896A8
S1130F700FB6F894DEBF0FBECDBFDF91CF910895B9
S1130F80CF93DF93CDB7DEB70E94AD08A0912F07B2
S1130F90B0913007CD91CDBFDD91DEBFFF91EF91D0
S1130FA0DF91CF91BF91AF919F918F917F916F917D
S1130FB05F914F913F912F911F910F91FF90EF906F
S1130FC0DF90CF90BF90AF909F908F907F906F9065
S1130FD05F904F903F902F901F900F900FBE0F90F7
S1130FE0089581E0DF91CF9108950F920FB6F894A0
S1130FF00F921F9211242F923F924F925F926F9201
S11310007F928F929F92AF92BF92CF92DF92EF9294
S1131010FF920F931F932F933F934F935F936F937D
S11310207F938F939F93AF93BF93CF93DF93EF936C
S1131030FF93A0912F07B09130070DB60D920EB615
S11310400D920E945E12A0912F07B0913007CD91AE
S1131050CDBFDD91DEBFFF91EF91DF91CF91BF91C5
S1131060AF919F918F917F916F915F914F913F913C
S11310702F911F910F91FF90EF90DF90CF90BF9031
S1131080AF909F908F907F906F905F904F903F9024
S11310902F901F900F900FBE0F90089500000F9295
S11310A00FB6F8940F921F9211242F923F924F92F1
S11310B05F926F927F928F929F92AF92BF92CF92E4
S11310C0DF92EF92FF920F931F932F933F934F93CF
S11310D05F936F937F938F939F93AF93BF93CF93BC
S11310E0DF93EF93FF93A0912F07B09130070DB6D4
S11310F00D920EB60D920E947111882311F00E9478
S11311005E12A0912F07B0913007CD91CDBFDD9134
S1131110DEBFFF91EF91DF91CF91BF91AF919F918E
S11311208F917F916F915F914F913F912F911F917B
S11311300F91FF90EF90DF90CF90BF90AF909F9072
S11311408F907F906F905F904F903F902F901F9063
S11311500F900FBE0F9008950000CF93DF9300D03F
S113116000D000D0CDB7DEB780E89EE3A0E0B0E0C9
S113117089839A83AB83BC8389819A81AB81BC8147
S1131180689415F8B695A795979587951694D1F711
S113119089839A83AB83BC8389819A81AB81BC8127
S11311A00197A109B10989839A83AB83BC8389819F
S11311B08D8389819A81AB81BC81892F9A2FAB2F32
S11311C0BB2789839A83AB83BC8389818E838BE419
S11311D090E02E81FC0120838AE490E02D81FC01C3
S11311E020838BE08D838EE490E02D81FC012083AD
S11311F089E590E0FC0180818D838D8180618D8300
S113120089E590E02D81FC012083000026960FB62D
S1131210F894DEBF0FBECDBFDF91CF9108950E9439
S11312204F0818950000CF93DF9300D000D01F9291
S1131230CDB7DEB79C838B836D838B819C819A832E
S113124089830FB6F8940F9289819A81FC01808179
S1131250918129813A81F901238D422F50E029811E
S11312603A81F901248D222F30E0429FB001439F3F
S1131270700D529F700D11249B01280F391F898115
S11312809A81FC013583248389819A81FC01128E21
S113129089819A81FC012081318189819A81FC01B3
S11312A03383228389819A81FC0120813181898160
S11312B09A81FC01838D882F90E0BC0161507109F3
S11312C089819A81FC01848D482F50E0649FC0017C
S11312D0659F900D749F900D1124280F391F8981EB
S11312E09A81FC013783268389819A812FEFFC013F
S11312F0258F89819A812FEFFC01268F8D81882388
S113130081F489819A81FC0180858823A1F08981F7
S11313109A8108960E94F512882369F00E94F507C5
S11313200AC089819A8108960E94B10489819A81B0
S113133041960E94B1040F900FBE81E00F900F9070
S11313400F900F900F90DF91CF9108950F931F93FB
S1131350CF93DF93CDB7DEB729970FB6F894DEBFEE
S11313600FBECDBF8F83688749878885882319F48A
S11313701A8219820FC08F81482F50E08885282F48
S113138030E0429FC001439F900D529F900D112465
S11313909A83898389819A814F960E944F049C8302
S11313A08B838B819C81892BA1F08B819C819E8373
S11313B08D838D819E814F969E838D832B813C816D
S11313C08D819E8189012985AC0168858F810E9468
S11313D0F6098B819C8129960FB6F894DEBF0FBE67
S11313E0CDBFDF91CF911F910F9108950F931F935C
S11313F0CF93DF93CDB7DEB727970FB6F894DEBF50
S11314000FBECDBF89836A835C834B832D831F8387
S11314100E838A81882341F48E819F812E813F81AE
S1131420FC013183208307C08E819F812B813C8105
S1131430FC01318320838E819F812981FC01238FCC
S11314408E819F812A81FC01248F8E819F8161E09E
S11314500E941309000027960FB6F894DEBF0FBE52
S1131460CDBFDF91CF911F910F910895CF93DF935B
S113147000D0CDB7DEB79A83898389819A81892B7D
S1131480B9F089819A81FC011582148289819A813B
S1131490FC011182108289819A81FC011682898162
S11314A09A8120E040E050E060E070E00E947E0A13
S11314B000000F900F90DF91CF910895CF93DF93A9
S11314C000D000D01F92CDB7DEB78D8381E0898331
S11314D01A824D816A8189810E94A6099C838B832B
S11314E08B819C810E94360A8B819C810F900F9086
S11314F00F900F900F90DF91CF910895CF93DF93CA
S1131500CDB7DEB72E970FB6F894DEBF0FBECDBFB2
S1131510998788877B876A875D874C872E8719829E
S1131520888599859B838A830FB6F8940F928A8164
S11315309B81FC01228D8A819B81FC01838D28176C
S113154018F08E85823011F52A853B858A819B812E
S11315504E85B9010E94330C8C838A819B81FC01E6
S11315608189882351F08A819B8141960E94F512DA
S1131570882341F00E94F50705C08C81882311F06F
S11315800E94F5070F900FBE81E060C08C859D8599
S1131590892B21F40F900FBE80E058C089818823E5
S11315A031F4CE0105960E94621381E089830F9085
S11315B00FBE0E94CD100FB6F8940F928A819B81C2
S11315C0FC01858D8F3F21F48A819B81FC01158E5E
S11315D08A819B81FC01868D8F3F21F48A819B81C6
S11315E0FC01168E0F900FBE9E01245F3F4FCE016B
S11315F00596B9010E947E13882309F58A819B818F
S11316000E947F0D8823A1F02C853D858A819B81D2
S11316100896B9010E94D2128A819B810E94030D0F
S11316200E94DA10882309F07FCF0E94F5077CCF4F
S11316308A819B810E94030D0E94DA1075CF8A81F2
S11316409B810E94030D0E94DA1080E02E960FB653
S1131650F894DEBF0FBECDBFDF91CF910895CF9335
S1131660DF93CDB7DEB72D970FB6F894DEBF0FBE6C
S1131670CDBF9B878A877D876C8719828A859B85E6
S11316809C838B831A820FB6F8940F928B819C8172
S1131690FC01828D8D838D81882349F18D812FEF0B
S11316A0280F8B819C81FC01228F8B819C81FC0102
S11316B080819181892B41F40E9489169C018B8140
S11316C09C81FC01358324838B819C81FC01808572
S11316D0882349F08B819C8108960E94F512882307
S11316E011F00E94F5070F900FBE81E090C08C8529
S11316F09D85892B21F40F900FBE80E088C08981DD
S1131700882331F4CE0107960E94621381E0898315
S11317100F900FBE0E94CD100FB6F8940F928B81DC
S11317209C81FC01858D8F3F21F48B819C81FC0180
S1131730158E8B819C81FC01868D8F3F21F48B81DA
S11317409C81FC01168E0F900FBE9E01245F3F4FBB
S1131750CE010796B9010E947E138823A9F58B81D7
S11317609C810E94610D882341F18B819C81FC0145
S113177080819181892B69F40FB6F8940F928B8143
S11317809C81FC01848195810E94C0148A830F90FE
S11317900FBE2C853D858B819C814196B9010E94A9
S11317A0D2128B819C810E94030D0E94DA1088233F
S11317B009F069CF0E94F50766CF8B819C810E9456
S11317C0030D0E94DA105FCF8B819C810E94030D70
S11317D00E94DA108B819C810E94610D882309F498
S11317E052CF8A81882391F00FB6F8940F928B819F
S11317F09C810E94100C8E838B819C81FC018481CE
S113180095816E810E94E9150F900FBE80E02D96A0
S11318100FB6F894DEBF0FBECDBFDF91CF91089510
S1131820CF93DF9300D01F92CDB7DEB79B838A831B
S11318308A819B81FC018189882369F08A819B814B
S1131840FC0186899789FC0180819181982F86E02B
S1131850891B898301C0198289810F900F900F9091
S1131860DF91CF910895CF93DF93CDB7DEB727975C
S11318700FB6F894DEBF0FBECDBF9C838B837E83EF
S11318806D834F8319828B819C81FC01828D8A83B5
S11318908B819C81FC01848D8823B1F48B819C8194
S11318A0FC0180819181892B09F09CC08B819C81F2
S11318B0FC01848195810E946C1589838B819C81B4
S11318C0FC01158214828EC08F818823D9F58B8107
S11318D09C81FC01848D482F50E08B819C81FC010C
S11318E0828193812D813E81B9010E949F188B8151
S11318F09C81FC01228133818B819C81FC01848D3C
S1131900882F90E0280F391F8B819C81FC01338341
S113191022838B819C81FC01228133818B819C8178
S1131920FC01848195812817390708F45BC08B81F9
S11319309C81FC01208131818B819C81FC0133835A
S1131940228350C08B819C81FC01848D482F50E000
S11319508B819C81FC01868197812D813E81B90117
S11319600E949F188B819C81FC01268137818B8189
S11319709C81FC01848D882F90E09195819591093B
S1131980280F391F8B819C81FC01378326838B812F
S11319909C81FC01268137818B819C81FC018081A3
S11319A0918128173907A8F48B819C81FC0124813B
S11319B035818B819C81FC01848D882F90E09195E9
S11319C081959109280F391F8B819C81FC013783F4
S11319D026838F81823031F48A81882319F08A81A9
S11319E081508A838A8121E0280F8B819C81FC01AC
S11319F0228F898127960FB6F894DEBF0FBECDBF24
S1131A00DF91CF910895CF93DF9300D000D0CDB76D
S1131A10DEB79C838B830FB6F8940F928B819C81E5
S1131A20FC01868D898312C08B819C81FC01818994
S1131A30882381F08B819C8141960E94F512882332
S1131A4011F00E94F11389818150898389811816CC
S1131A505CF301C000008B819C812FEFFC01268F79
S1131A600F900FBE0FB6F8940F928B819C81FC01EE
S1131A70858D8A8312C08B819C81FC01808588239B
S1131A8081F08B819C8108960E94F512882311F0C5
S1131A900E94F1138A8181508A838A8118165CF32B
S1131AA001C000008B819C812FEFFC01258F0F90DA
S1131AB00FBE00000F900F900F900F90DF91CF9109
S1131AC00895CF93DF9300D01F92CDB7DEB79B83E9
S1131AD08A830FB6F8940F928A819B81FC01828DD0
S1131AE0882319F481E0898301C019820F900FBE05
S1131AF089810F900F900F90DF91CF910895CF932C
S1131B00DF9300D01F92CDB7DEB79B838A830FB6D5
S1131B10F8940F928A819B81FC01228D8A819B819A
S1131B20FC01838D281719F481E0898301C019828F
S1131B300F900FBE89810F900F900F90DF91CF917E
S1131B4008958F929F92AF92BF92CF92DF92EF92BD
S1131B50FF920F931F93CF93DF93CDB7DEB76097B8
S1131B600FB6F894DEBF0FBECDBF9F838E837987F7
S1131B7068875B874A873D872C870E87F88AEF86BC
S1131B808A859B850E944F049D838C838C819D81D3
S1131B90892BB9F088E290E00E944F049A838983EC
S1131BA089819A81892B41F089819A812C813D8197
S1131BB0FC01308F278B07C08C819D810E94A40477
S1131BC002C01A82198289819A81892B09F18A8536
S1131BD09B85CC01A0E0B0E009811A814F8558892A
S1131BE02C853D8568857985EE81FF81812C912C3A
S1131BF058016A01EE8489019C01AD01CF010E9464
S1131C001E0E89819A810E94F20E81E08B8302C0AC
S1131C108FEF8B838B8160960FB6F894DEBF0FBE77
S1131C20CDBFDF91CF911F910F91FF90EF90DF9087
S1131C30CF90BF90AF909F908F9008958F929F9276
S1131C40AF92BF92CF92DF92EF920F931F93CF93F5
S1131C50DF93CDB7DEB764970FB6F894DEBF0FBE3F
S1131C60CDBF9D838C837F836E83288739874A8782
S1131C705B871D870C87EE86D88ACF86BA8AA98AA5
S1131C809C8A8B8A89899A89FC012789308D888569
S1131C9099850197820F931F9B838A838E819F81ED
S1131CA0892B69F1198221C08981882F90E02981CB
S1131CB0222F30E04E815F81240F351FF9014081CE
S1131CC029893A89820F931F4996FC0140838981AF
S1131CD0882F90E02E813F81820F931FFC01808129
S1131CE0882339F089818F5F898389818830E0F284
S1131CF001C0000089899A89FC0110A204C0898965
S1131D009A89FC01118E8E85863010F085E08E87CD
S1131D1089899A892E85FC01268B89899A892E8541
S1131D20FC0121A389899A89FC0112A289899A89D3
S1131D3002960E94E70489899A890C960E94E70416
S1131D4089899A8929893A89FC01318720878E8576
S1131D50882F90E026E030E0281B390B89899A8986
S1131D60FC013587248789899A8929893A89FC0164
S1131D70338B228B89899A89FC0113A214A215A2A0
S1131D8016A289899A89FC0117A24C855D852C814C
S1131D903D818A819B81B9010E9417069C01898932
S1131DA09A89FC01318320838F859889892B39F0A6
S1131DB08F85988929893A89FC0131832083000021
S1131DC064960FB6F894DEBF0FBECDBFDF91CF91FE
S1131DD01F910F91EF90DF90CF90BF90AF909F90A5
S1131DE08F900895CF93DF9300D0CDB7DEB79A8359
S1131DF089830FB6F8940F92809199078F5F80932F
S1131E00990780912F0790913007892B69F4898174
S1131E109A819093300780932F078091990781309E
S1131E20C9F40E94061416C080919D07882391F47A
S1131E3080912F0790913007FC01268989819A812E
S1131E40FC018689821730F089819A81909330074A
S1131E5080932F078091A1078F5F8093A1078981C9
S1131E609A81FC01968980919C07891730F48981B5
S1131E709A81FC01868980939C0789819A81AC01AF
S1131E804E5F5F4F89819A81FC018689282F30E05B
S1131E90C901880F991F880F991F880F991F820FF6
S1131EA0931F8F5C984FBA010E94F9040F900FBEE4
S1131EB080919D07882371F080912F0790913007BE
S1131EC0FC01268989819A81FC018689281710F4EE
S1131ED00E94F50700000F900F90DF91CF910895B5
S1131EE0CF93DF9300D01F92CDB7DEB79B838A8355
S1131EF019828A819B81892B51F00E94CD108A819D
S1131F009B8160E00E94A3160E94DA108983898174
S1131F10882311F40E94F50700000F900F900F9092
S1131F20DF91CF910895CF93DF9300D000D0CDB748
S1131F30DEB79C838B830FB6F8940F928B819C81C0
S1131F40892B29F480912F079091300702C08B814F
S1131F509C819A83898389819A8102960E94C00513
S1131F6089819A81FC0184899589892B29F0898149
S1131F709A810C960E94C00589819A810296BC01BF
S1131F8080E997E00E94F90489819A81FC0187A184
S1131F90813021F489819A81FC0117A20F900FBE30
S1131FA080919D07882339F00FB6F8940F920E9410
S1131FB091140F900FBE80912F07909130072981C3
S1131FC03A8128173907A1F480919D07882319F0D5
S1131FD00E94F5070DC0909190078091990798177A
S1131FE029F41092300710922F0702C00E945E124B
S1131FF000000F900F900F900F90DF91CF910895F4
S1132000CF93DF9300D000D01F92CDB7DEB79D836E
S11320108C8319828C819D819B838A838A819B8195
S1132020FC01828593858059974089F48A819B813C
S1132030FC01848995898D57974049F08A819B8159
S1132040FC0184899589892B11F481E08983898134
S11320500F900F900F900F900F90DF91CF910895F4
S1132060CF93DF9300D000D0CDB7DEB79C838B83B2
S11320708B819C819A83898380912F07909130076B
S113208029813A812817390709F44AC089819A813C
S1132090892B09F445C00FB6F8940F9289819A816F
S11320A00E9400108823D1F189819A8102960E94AE
S11320B0C00589819A81FC01968980919C078917C2
S11320C030F489819A81FC01868980939C078981F7
S11320D09A81AC014E5F5F4F89819A81FC018689A8
S11320E0282F30E0C901880F991F880F991F880F86
S11320F0991F820F931F8F5C984FBA010E94F904B5
S113210089819A81FC01268980912F07909130075B
S1132110FC018689281710F00E94F5070F900FBE66
S113212000000F900F900F900F90DF91CF910895C2
S1132130EF92FF920F93CF93DF931F92CDB7DEB749
S11321400F2EF4EAEF2EF7E0FF2EF02D00E020E052
S113215030E045E550E060E471E08CEF93E10E94EB
S1132160A10D89838981813081F4F8948FEF9FEFE9
S11321709093A3078093A20781E080939D07109218
S11321809B0710929A070E94C00700000F90DF91EE
S1132190CF910F91FF90EF900895CF93DF93CDB738
S11321A0DEB78091A6078F5F8093A6070000DF91BA
S11321B0CF910895CF93DF9300D000D0CDB7DEB791
S11321C01A8219821B820FB6F8940F928091A60787
S11321D081508093A6078091A607882309F077C0D1
S11321E080919907882309F472C049C080918207BD
S11321F090918307FC01868197819A8389838981E1
S11322009A810C960E94C00589819A8102960E9447
S1132210C00589819A81FC01968980919C07891760
S113222030F489819A81FC01868980939C07898195
S11322309A81AC014E5F5F4F89819A81FC01868946
S1132240282F30E0C901880F991F880F991F880F24
S1132250991F820F931F8F5C984FBA010E94F90453
S113226089819A81FC01268980912F0790913007FA
S1132270FC018689281718F081E080939F078091DC
S11322807D07882309F0B2CF89819A81892B11F0C7
S11322900E94911480919E078C838C81882379F00D
S11322A00E947111882319F081E080939F078C812B
S11322B081508C838C81882399F710929E0780919A
S11322C09F07882321F081E08B830E94F5070F90FC
S11322D00FBE8B810F900F900F900F90DF91CF91D5
S11322E00895CF93DF93CDB7DEB729970FB6F8944F
S11322F0DEBF0FBECDBF19828091A607882309F0E7
S1132300C8C080919A0790919B0701969B838A830A
S11323108A819B8190939B0780939A078A819B81F2
S1132320892BD9F48091790790917A079D838C83C6
S113233080917B0790917C0790937A07809379072B
S11323408C819D8190937C0780937B078091A0076B
S11323508F5F8093A0070E9491148091A2079091AF
S1132360A3072A813B812817390708F478C0809194
S1132370790790917A07FC018081882339F48FEFE3
S11323809FEF9093A3078093A20769C08091790778
S113239090917A07FC0185819681FC018681978161
S11323A09F838E838E819F81FC0182819381998793
S11323B088872A813B81888599852817390738F4CD
S11323C0888599859093A3078093A20748C08E813E
S11323D09F8102960E94C0058E819F81FC018489A1
S11323E09589892B29F08E819F810C960E94C005C6
S11323F08E819F81FC01968980919C07891730F416
S11324008E819F81FC01868980939C078E819F81A8
S1132410AC014E5F5F4F8E819F81FC018689282F1E
S113242030E0C901880F991F880F991F880F991FE1
S1132430820F931F8F5C984FBA010E94F9048E811A
S11324409F81FC01268980912F0790913007FC0120
S11324508689281708F48BCF81E0898388CF8091FF
S11324602F0790913007FC018689282F30E0C9019D
S1132470880F991F880F991F880F991F820F931F28
S11324808F5C984FFC018081823040F081E0898329
S113249005C080919E078F5F80939E0780919F0760
S11324A0882311F081E08983898129960FB6F894F5
S11324B0DEBF0FBECDBFDF91CF910895CF93DF93E1
S11324C000D01F92CDB7DEB78091A607882321F0F4
S11324D081E080939F075FC010929F0780919C07C3
S11324E0898303C08981815089838981282F30E0C1
S11324F0C901880F991F880F991F880F991F820F90
S1132500931F8F5C984FFC018081882359F3898144
S1132510282F30E0C901880F991F880F991F880F51
S1132520991F820F931F8F5C984F9B838A838A81A4
S11325309B81FC0181819281FC01228133818A810A
S11325409B81FC01328321838A819B81FC0121814F
S113255032818A819B8103962817390769F48A811D
S11325609B81FC0181819281FC01228133818A81DA
S11325709B81FC01328321838A819B81FC018181BF
S11325809281FC01868197819093300780932F0775
S1132590898180939C0700000F900F900F90DF912A
S11325A0CF910895CF93DF9300D000D0CDB7DEB79D
S11325B09A8389837C836B8380912F079091300762
S11325C09C01245F3F4F89819A81B9010E9448058B
S11325D08B819C8161E00E94A31600000F900F90F4
S11325E00F900F90DF91CF910895CF93DF9300D098
S11325F000D01F92CDB7DEB79D838C838C819D81E3
S1132600FC0185819681FC01868197819B838A8365
S11326108A819B810C960E94C0058091A60788231D
S113262069F58A819B8102960E94C0058A819B81FB
S1132630FC01968980919C07891730F48A819B81DB
S1132640FC01868980939C078A819B81AC014E5F43
S11326505F4F8A819B81FC018689282F30E0C90164
S1132660880F991F880F991F880F991F820F931F36
S11326708F5C984FBA010E94F90408C08A819B813B
S11326800C96BC018DE797E00E94F9048A819B8136
S1132690FC01268980912F0790913007FC018689DF
S11326A0821730F481E0898381E080939F0701C021
S11326B0198289810F900F900F900F900F90DF91E6
S11326C0CF910895CF93DF9300D0CDB7DEB79A832F
S11326D089832091A00789819A81FC01208320911C
S11326E09A0730919B0789819A81FC013283218367
S11326F000000F900F90DF91CF910895CF93DF9357
S1132700CDB7DEB729970FB6F894DEBF0FBECDBFA5
S11327109F838E83798768870FB6F8940F92809190
S11327209A0790919B079B838A838E819F81FC01EA
S1132730818192812A813B81A901481B590BCA01DD
S11327409D838C8388859985FC0180819181019684
S113275011F419823AC08E819F81FC01908180918D
S1132760A007981769F08E819F81FC012181328135
S11327708A819B818217930718F081E0898325C0A1
S113278088859985FC01208131818C819D81821706
S11327909307A0F488859985FC01208131818C817F
S11327A09D81281B390B88859985FC013183208301
S11327B08E819F810E946213198207C08885998542
S11327C0FC011182108281E089830F900FBE898100
S11327D029960FB6F894DEBF0FBECDBFDF91CF911F
S11327E00895CF93DF93CDB7DEB781E080939F0741
S11327F00000DF91CF910895CF93DF9300D0CDB740
S1132800DEB79A8389830E944814FDCFCF93DF9368
S11328101F92CDB7DEB7198213C08981282F30E00B
S1132820C901880F991F880F991F880F991F820F5C
S1132830931F8F5C984F0E94B10489818F5F8983B5
S11328408981863050F387E697E00E94B10480E7DF
S113285097E00E94B1048DE797E00E94B10486E8F6
S113286097E00E94B10480E997E00E94B10487E6F2
S113287097E090937A078093790780E797E09093A5
S11328807C0780937B0700000F90DF91CF91089520
S1132890CF93DF9300D0CDB7DEB721C00FB6F89445
S11328A00F9280918B0790918C07FC018681978110
S11328B09A83898389819A8102960E94C0058091B6
S11328C0990781508093990780918F078150809355
S11328D08F070F900FBE89819A810E94791480918D
S11328E08F078823D9F600000F900F90DF91CF91C6
S11328F00895CF93DF9300D0CDB7DEB79A83898351
S113290089819A81FC018789908D0E94A404898120
S11329109A810E94A40400000F900F90DF91CF9140
S11329200895CF93DF9300D0CDB7DEB780917907B8
S113293090917A07FC018081882339F48FEF9FEF0F
S11329409093A3078093A20715C080917907909173
S11329507A07FC0185819681FC01868197819A839F
S1132960898389819A81FC01828193819093A30751
S11329708093A20700000F900F90DF91CF910895EC
S1132980CF93DF9300D000D01F92CDB7DEB79D83E5
S11329908C838C819D819B838A8319828C819D8108
S11329A0892B09F490C08A819B81FC01268980913E
S11329B02F0790913007FC018689281708F075C00D
S11329C08A819B81FC018485958599238CF0809173
S11329D02F0790913007FC018689882F90E026E02C
S11329E030E0281B390B8A819B81FC0135872487C1
S11329F08A819B81FC01428553858A819B81FC01EC
S1132A008689282F30E0C901880F991F880F991FE4
S1132A10880F991F820F931F8F5C984F481759078F
S1132A20B9F58A819B8102960E94C00580912F0787
S1132A3090913007FC0126898A819B81FC01268BB9
S1132A408A819B81FC01968980919C07891730F4C7
S1132A508A819B81FC01868980939C078A819B8162
S1132A60AC014E5F5F4F8A819B81FC018689282FD0
S1132A7030E0C901880F991F880F991F880F991F8B
S1132A80820F931F8F5C984FBA010E94F9040AC009
S1132A9080912F0790913007FC0126898A819B81C0
S1132AA0FC01268B81E089830EC08A819B81FC0115
S1132AB021A180912F0790913007FC018689281766
S1132AC010F481E0898389810F900F900F900F900B
S1132AD00F90DF91CF910895CF93DF9300D000D072
S1132AE01F92CDB7DEB79D838C838C819D819B83A0
S1132AF08A8319828C819D81892B09F461C08A8122
S1132B009B81FC0182A12FEF280F8A819B81FC010C
S1132B1022A38A819B81FC0126898A819B81FC01F5
S1132B2081A1281709F44CC08A819B81FC0182A1F0
S1132B30882309F045C08A819B8102960E94C005C2
S1132B408A819B81FC0121A18A819B81FC01268BC6
S1132B508A819B81FC018689882F90E026E030E001
S1132B60281B390B8A819B81FC01358724878A8144
S1132B709B81FC01968980919C07891730F48A8196
S1132B809B81FC01868980939C078A819B81AC018F
S1132B904E5F5F4F8A819B81FC018689282F30E03C
S1132BA0C901880F991F880F991F880F991F820FD9
S1132BB0931F8F5C984FBA010E94F90481E08983C6
S1132BC089810F900F900F900F900F90DF91CF910C
S1132BD00895CF93DF93CDB7DEB728970FB6F89457
S1132BE0DEBF0FBECDBF9F838E8368878E819F819A
S1132BF09B838A8381E08C838E819F81892B09F456
S1132C007EC08A819B81FC0191A18885981718F464
S1132C108885898305C08A819B81FC0181A1898380
S1132C208A819B81FC0196898981981709F467C080
S1132C308A819B81FC0192A18C81981709F05FC065
S1132C408A819B81FC0186898D838A819B8129816C
S1132C50FC01268B8A819B81FC01848595859923BF
S1132C6064F08981882F90E026E030E0281B390B3E
S1132C708A819B81FC01358724878A819B81FC01A1
S1132C80428553858D81282F30E0C901880F991F13
S1132C90880F991F880F991F820F931F8F5C984F7D
S1132CA04817590761F58A819B8102960E94C005E5
S1132CB08A819B81FC01968980919C07891730F455
S1132CC08A819B81FC01868980939C078A819B81F0
S1132CD0AC014E5F5F4F8A819B81FC018689282F5E
S1132CE030E0C901880F991F880F991F880F991F19
S1132CF0820F931F8F5C984FBA010E94F904000061
S1132D0028960FB6F894DEBF0FBECDBFDF91CF91EA
S1132D100895CF93DF93CDB7DEB780912F079091BD
S1132D203007892B49F080912F0790913007FC01DF
S1132D3022A12F5FFC0122A380912F0790913007DD
S1132D40DF91CF910895CF93DF93CDB7DEB7279767
S1132D500FB6F894DEBF0FBECDBF9E838D836F8305
S1132D6080919A0790919B079A83898380912F077A
S1132D709091300702960E94C0058D819E81019634
S1132D8071F48F81882359F080912F079091300737
S1132D900296BC0180E997E00E94F90444C02981AD
S1132DA03A818D819E81820F931F9C838B838091B6
S1132DB02F07909130072B813C81FC0133832283C0
S1132DC02B813C8189819A812817390778F4809175
S1132DD02F07909130079C012E5F3F4F80917B0716
S1132DE090917C07B9010E9448051DC080912F076E
S1132DF0909130079C012E5F3F4F8091790790910D
S1132E007A07B9010E9448058091A2079091A3070F
S1132E102B813C812817390730F48B819C81909356
S1132E20A3078093A207000027960FB6F894DEBF8D
S1132E300FBECDBFDF91CF910895CF93DF9300D024
S1132E40CDB7DEB789836A838981882F90E081308A
S1132E50910591F0823091051CF4892B39F01EC044
S1132E608230910579F0039799F018C08AE390E0D5
S1132E702A81FC01208312C087E390E02A81FC01AF
S1132E8020830CC084E390E02A81FC01208306C0E7
S1132E9081E390E02A81FC012083000000000F9070
S1132EA00F90DF91CF910895CF93DF9300D01F92BD
S1132EB0CDB7DEB789836A834B838981882F90E0FD
S1132EC08130910581F1823091051CF4892B49F000
S1132ED090C08230910509F448C0039709F467C093
S1132EE088C08B81882F90E0009721F08F3F910557
S1132EF071F07FC08AE390E02AE330E0F901208199
S1132F00322F2A8120952323FC0120830BC08AE3DE
S1132F1090E02AE330E0F90130812A81232BFC017F
S1132F202083000066C08B81882F90E0009721F0F9
S1132F308F3F910571F05DC087E390E027E330E0B7
S1132F40F9012081322F2A8120952323FC0120833B
S1132F500BC087E390E027E330E0F90130812A8158
S1132F60232BFC012083000044C08B81882F90E038
S1132F70009721F08F3F910571F03BC084E390E00E
S1132F8024E330E0F9012081322F2A812095232384
S1132F90FC0120830BC084E390E024E330E0F901DA
S1132FA030812A81232BFC012083000022C08B81E5
S1132FB0882F90E0009721F08F3F910571F018C0A1
S1132FC081E390E021E330E0F9012081322F2A816E
S1132FD020952323FC0120830BC081E390E021E3AF
S1132FE030E0F90130812A81232BFC012083000089
S1132FF0000000000F900F900F90DF91CF91089583
S1133000CF93DF9300D01F92CDB7DEB789836A8355
S11330104B838B81882F90E0009709F442C001977D
S113302009F086C08981882F90E081309105B9F03C
S1133030823091051CF4892B39F07AC082309105D5
S1133040C9F0039711F174C08BE390E02BE330E0F7
S1133050F90130812A81232BFC01208321C088E3DC
S113306090E028E330E0F90130812A81232BFC0130
S1133070208316C085E390E025E330E0F901308138
S11330802A81232BFC0120830BC082E390E022E3FE
S113309030E0F90130812A81232BFC0120830000D8
S11330A047C08981882F90E081309105C9F0823032
S11330B091051CF4892B39F03AC082309105E9F06E
S11330C0039741F134C08BE390E02BE330E0F90146
S11330D02081322F2A8120952323FC01208327C0BD
S11330E088E390E028E330E0F9012081322F2A813F
S11330F020952323FC0120831AC085E390E025E377
S113310030E0F9012081322F2A8120952323FC010C
S113311020830DC082E390E022E330E0F9012081B6
S1133120322F2A8120952323FC01208300000000F4
S113313000000F900F900F90DF91CF910895FB0145
S1133140DC0102C001900D9241505040D8F708951F
S1073150F894FFCF1D
S1133154416D7220202020000000416D6D617220B9
S113316420000000596173656E20200000004D6149
S11331747A656E20200000004F736D616E2020007C
S113318400004D61796572202000000057616C6C69
S11331946564200000004D6F68616D656400000083
S11331A44D6F73746166610000004469616E61204F
S11331B4200000004F4E4520200000000000544F22
S11331C457202000000000005448524545000000E8
S11331D40000464F55522000000000004649464571
S11331E42000000000005349582020000000000083
S11331F4534556454E00000000004E494E452000FC
S11332040000000054454E20200000000000496ED8
S1133214697469616C697A6174696F6E205461734D
S11332246B005461736B2041005461736B20420042
S109323449444C45000072
S9030000FC
