S00F0000537072696E74312E7372656364
S11300000C942A000C9447000C9447000C9447006D
S11300100C9447000C9447000C9447000C94320352
S11300200C9447000C9447000C9447000C94470030
S11300300C9447000C9447000C9447000C94470020
S11300400C9447000C9447000C9447000C94470010
S11300500C94470011241FBECFE5D8E0DEBFCDBF0E
S113006010E0A0E6B0E0EAE2FDE002C005900D92E7
S1130070A036B107D9F720E0A0E6B0E001C01D9298
S1130080A73AB207E1F70E9449000C9493060C9436
S11300900000CF93DF931F92CDB7DEB780E10E94BB
S11300A07C0180E20E947C0180E40E947C0180E16A
S11300B00E94C60180E20E94C60180E40E94C6013B
S11300C00E9457010E948200898389818823D1F389
S11300D08981882F90E08230910551F08330910519
S11300E059F0019709F00CC080E10E94FC0108C09E
S11300F080E20E94FC0104C080E40E94FC01000034
S11301001982E0CFCF93DF9300D01F92CDB7DEB733
S113011019821A824FC084E390E02A81422F50E072
S113012020E230E002C0220F331F4A95E2F7FC01BF
S1130130208385E390E02A81422F50E020E230E0E2
S113014002C0220F331F4A95E2F72095FC01208359
S11301501B822AC083E390E0FC018081882F90E019
S11301602B81222F30E02E5F3F4F02C0959587955B
S11301702A95E2F781709927892B99F48091600080
S11301808F5F8093600080916000823351F49B8183
S1130190892F880F980F8A81890F8F5F8983109226
S11301A060008B818F5F8B838B81833098F28A818F
S11301B08F5F8A838A81833008F4ADCF89810F9061
S11301C00F900F90DF91CF910895CF93DF931F92FB
S11301D0CDB7DEB7898340E062E080E00E94A905E4
S11301E040E064E080E00E94A9058981881F882797
S11301F0881F482F60E880E00E94A90589818295C4
S11302008695869583708170482F60E480E00E9413
S1130210A90589818295869587708170482F60E24F
S113022080E00E94A905898182958F708170482F92
S113023060E180E00E94A90541E068E080E00E945E
S1130240A90540E068E080E00E94A90589818695BF
S1130250869586958170482F60E880E00E94A90504
S11302608981869586958170482F60E480E00E949C
S1130270A905898186958170482F60E280E00E94FB
S1130280A90589818170482F60E180E00E94A90559
S113029041E068E080E00E94A90540E068E080E079
S11302A00E94A90500000F90DF91CF910895CF938C
S11302B0DF931F92CDB7DEB7198280916100882346
S11302C0A1F46FEF80E00E94C60482E00E94E50082
S11302D088E20E94E5008EE00E94E50086E00E942C
S11302E0E50081E08093610002C083E08983898115
S11302F00F90DF91CF910895CF93DF931F92CDB7E5
S1130300DEB789838981882F90E080329105C1F01E
S1130310813291051CF4409741F033C0803491053B
S1130320D1F08038910511F12CC04FEF60E181E0EC
S11303300E94FD0440E060E181E00E94A90521C023
S11303404FEF60E281E00E94FD0440E060E281E062
S11303500E94A90516C04FEF60E481E00E94FD04ED
S113036040E060E481E00E94A9050BC04FEF60E823
S113037081E00E94FD0440E060E881E00E94A9055C
S1130380000000000F90DF91CF910895CF93DF9389
S11303901F92CDB7DEB789838981882F90E08032A0
S11303A0910599F0813291051CF4409741F01FC0EA
S11303B08034910581F08038910599F018C040E0AF
S11303C060E181E00E94A90512C040E060E281E0A2
S11303D00E94A9050CC040E060E481E00E94A905E8
S11303E006C040E060E881E00E94A905000000002A
S11303F00F90DF91CF910895CF93DF931F92CDB7E4
S1130400DEB789838981882F90E08032910591F04D
S1130410813291051CF4409741F01BC08034910552
S113042071F08038910581F014C060E181E00E9490
S113043048060FC060E281E00E9448060AC060E4FA
S113044081E00E94480605C060E881E00E944806F9
S1130450000000000F90DF91CF910895CF93DF93B8
S113046000D000D000D0CDB7DEB79C838B837E83D1
S11304706D838B819C81FC01818192819A83898324
S11304808D819E8129813A81FC0133832283898174
S11304909A81FC01248135818D819E81FC01358303
S11304A0248389819A81FC01848195812D813E81F7
S11304B0FC013383228389819A812D813E81FC0151
S11304C0358324838D819E812B813C81FC0131877E
S11304D020878B819C81FC01808121E0280F8B8106
S11304E09C81FC012083000026960FB6F894DEBFA1
S11304F00FBECDBFDF91CF910895CF93DF9300D08E
S113050000D0CDB7DEB79C838B838B819C81FC01AB
S1130510808591859A8389838B819C81FC0182816A
S113052093812B813C81F90124813581FC01358340
S113053024838B819C81FC01848195812B813C8166
S1130540F90122813381FC013383228389819A81D9
S1130550FC01218132818B819C812817390751F458
S11305608B819C81FC012481358189819A81FC01E4
S1130570328321838B819C81FC01118610868981C1
S11305809A81FC0180812FEF280F89819A81FC01D7
S1130590208389819A81FC0180810F900F900F90B4
S11305A00F90DF91CF9108950F920FB6F8940F92A8
S11305B01F9211242F923F924F925F926F927F92DB
S11305C08F929F92AF92BF92CF92DF92EF92FF925F
S11305D00F931F932F933F934F935F936F937F9347
S11305E08F939F93AF93BF93CF93DF93EF93FF9337
S11305F0A0916200B09163000DB60D920EB60D92FB
S11306000E943603882311F00E942304A091620003
S1130610B0916300CD91CDBFDD91DEBFFF91EF912D
S1130620DF91CF91BF91AF919F918F917F916F9106
S11306305F914F913F912F911F910F91FF90EF90F8
S1130640DF90CF90BF90AF909F908F907F906F90EE
S11306505F904F903F902F901F900F900FBE0F9080
S1130660089500000E94D40218950000CF93DF93F0
S1130670CDB7DEB729970FB6F894DEBF0FBECDBF56
S113068019828091A600882309F0C8C080919E0039
S113069090919F0001969B838A838A819B8190938A
S11306A09F0080939E008A819B81892BD9F480913D
S11306B09A0090919B009D838C8380919C009091E3
S11306C09D0090939B0080939A008C819D819093D0
S11306D09D0080939C008091A3008F5F8093A30072
S11306E00E9497048091A4009091A5002A813B81E7
S11306F02817390708F478C080919A0090919B00DC
S1130700FC018081882339F48FEF9FEF9093A5003B
S11307108093A40069C080919A0090919B00FC0191
S113072085819681FC01868197819F838E838E814A
S11307309F81FC0182819381998788872A813B81EB
S1130740888599852817390738F488859985909381
S1130750A5008093A40048C08E819F8102960E94C8
S11307607D028E819F81FC0184899589892B29F0E2
S11307708E819F810C960E947D028E819F81FC0157
S113078096898091A000891730F48E819F81FC01A5
S113079086898093A0008E819F81AC014E5F5F4F5C
S11307A08E819F81FC018689282F30E0C901880F42
S11307B0991F880F991F880F991F820F931F8C59B7
S11307C09F4FBA010E942E028E819F81FC012689CF
S11307D08091620090916300FC018689281708F4D7
S11307E08BCF81E0898388CF8091620090916300F0
S11307F0FC018689282F30E0C901880F991F880FD2
S1130800991F880F991F820F931F8C599F4FFC01CA
S11308108081823040F081E0898305C08091A1000D
S11308208F5F8093A1008091A200882311F081E062
S11308308983898129960FB6F894DEBF0FBECDBF98
S1130840DF91CF910895CF93DF9300D01F92CDB75E
S1130850DEB78091A600882321F081E08093A20076
S11308605FC01092A2008091A000898303C0898197
S1130870815089838981282F30E0C901880F991F0D
S1130880880F991F880F991F820F931F8C599F4FB0
S1130890FC018081882359F38981282F30E0C90124
S11308A0880F991F880F991F880F991F820F931F14
S11308B08C599F4F9B838A838A819B81FC01818110
S11308C09281FC01228133818A819B81FC013283E4
S11308D021838A819B81FC01218132818A819B81D0
S11308E003962817390769F48A819B81FC01818169
S11308F09281FC01228133818A819B81FC013283B4
S113090021838A819B81FC0181819281FC01868102
S11309109781909363008093620089818093A00003
S113092000000F900F900F90DF91CF910895CF9317
S1130930DF9300D0CDB7DEB780919A0090919B00F1
S1130940FC018081882339F48FEF9FEF9093A500F9
S11309508093A40015C080919A0090919B00FC01A3
S113096085819681FC01868197819A838983898117
S11309709A81FC01828193819093A5008093A400C5
S113098000000F900F90DF91CF910895CF93DF93E4
S113099000D0CDB7DEB789836A838981882F90E040
S11309A08130910591F0823091051CF4892B39F046
S11309B01EC08230910579F0039799F018C08AE33C
S11309C090E02A81FC01208312C087E390E02A8111
S11309D0FC0120830CC084E390E02A81FC01208385
S11309E006C081E390E02A81FC012083000000001E
S11309F00F900F90DF91CF910895CF93DF9300D0A4
S1130A001F92CDB7DEB789836A834B838981882F90
S1130A1090E08130910581F1823091051CF4892B9D
S1130A2049F090C08230910509F448C0039709F455
S1130A3067C088C08B81882F90E0009721F08F3F9A
S1130A40910571F07FC08AE390E02AE330E0F90178
S1130A502081322F2A8120952323FC0120830BC07F
S1130A608AE390E02AE330E0F90130812A81232BE4
S1130A70FC012083000066C08B81882F90E00097E2
S1130A8021F08F3F910571F05DC087E390E027E38B
S1130A9030E0F9012081322F2A8120952323FC01A3
S1130AA020830BC087E390E027E330E0F901308135
S1130AB02A81232BFC012083000044C08B81882FD2
S1130AC090E0009721F08F3F910571F03BC084E3E3
S1130AD090E024E330E0F9012081322F2A8120952F
S1130AE02323FC0120830BC084E390E024E330E063
S1130AF0F90130812A81232BFC012083000022C0CC
S1130B008B81882F90E0009721F08F3F910571F041
S1130B1018C081E390E021E330E0F9012081322F15
S1130B202A8120952323FC0120830BC081E390E0DC
S1130B3021E330E0F90130812A81232BFC01208359
S1130B400000000000000F900F900F90DF91CF91F4
S1130B500895CF93DF9300D01F92CDB7DEB789837A
S1130B606A834B838B81882F90E0009709F442C0FD
S1130B70019709F086C08981882F90E08130910522
S1130B80B9F0823091051CF4892B39F07AC0823097
S1130B909105C9F0039711F174C08BE390E02BE346
S1130BA030E0F90130812A81232BFC01208321C00C
S1130BB088E390E028E330E0F90130812A81232B97
S1130BC0FC01208316C085E390E025E330E0F901C1
S1130BD030812A81232BFC0120830BC082E390E027
S1130BE022E330E0F90130812A81232BFC012083A8
S1130BF0000047C08981882F90E081309105C9F0B9
S1130C00823091051CF4892B39F03AC08230910569
S1130C10E9F0039741F134C08BE390E02BE330E03B
S1130C20F9012081322F2A8120952323FC0120837E
S1130C3027C088E390E028E330E0F9012081322FD7
S1130C402A8120952323FC0120831AC085E390E0A8
S1130C5025E330E0F9012081322F2A8120952323D6
S1130C60FC0120830DC082E390E022E330E0F9012F
S1130C702081322F2A8120952323FC012083000028
S1130C80000000000F900F900F90DF91CF91089516
S1130C90CF93DF9300D0CDB7DEB789836A83898190
S1130CA0882F90E081309105B9F0823091051CF4D1
S1130CB0892B39F032C082309105C9F0039711F1C4
S1130CC02CC08BE390E02BE330E0F90130812A81E2
S1130CD02327FC01208321C088E390E028E330E04F
S1130CE0F90130812A812327FC01208316C085E382
S1130CF090E025E330E0F90130812A812327FC01CB
S1130D0020830BC082E390E022E330E0F9013081DC
S1130D102A812327FC012083000000000F900F90FC
S10D0D20DF91CF910895F894FFCFFE
S9030000FC
